:100000000C944C000C946D000C9470000C947300D4
:100010000C9476000C9479000C947C000C947F0076
:100020000C9482000C9485000C9488000C948B0036
:100030000C948E000C9491000C9494000C949700F6
:100040000C949A000C949D000C94A0000C94A300B6
:100050000C94A6000C94A9000C94AC000C94AF0076
:100060000C94B2000C94B5000C94B8000C94BB0036
:100070000C94BE000C94C1000C94C4000C94C700F6
:100080000C94CA000C94CD000C94D0000C94D300B6
:100090000C94D6000C94D90011241FBECBE1D3E1FF
:1000A000DEBFCDBF1FE0A0E0B1E0EEE6FDEF00E077
:1000B0000BBF02C007900D92AD3EB107D9F712E118
:1000C000ADEEBFE001C01D92AC31B107E1F70E9477
:1000D00026120E9436010C94AF048F9380E06CC00E
:1000E0008F9381E069C08F9382E066C08F9383E035
:1000F00063C08F9384E060C08F9385E05DC08F9371
:1001000086E05AC08F9387E057C08F9388E054C031
:100110008F9389E051C08F938AE04EC08F938BE01C
:100120004BC08F938CE048C08F938DE045C08F9378
:100130008EE042C08F938FE03FC08F9380E13CC040
:100140008F9381E139C08F9382E136C08F9383E131
:1001500033C08F9384E130C08F9385E12DC08F939E
:1001600086E12AC08F9387E127C08F9388E124C05E
:100170008F9389E121C08F938AE11EC08F938BE119
:100180001BC08F938CE118C08F938DE115C08F93A6
:100190008EE112C08F938FE10FC08F9380E20CC06D
:1001A0008F9381E209C08F9382E206C08F9383E22E
:1001B00003C08F9384E200C09F939FB7F894906828
:1001C0009F930F921F9211242F923F924F925F9212
:1001D0006F927F928F929F92AF92BF92CF92DF9257
:1001E000EF92FF920F931F932F933F934F935F9341
:1001F0006F937F93CF93DF93EF93FF93AF93BF936F
:10020000ADB7BEB79396AF93BF93CDB7DEB7219688
:10021000BE010E94B313C817D90711F00C94F41152
:10022000BF91AF91BF91AF91FF91EF91DF91CF91CE
:100230007F916F915F914F913F912F911F910F91FE
:10024000FF90EF90DF90CF90BF90AF909F908F90F6
:100250007F906F905F904F903F902F901F900F90E6
:100260008F918F778FBF9F918F911895DF93CF9349
:1002700000D000D0CDB7DEB710921911109218112E
:1002800010921B1110921A1110922D1110922C1114
:1002900010922F1110922E1110921511109214110C
:1002A0001092171110921611109221111092201114
:1002B000109223111092221110921D1110921C11F4
:1002C00010921F1110921E111092331110923211C0
:1002D0001092351110923411109231111092301188
:1002E00010922911109228118FEF9FEF90932B11EC
:1002F00080932A110DEE1FE0109325110093241115
:100300001092271110922611C80160E070E045E6B6
:1003100050E00E945C0D83E08093FA0F86E391E049
:100320009093F80F8093F70F82E090E09093FC0F8A
:100330008093FB0F87E191E09093531080935210CC
:10034000109255101092541082E590E19093511044
:1003500080935010C80168E171E10E94770EC801D6
:100360000E94FA13CE010196BE016D5F7F4F0E947D
:1003700007136B817C8189819A810E94220F8DE312
:1003800095E6009711F00E943D658AEF9CE000978A
:1003900011F00E94FA0C88EE9AE7009711F00E9483
:1003A000E87A8DE49AE0009711F00E944D0A0E94CD
:1003B00044280E94EB138DEE9FE06091FB0F0E949A
:1003C00018028DEE9FE00E9436028DEE9FE00E94A3
:1003D0002C02E091F10FF091F20F81E080830E94F6
:1003E000FC010E942A0F009721F40E946E020E94D5
:1003F0002F0F0E94EA13F5CF0F931F9381E291E034
:1004000064E670E040E053E02DE038E100E010E009
:100410000E9408031816190634F086E291E06DE197
:1004200071E00E94271380E090E01F910F910895E2
:10043000CF93DF93EC0186E490E00E94400F009799
:1004400029F09D838C8320E030E002C024EF3FEF51
:10045000C901DF91CF910895DC011496ED91FC91D3
:10046000159781E0818380E090E00895CF93DF933A
:10047000EC018C819D8106960E949E2800D000D0C0
:1004800087E691E0EDB7FEB79283818383E090E049
:10049000948383830E94192C0F900F900F900F90DC
:1004A000009789F480E090E061E070E00E949A2B70
:1004B00080E090E062E070E00E949A2BCE010E9402
:1004C000F2079C0107C01816190614F40E947C2B31
:1004D00029EE3FEFC901DF91CF9108951F930BC023
:1004E0001FB7F89482E391E10E943F0E1FBF00976F
:1004F00011F00E94340F80913211909133110097C6
:1005000079F71F9108952F923F924F925F926F92C9
:100510007F928F929F92AF92BF92DF92EF92FF9263
:100520000F931F93CF93DF932C01D62E3A014901ED
:10053000580185E690E00E94400F192F282EE10116
:100540001E01392EE101209709F443C0C1016D2D30
:100550000E94180297FD21C0C1010E94170897FD53
:100560001CC0822D912FB4014D2D0E947D1397FD4B
:1005700014C0C101B3014EE854E095010D2D0E9455
:10058000360397FD0AC0C101B201A7010E94D90339
:10059000C1010E942C0297FF05C000271127081BEC
:1005A000190B12C0EE800F81822D912F0E948404BE
:1005B00097FF19C00E94BD04FC0100811181CE018A
:1005C0006CE171E10E94970ECE016D2D0E94A8088A
:1005D00002C00CE010E00E94BD04FC011183008306
:1005E0002FEF3FEF02C02E2D302FC901DF91CF91A9
:1005F0001F910F91FF90EF90DF90BF90AF909F9071
:100600008F907F906F905F904F903F902F900895C4
:10061000EF92FF920F931F93CF93DF93FB01DA01C9
:10062000E901780160E0AF019D018E010E94830223
:10063000DF91CF911F910F91FF90EF900895EF926E
:10064000FF920F931F93CF93DF93FB01DA01E90130
:10065000780162E0AF019D018E010E948302DF916B
:10066000CF911F910F91FF90EF900895CF92DF925D
:10067000EF92FF920F931F93CF93DF93EC01162F0E
:100680006A0179010E94D108809130119091311155
:100690000196909331118093301180913011909197
:1006A00031111816190634F081E090E09093311161
:1006B00080933011FC01E170F070DF01AA0FBB1FC5
:1006C000AA0FBB1FAC5DBE4E2D913C911197211519
:1006D000310559F18091301190913111019690932B
:1006E0003111809330118091301190913111181691
:1006F000190634F081E090E090933111809330112D
:10070000FC01E170F070DF01AA0FBB1FAA0FBB1F35
:10071000AC5DBE4E2D913C9111972115310529F00C
:100720000E94F0082FEF3FEF3AC0EE0FFF1FEE0FD1
:10073000FF1FEC5DFE4ED183C083938382839F8332
:100740008E830E94F0081C87D986C886FB86EA86BD
:100750000370802F90E02E853F852C7F822B932B7A
:100760009F878E87AE01425E5F4F83E090E060E03E
:1007700070E00E94D3041D86CE010E94FA130E94ED
:10078000D108CE016CE171E10E94770E84E08D8783
:100790000E94F008CE59DF4F188320E030E0C901F5
:1007A000DF91CF911F910F91FF90EF90DF90CF904D
:1007B00008952F923F924F925F926F927F928F9205
:1007C0009F92AF92BF92CF92DF92EF92FF920F93E0
:1007D0001F93CF93DF933C014A0184E791E00E948D
:1007E000720D7C010894E11CF11C81149104E1F06C
:1007F000E40100E010E013C00E94720D0196E80EC3
:10080000F91EF30186899789E816F90608F060C099
:100810000F5F1F4FF1E001301F0709F45CC08991A1
:100820009991009749F702C000E010E0E801229694
:10083000CC0FDD1FBE016E0D7F1DC3010E94471549
:100840007C01009709F44AC05C01AC0EBD1EFC019E
:10085000A192B1926F0184E791E00E94720DEC01C8
:10086000C50164E771E00E94670D2196CA0DDB1D8A
:1008700054018824992419C0F601C193D1936F01C2
:100880002501F501819191915F010E94720D1C017A
:10089000F20160817181CE010E94670DC101019654
:1008A000C80FD91F0894811C911C8016910624F34F
:1008B000F8013196EE0FFF1FEE0DFF1D1182108221
:1008C000F301ED59FF4FF182E08220E030E008C0F3
:1008D0002CED3FEF05C029EF3FEF02C024EF3FEFC3
:1008E000C901DF91CF911F910F91FF90EF90DF90A1
:1008F000CF90BF90AF909F908F907F906F905F90C0
:100900004F903F902F9008951F931FB7F8940E9427
:1009100064151FBF80E090E01F910895E0911811C9
:10092000F0911911DF01AD59BF4F6D917C91DB0141
:10093000129681E090E008C0019621E08130920794
:1009400019F481E090E009C02D913D912115310508
:1009500099F70284F385E02D09950E94AF04209158
:10096000181130911911C82FD0E0C901BE0140E023
:100970000E942E09CE010E94DF130E941A148823C0
:1009800071F420911811309119112115310539F0A8
:10099000F9018585833019F42A5C3F4F02C026E5B2
:1009A00030E1C9010895CF92DF92EF92FF920F9349
:1009B0001F93CF93DF938C01EB016A01E090181134
:1009C000F09019110E94D108F701868D978DA0A192
:1009D000B1A1C114D10429F0F60180839183A283CF
:1009E000B383209709F43DC06FB7F8940230110526
:1009F000A1F00330110519F10130110561F5F7017E
:100A0000868D978DA0A1B1A1288139814A815B8112
:100A1000822B932BA42BB52B17C0288139814A81B7
:100A20005B812095309540955095F701868D978D87
:100A3000A0A1B1A182239323A423B52305C088815B
:100A40009981AA81BB81F701868F978FA0A3B1A35B
:100A5000C0E0D0E002C0CFEFDFEF6FBF0E943F05E4
:100A600002C0C0E0D0E00E94F008CE01DF91CF913B
:100A70001F910F91FF90EF90DF90CF900895CF924C
:100A8000DF92EF92FF920F931F93DF93CF9300D0EB
:100A900000D0CDB7DEB7C0901811D09019110E94C8
:100AA000D108F601E68CF78C00A111A1E094F09436
:100AB00000951095C6010E94A40A6E217F21802313
:100AC000912369837A838B839C837E010894E11C44
:100AD000F11C1CC0C7010E94ED058C01FFEF8F3F88
:100AE0009F07A1F0C701B8010E94BC0DC601B80163
:100AF0000E949D058C01009749F0BC016E5F7F4FFD
:100B0000C6010E940D06C8010E94D30589819A8101
:100B1000AB81BC810097A105B105E1F60E94F00808
:100B20000F900F900F900F90CF91DF911F910F9129
:100B3000FF90EF90DF90CF900895EF92FF921F9378
:100B4000CF93DF939B01FC01848195811FB7F894BB
:100B5000FC01C281D381E0E0F0E008C0FE015881D1
:100B60004981E52EE7017E01F42EE701209781F00F
:100B70004A8150E04217530789F712C0BC016E5FEB
:100B80007F4FCF010E94540E03C002960E943F0E79
:100B90001FBFCE01DF91CF911F91FF90EF9008957D
:100BA000309761F7F2CF1F93FC012681222329F4AD
:100BB0001FB7F89466E471E106C0223041F41FB714
:100BC000F89462E471E10E94000E1FBF04C021305E
:100BD00011F40E9473081F910895EF92FF920F93F2
:100BE0001F93CF93DF938C01C0E0D0E0C801BE011A
:100BF0000E94E90D009731F42196C032D105B1F77A
:100C0000CFEFDFEFCE01DF91CF911F910F91FF90DA
:100C1000EF9008958FB7F8940895AF92BF92CF9256
:100C2000DF92EF92FF920F931F93CF93DF93EC012C
:100C30008B01DB016C914E9670E00E94E90D0097EC
:100C400009F489C00E940A06E82E8D858630C9F411
:100C5000F8016081CE01829670E00E94E90D009754
:100C600081F0CE01C296B80144E050E00E947B0DB5
:100C70001AA21BA21CA21DA2CE010E946415EFBEE7
:100C800067C0EFBEEC80FD80D801CC900E940A06C0
:100C9000D7011296ED91FC91139703C00190F0815A
:100CA000E02D309719F092819C15C1F78FBF3097D6
:100CB00041F0CF010296B80144E050E00E947B0D64
:100CC00047C00E941A148823B9F086E491E10E947B
:100CD0003F0EE82FEF015E01B92EE501209739F5AF
:100CE00082E491E10E943F0EEC015E01B92EE50124
:100CF000209709F49FC01BC00E940A06C82E86E4F4
:100D000091E10E943F0EEC015E01B92EE501CFBEDC
:100D1000209769F487E090E00E943A0FEC015E01B1
:100D2000B92EE501209709F485C081E08E83CE01BC
:100D30000296B80144E050E00E947B0D0E940A0632
:100D4000082FB7016E5F7F4FCE010E94000E0FBFCC
:100D5000EE24FF2463C00E94D108D8016C91CE011B
:100D600070E00E94F70A7C01009769F1FC01828122
:100D70009381009741F10E941E0B6C01009731F1A5
:100D8000D70112968D919C911397F60193838283DC
:100D900014968D919D910D90BC91A02D8483958387
:100DA000A683B783C6010896B80144E050E00E94CC
:100DB0007B0D0E940A06E82EBE01665D7F4FC601CC
:100DC0000E94000EEFBEEE24FF2404C084EFE82E44
:100DD0008FEFF82E0E94F008CE0162E377E00E94C8
:100DE00090140E940A06C82E8D85863071F4CE01BB
:100DF000C296B80144E050E00E947B0D1AA21BA2EB
:100E00001CA21DA2CE010E946415CFBE8D85853027
:100E100029F4CE0164E070E00E949409C701DF91DB
:100E2000CF911F910F91FF90EF90DF90CF90BF90E7
:100E3000AF9008958DE791E060E671E00E9427137E
:100E4000CF93DF93EB010E949108009729F0BE0138
:100E50000E940D069C0102C02DEF3FEFC901DF91FA
:100E6000CF9108952F923F924F925F926F927F920F
:100E70008F929F92AF92BF92CF92DF92EF92FF92AA
:100E80000F931F93DF93CF9300D000D000D0CDB746
:100E9000DEB78C010E94D108D801D6962D903C90E7
:100EA000D7979A96ED91FC919B97FE83ED832AE26A
:100EB000422E512C400E511E9EE2A92EB12CA00EA6
:100EC000B11E81E0682E712C812C912C65C0AD8102
:100ED000BE81BC91B983ED81FE81F181FA83CFB6E9
:100EE000F894ED80EB82FE80FC82C701B2010E9483
:100EF000150E8D819E81B5010E94000ECFBED801D6
:100F00005E96CD90DD90ED90FC909197ED81FE8105
:100F100084819581A681B7818C299D29AE29BF291D
:100F2000A4019301008404C0220F331F441F551FE6
:100F30000A94D2F7822B932BA42BB52BF801868F22
:100F4000978FA0A3B1A36D817E81685F7F4FAD8134
:100F5000BE811296ED91FC91139718968C9190E0BA
:100F600040E050E00995F801C68ED78EE0A2F1A2CC
:100F70000E943F05CFB6F8948B819C81B5010E94F9
:100F8000150ECFBE8D819E810E944A0B99818A8168
:100F9000492F582F5E834D83ED80FE80E114F104CC
:100FA00009F095CFD801D7963C922E92D6970E9401
:100FB000F00826960FB6F894DEBF0FBECDBFCF91D6
:100FC000DF911F910F91FF90EF90DF90CF90BF9036
:100FD000AF909F908F907F906F905F904F903F90D9
:100FE0002F900895EF92FF92CF93DF93EC018C81C5
:100FF0009D810E94B80E80E090E061E070E0AE015B
:101000000E941F2E81E090E066E070E0AE010E9439
:101010001F2E82E090E066E070E0AE010E941F2E7D
:1010200080E090E0DF91CF91FF90EF9008958F9254
:101030009F92AF92BF92CF92DF92EF92FF920F9367
:101040001F93CF93DF937C01FC01848195810696E9
:101050000E949E28F701A480B580E0911811F091BC
:101060001911C480D5808601C0E0D0E0F8018685E2
:101070009785009711F14E012C2F392DC901880F4A
:10108000991F63E0220F331F6A95E1F7820F931FC8
:1010900008962C2F392DB901660F771F43E0220FD8
:1010A000331F4A95E1F7620F731F685F7F4F6A0D28
:1010B0007B1D8C0D9D1D0E94C8282196065F1F4F29
:1010C000C330D10599F6C7010E94F207DF91CF9195
:1010D0001F910F91FF90EF90DF90CF90BF90AF9056
:1010E0009F908F9008951F93CF93DF93EC010E9400
:1010F0001A14882321F40E942A0F009749F01FB781
:10110000F894CE0162E371E10E94000E1FBF05C09A
:10111000CE010E94340F0E942F0FDF91CF911F91BB
:10112000089597FD11C0FC01E170F070EE0FFF1FF4
:10113000EE0FFF1FEC5DFE4E228133818217930775
:1011400019F42081318102C020E030E0C901089506
:10115000CF93DF93EC010097F9F0EE81FF81309798
:1011600071F0E170F070EE0FFF1FEE0FFF1FEC5DEE
:10117000FE4E118210828FEF9FEF93838283888DC2
:10118000998D009719F0CE010E948014CE010E9423
:10119000B40BCE010E94730880E090E0DF91CF9104
:1011A0000895CF93DF93C0911811D0911911209712
:1011B00091F00E941A14882371F4888999898F37D5
:1011C000910534F082EC91E069E670E00E9427130B
:1011D0000196998B888B80E090E0DF91CF91089504
:1011E0001F93CF93DF93C0911811D09119112097BD
:1011F00079F10E941A14882359F51FB7F894888949
:101200009989009719F00197998B888B888999891A
:1012100018161906E4F0198A188A80912C119091F9
:101220002D11009711F00E9456148E8584FF0FC077
:101230008A899B89009759F480911811909119110E
:10124000C817D90721F084E190E09B8B8A8B1FBFE0
:1012500080E090E0DF91CF911F9108950F931F934D
:10126000DF93CF930F92CDB7DEB78C01FC0186855B
:1012700085FD1FC0C80149830E945F09498144233D
:1012800061F4F80184819581009739F0FC01218196
:10129000213019F4C0960E94170DC8010E94B40BAA
:1012A000C8010E94640BF801868597858062978744
:1012B00086870F90CF91DF911F910F910895CF9363
:1012C000DF93EC010E946A09CE010E948109DF913F
:1012D000CF9108951F93CF93DF93EC011FB7F8943C
:1012E0008C899D89009741F00E94D90B8C899D893A
:1012F0000E94260C1D8A1C8A1FBFDF91CF911F916F
:101300000895FC012FB7F8948585853059F4A48D94
:10131000B58D8D919C911197019611969C938E930A
:10132000158E148E2FBF08951F93FC011FB7F894DC
:101330008585853079F4A48DB58D8D919C9111971B
:1013400001968D939C93158E148E77AB66ABCF016F
:101350000E9464151FBF1F9108956F927F929F9204
:10136000AF92BF92CF92DF92EF92FF920F931F93B3
:10137000CF93DF936C017B01942E8DE090E03C01D4
:10138000669DC001679D900D769D900D11240E9471
:101390003A0F5C01982F292FE9013E017B2CE301D4
:1013A00000E010E008C09C86CE012D96B6010E9498
:1013B000000E0F5F1F4F0E151F05A8F3C501DF912B
:1013C000CF911F910F91FF90EF90DF90CF90BF9042
:1013D000AF909F907F906F9008956F927F929F92B1
:1013E000AF92BF92CF92DF92EF92FF920F931F9333
:1013F000CF93DF936C017B01942ECB0123E0880F08
:10140000991F2A95E1F7861B970B0E943A0F5C0102
:10141000982F692EE3013E017B2CE30100E010E0F0
:1014200008C09E82CE012796B6010E94000E0F5F73
:101430001F4F0E151F05A8F3C501DF91CF911F9116
:101440000F91FF90EF90DF90CF90BF90AF909F9063
:101450007F906F900895EF92FF920F931F93CF9319
:10146000DF9380EB90E00E943A0FEC0190935910CB
:10147000809358108C0100551F4FCE012B9666E3C8
:1014800071E10E94000EC017D107B9F7DF91CF912B
:101490001F910F91FF90EF900895109237111092C5
:1014A0003611109239111092381110923B1110928E
:1014B0003A1110923D1110923C1110923F1110926E
:1014C0003E1110924111109240111092471110924A
:1014D0004611109249111092481110924311109226
:1014E000421110924511109244118AE391E160E19A
:1014F00070E040E00E94AD0990935B1080935A1019
:101500008EE391E168E070E042E00E94AD099093C3
:101510005D1080935C100E942B0A86E491E160E1EB
:1015200070E040E00E94ED0990935F1080935E10A0
:1015300082E491E168E070E042E00E94ED0990935E
:101540006110809360100895DF92EF92FF920F93E5
:101550001F93DF93CF9300D000D0CDB7DEB7DC016F
:101560001496ED91FC91159719821A821B821C82A8
:10157000DFB6F894028113817E010894E11CF11C0E
:101580000AC0F8016281C70170E00E948A0DD8018B
:101590000D911C9111970115110599F7DFBE698115
:1015A0007A818B819C810F900F900F900F90CF913B
:1015B000DF911F910F91FF90EF90DF900895CF93EF
:1015C000DF93EC018091181190911911209749F047
:1015D0000E94A40A688379838A839B8320E030E099
:1015E00002C02FEF3FEFC901DF91CF910895EF9235
:1015F000FF920F931F93CF93DF93EC018B01009722
:1016000099F00E94D1080EA0DFA1C02D03C009905F
:10161000D881C02D209729F08A8590E08017910706
:10162000B1F70E94F00802C0C0E0D0E0CE01DF9127
:10163000CF911F910F91FF90EF9008951F930E94FB
:101640001A14882379F08AE391E10E943F0EE82F73
:10165000F92F3097E1F48EE391E10E943F0EE82FDD
:10166000F92F15C01FB7F8948AE391E10E943F0E4D
:10167000E82FF92F1FBF309751F48DE090E00E94C2
:101680003A0FE82FF92F309711F081E08487CF01CE
:101690001F9108951F93FC012485222329F41FB76D
:1016A000F8946AE371E106C0223041F41FB7F89460
:1016B0006EE371E10E94000E1FBF04C0213011F4DF
:1016C0000E9473081F9108950F931F93CF93DF9388
:1016D000EC018C010A5D1F4F03C0C9010E94510C2F
:1016E000C8010E943F0E9C010097B9F704C0C901D0
:1016F0000E944A0B03C08E01065D1F4FC8010E9465
:101700003F0E9C01009799F704C0C9010E944A0B43
:1017100003C08E01025D1F4FC8010E943F0E9C0155
:10172000009799F78FEF9FEFAFEFBFEF8E8F9F8FEF
:10173000A8A3B9A31AA21BA21CA21DA2DF91CF913C
:101740001F910F910895CF93DF93EC01229603C070
:10175000C9010E94D305CE010E943F0E9C01009753
:10176000B9F7DF91CF9108950F931F93CF93DF9334
:101770008C01FC01C481D5812097B1F08981823030
:1017800018F0815089830DC0CE010E94A30BCE01B9
:1017900006960E94A528CE010E94EC0ECE010E9462
:1017A0007308F80115821482DF91CF911F910F9178
:1017B00008951F93CF93DF93EC011FB7F894009720
:1017C000C1F18E8180FF35C02091501130915111AF
:1017D00080E090E006C0C901F90150814181252FC8
:1017E000342F2115310521F02C173D07A1F729C011
:1017F00084E092E061E870E00E9427132481358143
:101800004C815D81240F351F35832483009729F097
:1018100060E571E10E94540E04C080E591E10E94F0
:101820003F0E198218828E818E7F8E8320E030E0F9
:1018300002C02FEF3FEF1FBFC901DF91CF911F9172
:101840000895E881F9813097C9F6E0CF1F93CF93CF
:10185000DF93EC011FB7F8948E8180FF03C0CE01A7
:101860000E94D90B8E8181FF05C01FBFCE010E944F
:10187000730811C082FD0FC0CE016AE471E10E94BD
:10188000000E80914E1190914F11019690934F113F
:1018900080934E111FBF80E090E0DF91CF911F91A8
:1018A000089566E371E10E94000E08958F929F9261
:1018B000AF92BF92CF92DF92EF92FF920F931F935E
:1018C000CF93DF935C017B018A01C0901811D09007
:1018D000191180E2A816B10450F00E94BD0426E15F
:1018E00030E0FC01318320832FEF3FEF75C0C6014C
:1018F000B5010E94F70AEC0101151105E9F0009706
:1019000091F08A819B81F801918380838C819D81F4
:10191000AE81BF8182839383A483B58388859985B3
:101920009783868309C0F801118210821282138284
:101930001482158217821682E114F10409F44AC058
:10194000F70180819181009769F4209709F442C0E2
:10195000B6016A5D7F4FCE010E94150ECE010E9436
:10196000510C38C0209729F586E391E10E943F0E83
:10197000882EE4014E01992EE401209799F40E94EB
:101980002B0A86E391E10E943F0EE82FEF014E0102
:10199000992EE401209731F484E492E068E670E047
:1019A0000E942713AA86B6016A5D7F4FCE010E946E
:1019B000000EF701808191819B838A8382819381CC
:1019C000A481B5818C839D83AE83BF8386819781FB
:1019D0009987888720E030E0C901DF91CF911F917E
:1019E0000F91FF90EF90DF90CF90BF90AF909F90BE
:1019F0008F90089510924B1110924A1110924D1130
:101A000010924C11109251111092501110925311CA
:101A10001092521182E690E16AE471E10E94000E98
:101A200081E090E090934F1180934E110895CF92F2
:101A3000DF92EF92FF920F931F93CF93DF93EC010E
:101A4000009759F10E94F00E8E01EE24FF24CC2461
:101A5000DD24F8018281938197FD12C0848181FF8A
:101A60000FC0C701880F991F880F991F8E0D9F1DEA
:101A700002968C0F9D1F61E00E94590D97FD6C012D
:101A80000894E11CF11C0B5F1F4FF4E0EF16F1040A
:101A900001F7CE010E940A0F02C0CC24DD24C6014A
:101AA000DF91CF911F910F91FF90EF90DF90CF903A
:101AB000089580E090E00895282F392FF90103C0A0
:101AC00061934150504041155105D1F70895262F9B
:101AD000372FD901282F392FF9012D912193222356
:101AE000E1F70895FC019F0141914423E1F7281B90
:101AF000390BC9010895282F392FD901262F372FE7
:101B0000F90104C021912D934150504041155105D8
:101B1000C9F70895EF92FF920F931F93FC01603273
:101B2000710550F00E94BD0426E130E0FC013183D4
:101B300020832FEF3FEF1AC081E0E82EF12C012D1A
:101B4000112D04C0EE0CFF1C001F111F6A95D2F767
:101B500020813181428153812E293F29402B512BF5
:101B6000208331834283538320E030E0C9011F91F9
:101B70000F91FF90EF900895FC016032710550F0D5
:101B80000E94BD0426E130E0FC01318320832FEF69
:101B90003FEF1DC021E030E040E050E004C0220FE4
:101BA000331F441F551F6A95D2F7209530954095F5
:101BB0005095608171818281938162237323842394
:101BC0009523608371838283938320E030E0C90191
:101BD00008956032710580F4FC0180819181A281B9
:101BE000B38104C0B695A795979587956A95D2F766
:101BF0009C012170307002C02FEF3FEFC9010895A2
:101C0000FB01DC0111961C921E922081318121156D
:101C1000310519F49183808305C0A281B3811196A7
:101C20009C938E93938382830895CF93DF93DC01FB
:101C3000FB01808191810097F9F01097E9F0A817D6
:101C4000B90789F48D919C9111979183808382814A
:101C50009381A817B90781F4138212820DC0211550
:101C6000310551F0C901EC01288139812A173B0760
:101C7000B1F7BF010E94540EDF91CF910895DC01AE
:101C8000ED91FC911197309769F0808191811196C7
:101C90009C938E93009721F413961C921E92129798
:101CA00011821082CF010895CF93DF93DC01EB0105
:101CB000ED91FC911197888199810097A1F030975F
:101CC00091F08A819B818E179F0731F4BB83AA8391
:101CD00011961C921E9205C08081918111969C9351
:101CE0008E9311821082CF01DF91CF910895CF930F
:101CF000DF93FC01DB01138212828D919C9111977D
:101D000091838083CD91DC911197209741F41196B6
:101D1000FC93EE931396FC93EE93129705C0FB830E
:101D2000EA831196FC93EE93DF91CF910895CF93C0
:101D3000DF93FC01C281D381A081B181209721F47E
:101D4000FB01B183A08302C0B983A883109721F45B
:101D5000FB01D383C28304C01396DC93CE93129706
:101D6000FC011182108213821282DF91CF910895BB
:101D7000CF92DF92EF92FF920F931F93CF93DF9357
:101D8000EC01C09660E070E041E050E00E940D0F71
:101D90008E010E5C1F4FC0E0D0E07801CC24CA94C5
:101DA000DC2CC7018C0F9D1F60E070E045E050E027
:101DB0000E945C0DF801D182C08225960B5F1F4FF7
:101DC000C431D10571F7DF91CF911F910F91FF9031
:101DD000EF90DF90CF900895C0960E9455640895CB
:101DE000CF93DF93EC010EC00E94BD04FC01808103
:101DF00091818430910531F087E892E061E570E0EF
:101E00000E942713CE010E946F64009769F7DF914B
:101E1000CF9108950E9404650895009741F057FD01
:101E200006C0FC015183408320E030E009C00E94DD
:101E3000BD0426E130E0FC01318320832FEF3FEF2A
:101E4000C90108959C01AB0184E591E1B9010E94AB
:101E5000870F089584E591E10E94DA0F089584E5E3
:101E600091E10E9430100895BC0184E591E10E9447
:101E7000A7100895BC0184E591E10E9438110895EE
:101E8000BC0184E591E10E94B7110895CF93DF93DF
:101E9000FC01DB011F96A07F460F571F407F9A0170
:101EA0002A1B3B0B86819781820F931F9783868322
:101EB000B187A08784E090E011969C938E93C085B3
:101EC000D18560E070E87B836A83BD016C5F7F4FE2
:101ED0002850304015963C932E931497EB019B832A
:101EE0008A834450504053874287EA01998388830C
:101EF000C285D38514968D919C91159790689B838C
:101F00008A83CF010E944C10DF91CF910895EF9208
:101F1000FF920F931F93CF93DF93EC018B017A0114
:101F20001F821E820C9660E070E040E650E00E9446
:101F30005C0DFE0181E090E09C0153E0220F331F15
:101F40005A95E1F7245F3F4F2C0F3D1F318B208BBB
:101F50009C0143E0220F331F4A95E1F72C5F3F4F6E
:101F60002C0F3D1F338F228F019638968C309105B0
:101F700019F7CE010E94C80FCE01B801A7010E9437
:101F8000460FDF91CF911F910F91FF90EF90089531
:101F9000CF93DF93EC0160E070E041E050E00E94FD
:101FA0000D0F8FEF9FEF9B838A831D821C82DF9131
:101FB000CF9108950F931F93CF93DF93EC010E946D
:101FC0000D638C018A819B818017910721F48C819C
:101FD0009D81019609C0CE010E94CD64009749F40D
:101FE0001B830A8381E090E09D838C8320E030E0B6
:101FF00002C02FEF3FEFC901DF91CF911F910F91E9
:1020000008950F931F93CF93DF93EC010E940D630C
:102010008C018A819B818017910791F48C819D812D
:10202000019617C00E94BD04FC018081918184301B
:10203000910531F08AEC92E06BEA70E00E94271380
:10204000CE010E946F64009769F71B830A8381E0C9
:1020500090E09D838C83DF91CF911F910F91089524
:10206000FC01848195818230910524F0019795834C
:10207000848308958FEF9FEF938382831582148268
:10208000CF010E940465009731F08AEC92E06CED7C
:1020900070E00E94271308950F931F93CF93DF934F
:1020A000EC018B01FB01808191810E949110FC0168
:1020B00023E0EE0FFF1F2A95E1F73C96EC0FFD1F82
:1020C000DC01129683E0AA0FBB1F8A95E1F7AC0FE3
:1020D000BD1F0D90BC91A02D05C0FD01948185818F
:1020E000A92FB82F109759F08D919C9111970097B7
:1020F00031F0E801288139818217930770F3158345
:102100000483E801FF83EE83BD83AC83109721F045
:1021100017961C930E931697DF91CF911F910F91F5
:10212000089597FD10C054E0969587955A95E1F76C
:1021300020E030E004C02F5F3F4F969587958230B6
:102140009105C8F702C02BE030E0C9010895EF9275
:10215000FF920F931F93CF93DF937C018B01611547
:10216000710509F47EC00E940110F8013497828144
:1021700093819F7793838283A081B181AE0FBF1F2C
:1021800012968D919C91139797FD33C08D919C91E0
:1021900011978A0F9B1F16962D913C9117971496B5
:1021A0004D915C911597E9015D834C8314962D91B7
:1021B0003C9115972115310539F016964D915C919A
:1021C0001797E9015F834E834D915C9120813181A6
:1021D000420F531F51834083DC0112962D913C9195
:1021E000139720703078242B352B13963C932E9325
:1021F000129782819381EF01C81BD90BCE012A81EE
:102200003B8137FD27C02E813F814C815D81E901F3
:102210005D834C83EC012C813D812115310529F032
:102220004E815F81E9015F834E8340815181FC01D2
:1022300020813181420F531F5183408312962D918B
:102240003C91139720703078242B352B13963C93B8
:102250002E931297C701BF010E944C10C7010E9424
:102260003010DF91CF911F910F91FF90EF90089563
:10227000EF92FF920F931F93CF93DF938C01611521
:10228000710509F45EC093E1E92EF12CE60EF71E0C
:1022900020EF3FEFE222F322C8010E940110F7FC79
:1022A00004C0C7010E94911002C08BE090E0FC01C5
:1022B000329683E0EE0FFF1F8A95E1F7E00FF11FE2
:1022C000C081D18103C00C80DD81C02D209799F1A0
:1022D000888199818E159F05B0F33DC08E819F81C5
:1022E00097838683E881F9819F012E193F09283061
:1022F0003105D0F0EC0FFD1FBE016E0D7F1DDB011F
:1023000011963C932E931396FC92EE921297F982BB
:10231000E8828281938180709078822B932B9383C3
:102320008283C8010E944C108A819B8190689B83A4
:102330008A83249602C0C0E0D0E0C8010E94301019
:1023400002C0C0E0D0E0CE01DF91CF911F910F918C
:10235000FF90EF900895EE81FF818C819D819583A0
:102360008483EC81FD81309709F0B8CFBBCFEF9229
:10237000FF920F931F93CF93DF938B010E9438112D
:10238000EC01009729F060E070E0A8010E945C0D6C
:10239000CE01DF91CF911F910F91FF90EF900895A3
:1023A000DC013F912F919EB79D938DB78D9314962D
:1023B000DD93CD9316961D930D93FD92ED92DD92D4
:1023C000CD92BD92AD929D928D927D926D925D92D5
:1023D0004D923D922D9211241D9211960FB60D92A1
:1023E00012963D932D93CB01DC01ED01A3969D91B7
:1023F0009EBF8D918DBF999189918F939F939D9150
:102400008D918F939F93FD91ED91DD91CD917D9174
:102410006D915D914D913D912D911D910D91FD908D
:10242000ED90DD90CD90BD90AD909D908D907D9084
:102430006D905D904D903D902D901D900D908D91E3
:102440008FBF9D918D91BF91AF91089588E10FB697
:10245000F89480936000109260000FBE80E090E0DE
:1024600020E80FB6F89420936100809361000FBEBE
:102470000E94D9170E94C6120E948160089587EEBB
:102480009FEF0895FB01309721F08091C800808371
:1024900011828091CE0090E00895662321F0809112
:1024A000C900806803C08091C9008F778093C900FC
:1024B00008958091C800881F8827881F0895609319
:1024C000CE0008959091C80081E095FF80E00895C6
:1024D0009091C80081E096FF80E008951F931FB798
:1024E000F894662351F08091C90080628093C900FE
:1024F00087E393E00E94B65F05C08091C9008F79A1
:102500008093C9001FBF1F9108958091C80085FF67
:1025100004C087E393E00E94B65F80E090E00895F6
:10252000E9ECF0E08081809300008F71808388E186
:1025300090E060E070E00E94CD6089E190E060E0B2
:1025400070E00E94CD60089588E190E063EB72E155
:102550000E94CD6089E190E065E872E10E94CD6063
:1025600080E090E008958091C80087FF04C087E371
:1025700093E00E940A6080E090E008950E94BB17FB
:1025800008950E94C81780E090E00895E9ECF0E01B
:102590008081809300008F71808381E080933A0373
:1025A0000E94C8170895CF93DF93C7E3D3E087E075
:1025B00093E0BE010E94695F84E193E0BE010E9446
:1025C000695FDF91CF910895EF92FF921F93CF93B0
:1025D000DF93EC011091C900812F8F718093C900A6
:1025E000CA30D10519F48DE00E94DC178C2F0E94AF
:1025F000DC178091C9008F71107E182B1093C900D1
:10260000CE01DF91CF911F91FF90EF9008950F932E
:102610001F93CF93DF93EC018B0180E090E00E9449
:10262000AC6080910001909101019983888380E0E2
:1026300091E22091000130910101821B930BF8017E
:1026400091838083DF91CF911F910F910895EC01C9
:102650008B0182E090E00E94AC608DB79EB70A9734
:102660000FB6F8949EBF0FBE8DBFEDB7FEB7319683
:1026700083E090E0ADB7BEB712969C938E9311970E
:1026800089E593E09383828383E893E09583848351
:10269000D783C683118700870E94AD6D8DB79EB723
:1026A0000A960FB6F8949EBF0FBE8DBF0E94A51567
:1026B0008091C0119091C111009741F4E0911811DF
:1026C000F091191186819781009799F48FB7F8944A
:1026D00080E090E00E94AC608AEF90E00E942C14B1
:1026E00080E090E00E94BD608AEF90E00E942C1490
:1026F000EFCF81E090E00E94AF040F931F93CF9340
:10270000DF93EC018B01888D998D009749F08E89BC
:102710009F898617970721F0CE01642F0E948014AD
:10272000888D998D009729F4C8010E943A0F998FDE
:10273000888F888D998D009771F00197800F911F78
:102740009B8F8A8F1F8B0E8B81E090E00E94AC6084
:1027500020E030E002C02FEF3FEFC901DF91CF91C1
:102760001F910F910895FF920F931F93CF93DF93C3
:10277000F82E8B0182E090E00E94AC60C091C01105
:10278000D091C1111093C1110093C0118F2D90E011
:10279000B8010E94E660F090C0110091C111D09381
:1027A000C111C093C01182E090E00E94BD608F2DE6
:1027B000902FDF91CF911F910F91FF9008958FB7C8
:1027C000F8940E9477628091181190911911CD961A
:1027D0000E94F41108951092C1111092C0110E942C
:1027E00024140E94E8170E94D31280E090E00E9417
:1027F000AC600895CF93DF93EC01C89660E070E081
:102800004AE250E00E945C0D8A8D9B8D9DAF8EAF99
:1028100088859985FE01E05AFF4F9083FE01EF59AC
:10282000FF4F80838FB7C35ADF4F80688883DF9163
:10283000CF91089581E02091C0113091C1112115EF
:10284000310509F480E008951092C1111092C01171
:102850008FB780688FBF0895DF93CF9300D000D0EB
:10286000CDB7DEB71A82198215C01C821B8206C042
:102870002B813C812F5F3F4F3C832B832B813C81FD
:1028800043E020363407A4F329813A812F5F3F4F7C
:102890003A83298329813A812817390730F30F9029
:1028A0000F900F900F90CF91DF910895CF93DF930A
:1028B000C0911811D09119110E94A0618823E9F0EC
:1028C0006091C0117091C111CE01CD966115710555
:1028D00061F00E94FF178091181190911911CD9607
:1028E0009093C1118093C01108C06091181170912C
:1028F0001911635C7F4F0E94D011DF91CF91089531
:10290000CF93DF93EC01888D998D009721F00E9481
:102910007308198E188E1F8A1E8ADF91CF91089531
:102920001F93CF93DF93FC0180AD91AD009709F029
:1029300058C01FB7F8948091181190911911E81799
:10294000F907A9F5A091C011B091C111109721F418
:10295000CF01FB01099544C071AF60AF94968C9193
:10296000949782AF93968C91939783AF90968C9126
:10297000909784AF85EF94E194968C93A091C011C9
:10298000B091C11193969C93A091C011B091C111C7
:1029900090968C9190978F7790968C936091C011C0
:1029A0007091C111CF01CD960E94FF1719C071AF70
:1029B00060AF9F012F593F4FD9018C9182AFEF013A
:1029C000C05ADF4F888183AFDF01A35ABF4F4C91BC
:1029D00044AF85EF94E1F901808398834F774C935E
:1029E0001FBFDF91CF911F910895EF92FF920F9338
:1029F0001F93DF93CF93CDB7DEB7A5970FB6F894AB
:102A0000DEBF0FBECDBF0091181110911911D80172
:102A1000D696ED90FC90D79782E090E00E94AC6053
:102A2000F80180AD91AD009731F48DE893E063E655
:102A300070E00E942713B801635C7F4FCE010196BE
:102A40000E94FF17D801DA968C91DA978DA3DB9656
:102A50008C91DB978CA3DC968C91DC9789A3D8961C
:102A6000ED91FC91D997D9961C921E92D8978FBF61
:102A7000C80109958FB7F894F801F7AAE6AA82E091
:102A800090E00E94BD60CE0101960E94F411FC010D
:102A9000808D918D0097A1F08689978968177907B5
:102AA00078F4228D338D261B370B228F338F861BB4
:102AB000970B978B868B35AF26AF2F5F3F4F02C0AA
:102AC00020E030E0C90108950F931F93CF93DF9367
:102AD000EC0100911811109119118D8584508330EB
:102AE00030F087ED93E069E570E00E942713CE0196
:102AF0000E94F76184E190E09B8B8A8BCE010E945B
:102B00000F618823E9F06091C0117091C111C80173
:102B1000CD966115710561F00E94FF178091181123
:102B200090911911CD969093C1118093C01108C056
:102B30006091181170911911635C7F4F0E94D01140
:102B4000DF91CF911F910F910895AF92BF92CF92D5
:102B5000DF92EF92FF920F931F93CF93DF93E09159
:102B60001811F09119110DB72EB7922F80E010E0D7
:102B7000082B192B86819781009749F4C091000199
:102B8000D09101012197A12C41E0B42E04C0C28D47
:102B9000D38DA688B7888DB79EB708970FB6F894DF
:102BA0009EBF0FBE8DBFEDB7FEB7319633E0E32E6B
:102BB000F12CADB7BEB71296FC92EE92119782E25D
:102BC00094E09383828323E4C22E25E0D22ED58223
:102BD000C482178306830E94AD6DEDB7FEB73196B0
:102BE000ADB7BEB71296FC92EE92119788E394E0CF
:102BF00093838283D582C482D783C6830E94AD6DBE
:102C0000EDB7FEB73196ADB7BEB71296FC92EE9215
:102C100011978EE494E093838283D582C482B78235
:102C2000A6820E94AD6DEDB7FEB738960FB6F89448
:102C3000FEBF0FBEEDBFC017D10730F0CE018A191D
:102C40009B098017910708F100D000D000D0EDB7A4
:102C5000FEB7319683E090E0ADB7BEB712969C9375
:102C60008E93119784E694E09383828383E495E0C6
:102C7000958384830E94AD6DEDB7FEB736960FB68F
:102C8000F894FEBF0FBEEDBF6EC00C7F93E0E92E3F
:102C9000F12C8CE9C82E84E0D82EB0E5AB2EB5E03F
:102CA000BB2E5DC08DB79EB780970FB6F8949EBFC0
:102CB0000FBE8DBFEDB7FEB73196ADB7BEB712965A
:102CC000FC92EE921197D382C282B582A4821783BE
:102CD0000683D8018C918087118611968C9111976B
:102CE0008287138612968C91129784871586139685
:102CF0008C9113978687178614968C911497808BE6
:102D0000118A15968C911597828B138A16968C9141
:102D10001697848B158A17968C911797868B178A2E
:102D200018968C911897808F118E19968C911997FF
:102D3000828F138E1A968C911A97848F158E1B96FC
:102D40008C91868F178E0E94AD6D045F1F4FEDB77B
:102D5000FEB7B0960FB6F894FEBF0FBEEDBF0C17CE
:102D60001D0708F49FCFE091C011F091C111309779
:102D700009F4F6C0778D668D558D448D338D228D87
:102D8000918D808DADB7BEB758970FB6F894BEBF82
:102D90000FBEADBFEDB7FEB7319603E010E012965F
:102DA0001C930E931197A3EEEA2EA4E0FA2EF38261
:102DB000E282CDE5D5E0D583C48317821682708781
:102DC0001186628713865487158646871786308B4F
:102DD000118A228B138A948B158A868B178A0E94FC
:102DE000AD6DE091C011F091C111C788A6887589B9
:102DF00064895389428931892089EDB7FEB73196BC
:102E0000ADB7BEB712961C930E931197F382E28270
:102E1000D583C48388E090E097838683C08611863B
:102E2000A28613867487158666871786508B118A4B
:102E3000428B138A348B158A268B178A0E94AD6DBC
:102E4000E091C011F091C111C784A6847585648595
:102E50005385428531852085EDB7FEB73196ADB7F4
:102E6000BEB712961C930E931197F382E282D5831C
:102E7000C48380E190E097838683C0861186A28612
:102E800013867487158666871786508B118A428B46
:102E9000138A348B158A268B178A0E94AD6DE091B8
:102EA000C011F091C111C2A0A1A0738162815781AC
:102EB000468135812481EDB7FEB73196ADB7BEB7F7
:102EC00012961C930E931197F382E282D583C483EA
:102ED00088E190E097838683C0861186A286138658
:102EE0007487158666871786508B118A428B138AE2
:102EF000348B158A268B178A0E94AD6DE091C01124
:102F0000F091C11163A154A14081318120A1EDB79D
:102F1000FEB738960FB6F894FEBF0FBEEDBF3196E0
:102F2000ADB7BEB712961C930E93119787E195E04B
:102F300093838283D583C4836683178250871186E7
:102F40004287138634871586268717860E94AD6DC3
:102F5000EDB7FEB770960FB6F894FEBF0FBEEDBF8B
:102F6000DF91CF911F910F91FF90EF90DF90CF9065
:102F7000BF90AF9008951092C8001092C9001092AF
:102F8000CA0053985A981092CD001092CC00089520
:102F90001092C80088E18093C90086E08093CA003F
:102FA000539A5A9A89E190E09093CD008093CC0097
:102FB00008950E94C81708959091C80095FFFCCF0E
:102FC0008093CE0008950E94496280E090E00895C9
:102FD0008EE4809389008FE18093880010928000B6
:102FE0008AE08093810080E190E063EE77E10E94C7
:102FF000CD60EFE6F0E08081826080830895FC017F
:103000006817790749F0DB0180E090E02D9121936A
:10301000019685329105D1F70895CF93DF930E94F1
:103020003C1880E090E060E070E00E944318EC0102
:103030000E94186200D000D000D0EDB7FEB73196E4
:103040000C96ADB7BEB712969C938E9311978DE6F2
:1030500095E093838283D583C4830E94AD6A8DB744
:103060009EB706960FB6F8949EBF0FBE8DBF81E047
:1030700090E0DF91CF91089581E099E160E070E008
:103080000E948D650895CF93DF930E943F19EC0154
:103090000E947519BC01EA85FB85CE0109959C014A
:1030A0002E5E3F4FC9010895EF92FF920F931F9339
:1030B000CF93DF93EB018C017A014115510599F013
:1030C000FC0180899189009711F00E94706AF801D3
:1030D00086859785F70191838083F801808991899E
:1030E000F70193838283F801D787C687118A108AF4
:1030F000DF91CF911F910F91FF90EF9008950F9363
:103100001F93CF93DF93EC01088919890E941862FD
:1031100007960817190751F40E94186207960E9433
:10312000706A81E090E09F878E871AC088899989AC
:10313000009739F00E94706A888999890E94EC6929
:1031400009C08E859F8597FD05C08130910511F0DE
:103150000E947C2B8FEF9FEF9F878E87198A188A9A
:10316000DF91CF911F910F910895EF92FF920F93EE
:103170001F93CF93DF93E82EE7017E01F92EE7013D
:103180008B01C7010E947F18F801808191819F8780
:103190008E8782819381998B888BDF91CF911F914C
:1031A0000F91FF90EF9008958C01EB010E947F1822
:1031B000C8010E94340FCE010E94AF040F931F93E9
:1031C000DF93CF93CDB7DEB70F811885F8018089E3
:1031D0009189009799F48685978564E975E00E9446
:1031E0009769F801918B808B009741F42FEF3FEFA7
:1031F000C901CF91DF911F910F9108959E01255F25
:103200003F4FF8018089918969857A85A9010E94DB
:10321000BE6A9C01EDCFCF92DF92EF92FF920F93A7
:103220001F93CF93DF937B018A01C82EE6016E01C5
:10323000D92EE601888999890097B1F48E859F85FA
:1032400064E975E00E949769998B888B009761F417
:103250002FEF3FEFC901DF91CF911F910F91FF90A9
:10326000EF90DF90CF90089528893989C70161E0F8
:1032700070E0A8010E94416A282F392FEBCFEF920E
:10328000FF92CF93DF9382E590E00E94400FE82EFB
:10329000E7017E01F92EE701209709F18BE099E122
:1032A000998388838EED98E19B838A838FE498E1EC
:1032B0009D838C8384ED98E19B878A8784E598E1E0
:1032C0009F838E8385EB98E19987888781E090E0E2
:1032D0009F878E870E9418620796998B888BCE01F4
:1032E000DF91CF91FF90EF900895EF92FF920F93AF
:1032F0001F93CF93DF93EC016889798982EB95E086
:103300000E94906A888999890E94706A8E010E5E77
:103310001F4F6889798984EC95E00E94906A8889BA
:1033200099890E94706A0E9418627C010E9418624A
:10333000A7014E5F5F4F9C01295F3F4FC80160E4CA
:1033400070E00E94491A2FEF8F3F920749F0CE019B
:10335000B8010E945A1C888999890E94706AD9CF45
:103360008DB79EB70A970FB6F8949EBF0FBE8DBF5C
:10337000EDB7FEB7319688899989ADB7BEB7129679
:103380009C938E9311978AEE96E09383828386E9CD
:1033900095E09583848382EA95E09783868381E034
:1033A00090E0918780870E94AD6A8DB79EB70A969C
:1033B0000FB6F8949EBF0FBE8DBF81E090E0DF9105
:1033C000CF911F910F91FF90EF900895FC018085A0
:1033D00091850E94FC2D0895EF92FF920F931F9309
:1033E000DF93CF930F92CDB7DEB77C0169838E0157
:1033F0000F5F1F4FF70180859185B80141E050E0D4
:103400000E94FC2D97FF09C00E94BD04FC01808131
:1034100091818430910571F302C0009759F30F90A8
:10342000CF91DF911F910F91FF90EF900895EF9250
:10343000FF920F931F93DF93CF930F92CDB7DEB719
:103440007C018E010F5F1F4FF70186819781B801C4
:1034500041E050E00E94DC2C009781F097FF09C00A
:103460000E94BD04FC01808191818430910561F34B
:1034700005C02981332727FD309502C02FEF3FEF8C
:10348000C9010F90CF91DF911F910F91FF90EF90A5
:1034900008950F931F93DF93CF93CDB7DEB72A978D
:1034A0000FB6F894DEBF0FBECDBF8C01DB0187E104
:1034B0009AE19A838983FA018081918198878F8329
:1034C0008CEE99E19C838B8386EE99E19E838D83BC
:1034D000F901808191819A878987CE010196B8018F
:1034E000AD010E949B272A960FB6F894DEBF0FBE4F
:1034F000CDBFCF91DF911F910F910895AF92BF92F1
:10350000CF92DF92EF92FF920F931F93CF93DF93AF
:103510008C01FC01E080F180E701F70161917F01FE
:10352000662349F0772767FD70958DE597E00E9447
:10353000366E009789F78881882309F442C08E335C
:1035400091F4CE01019629812E3339F42296F801A7
:10355000D183C083CAE5D7E036C0F8019183808368
:10356000C8E5D7E030C0833221F4F801D183C083AD
:1035700028C0823231F421969BEAA92E95E0B92E1B
:1035800004C08DE5A82E87E0B82E6E010894C11CFA
:10359000D11C7601F60161916F01662341F0772716
:1035A00067FD7095C5010E94366E009791F3F70193
:1035B0008081882311F011927F01F801F182E0826D
:1035C00002C0C0E0D0E0CE01DF91CF911F910F91FA
:1035D000FF90EF90DF90CF90BF90AF9008956F92E3
:1035E0007F928F929F92AF92BF92CF92DF92EF9293
:1035F000FF920F931F93DF93CF93CDB7DEB76B97F7
:103600000FB6F894DEBF0FBECDBF7C018B01CE019B
:10361000089660E070E044E150E00E945C0DD70144
:103620001C961C921A8309835E010894A11CB11C8C
:10363000C5010E947E1A3C01009709F423C19987B5
:1036400088878E01065F1F4FB1E0CB2ED12C8A2CCC
:10365000AB2C882D9A2D0E947E1AF80181939193AC
:103660008F01009739F00894C11CD11CF9E0CF16E6
:10367000D10479F7F601EE0FFF1F5E010894A11C3B
:10368000B11CEA0DFB1D1086178223E0C216D1047F
:103690000CF469C07EEF872E7FEF972E8C0C9D1C5B
:1036A0008401000F111F0A0D1B1DD80117968D9163
:1036B0009C91189768E577E00E944B6E009779F42B
:1036C00081E0F7018487F6013197EE0FFF1FEA0DC5
:1036D000FB1D0781108546E2C42ED12C1FC0D801E6
:1036E00017968D919C9118976AE577E00E944B6E32
:1036F000009779F481E0F7018487F6013197EE0FA6
:10370000FF1FEA0DFB1D0781108526E1C22ED12C7B
:1037100005C04601CC24DD2400E010E0F7E08F1660
:10372000910434F100D000D000D0EDB7FEB731964F
:10373000ADB7BEB71296FC92EE9211978EE896E066
:103740009383828375826482D7011296ED91FC91F6
:1037500013970995EDB7FEB736960FB6F894FEBFEE
:103760000FBEEDBF05C04601CC24DD2400E010E013
:10377000D7011C968C911C97882309F451C000D066
:1037800000D000D0EDB7FEB73196ADB7BEB71296F8
:103790001C930E931197D382C28286EB91E095839E
:1037A00084830E94192CBC01EDB7FEB736960FB684
:1037B000F894FEBF0FBEEDBF97FF34C0D70112963D
:1037C000CD90DC901397088519850E94BD04EDB754
:1037D000FEB73A970FB6F894FEBF0FBEEDBF319615
:1037E000ADB7BEB71296FC92EE9211972AEE36E074
:1037F00033832283158304832DEA35E037832683C0
:10380000DC018D919C9191878087F6010995EDB738
:10381000FEB73A960FB6F894FEBF0FBEEDBF2CC0B0
:103820006FEF7FEFD7011C968C911C97882349F08E
:103830001696ED91FC911797C701AE014D5F5F4F52
:103840000995C701B401AE01485F5F4F0E94F41CA7
:103850008C01F7018485882341F00084F185E02DF7
:10386000C701BE016D5F7F4F099517FD05C0D701E8
:103870001D961C921D9706C081E0F70185872FEFEA
:103880003FEF02C020E030E0C9016B960FB6F8941C
:10389000DEBF0FBECDBFCF91DF911F910F91FF9083
:1038A000EF90DF90CF90BF90AF909F908F907F90E0
:1038B0006F900895CF92DF92EF92FF920F931F9334
:1038C000CF93DF938C01C62EE6017E01F72EE70130
:1038D000E62E02C021967E01CE0163E577E00E94CC
:1038E0005D6EC80FD91F8881882321F08A3011F0BE
:1038F000833231F4C801B7010E94EF1A9C0144C021
:103900008B3349F41882C801B7010E94EF1A9C0159
:10391000009701F339C0CE01019662E270E00E9487
:10392000366E009771F52DB73EB7285030400FB670
:10393000F8943EBF0FBE2DBFEDB7FEB73196ADB7C1
:10394000BEB712961C930E93119788E096E093836E
:1039500082838BEA95E09583848397838683D8015D
:103960001296ED91FC91139709952DB73EB7285FFC
:103970003F4F0FB6F8943EBF0FBE2DBF2FEF3FEF66
:1039800003C0EC012196A8CFC901DF91CF911F910F
:103990000F91FF90EF90DF90CF90089500D000D06E
:1039A00000D0EDB7FEB73196ADB7BEB712969C9377
:1039B0008E93119729E536E033832283DA012D9126
:1039C0003C9135832483DC011296ED91FC91139791
:1039D00009958DB79EB706960FB6F8949EBF0FBE99
:1039E0008DBF8FEF9FEF0895AF92BF92CF92DF927E
:1039F000EF92FF920F931F93CF93DF938C016B0194
:103A00005A01DA01ED90FC901197C1E1D8E046C06F
:103A1000B7010E944B6E009709F03FC08C8190E087
:103A2000C816D9067CF400D000D000D0EDB7FEB7A0
:103A30003196ADB7BEB712961C930E93119781EED7
:103A400095E013C08D8190E08C159D051CF500D08C
:103A500000D000D0EDB7FEB73196ADB7BEB7129625
:103A60001C930E9311978EE896E093838283F582E0
:103A7000E482D8011296ED91FC9113970995EDB768
:103A8000FEB736960FB6F894FEBF0FBEEDBF2FEF10
:103A90003FEF10C0EA81FB8108C028968881998198
:103AA000009709F0B5CFEEECFCE1C801B601A50125
:103AB00009959C01C901DF91CF911F910F91FF9052
:103AC000EF90DF90CF90BF90AF900895CF93DF93AA
:103AD000EC0169E478E00E944B6E009761F0CE0142
:103AE0006BE478E00E944B6E21E030E0009729F013
:103AF00020E030E002C021E030E0C901DF91CF9149
:103B000008950F931F93CF93DF93EC018B016EE425
:103B100078E00E944B6E26E830E10097C1F400D0B7
:103B200000D000D0EDB7FEB73196ADB7BEB7129654
:103B30003C932E93119780E598E0938382831583BD
:103B400004830E94AC658DB79EB706961CC0ADB7C6
:103B5000BEB718970FB6F894BEBF0FBEADBFEDB796
:103B6000FEB7319612963C932E93119784E598E018
:103B700093838283D583C483178306830E94AC65B5
:103B80008DB79EB708960FB6F8949EBF0FBE8DBF37
:103B90001092071186E890E10E947F6EDF91CF912D
:103BA0001F910F9108956F927F928F929F92AF9283
:103BB000BF92CF92DF92EF92FF920F931F93DF930A
:103BC000CF93CDB7DEB7A3970FB6F894DEBF0FBE85
:103BD000CDBF8C015B016A013901C901837090700E
:103BE000009709F4EFC08CE0E82EF12CEC0EFD1EDE
:103BF0004115510579F0BA016F5F7F4FC5010E94F1
:103C0000811D4C01B7010E94FF2C7C01C4010E9460
:103C1000340F05C0CB01B7010E94FF2C7C01E114D9
:103C2000F104A1F1D8011296ED90FC9013970E9437
:103C3000BD04EDB7FEB73A970FB6F894FEBF0FBEBE
:103C4000EDBF3196ADB7BEB712961C930E93119788
:103C50002AEE36E0338322832AE538E03583248355
:103C60002DE538E037832683DC018D919C91918787
:103C70008087F7010995EDB7FEB73A960FB6F8942D
:103C8000FEBF0FBEEDBF2FEF3FEF14C161FE6CC052
:103C9000DE011196E4E7F8E08BE001900D9281508F
:103CA000E1F78C859D859C012070307FF0E4203009
:103CB0003F0711F424E611C040E22030340711F42C
:103CC00023E60BC0A0E620303A0711F422E605C037
:103CD000B0E820303B0711F02FE3298390FF02C0AA
:103CE00022E72A8387FF02C027E72B8386FF02C0D3
:103CF00028E72C8385FF02C022E72D8384FF02C0C2
:103D000027E72E8383FF02C028E72F8382FF02C0AC
:103D100022E7288781FF02C027E7298780FF02C0AA
:103D200088E78A8700D000D000D0EDB7FEB7319683
:103D3000ADB7BEB712961C930E93119782E698E02A
:103D400093838283CE01019695838483D801129652
:103D5000ED91FC9113970995EDB7FEB736960FB626
:103D6000F894FEBF0FBEEDBF60FE2CC02DB73EB76E
:103D7000285030400FB6F8943EBF0FBE2DBFEDB7B0
:103D8000FEB73196ADB7BEB712961C930E9311973E
:103D900086E698E0938382838E859F85A889B9897A
:103DA00084839583A683B783D8011296ED91FC9105
:103DB00013970995EDB7FEB738960FB6F894FEBF86
:103DC0000FBEEDBFC114D10409F452C076010894AE
:103DD000E11CF11C00D000D000D0EDB7FEB7319649
:103DE000ADB7BEB712961C930E93119782E698E07A
:103DF00093838283F582E482D8011296ED91FC913F
:103E000013970995F60180812DB73EB72A5F3F4F82
:103E10000FB6F8943EBF0FBE2DBF83FF14C0C7017D
:103E20000E94661D009779F400D000D0ADB7BEB7F0
:103E300012961C930E9311978AE698E014969C9321
:103E40008E9313970AC000D000D0EDB7FEB712834F
:103E500001838DE698E094838383D8011296ED91D7
:103E6000FC91139709950F900F900F900F9020C021
:103E700000D000D000D0EDB7FEB73196ADB7BEB7D9
:103E800012961C930E9311978FE698E0938382838A
:103E9000B582A482D8011296ED91FC9113970995F1
:103EA000EDB7FEB736960FB6F894FEBF0FBEEDBF66
:103EB00020E030E0C901A3960FB6F894DEBF0FBE34
:103EC000CDBFCF91DF911F910F91FF90EF90DF90C9
:103ED000CF90BF90AF909F908F907F906F900895FC
:103EE000AF92BF92CF92DF92EF92FF920F931F9308
:103EF000CF93DF938C01EB015A016901CB010E9442
:103F0000FD2E7C01009791F52DB73EB72A50304029
:103F10000FB6F8943EBF0FBE2DBFEDB7FEB731967A
:103F2000ADB7BEB712961C930E93119785E796E036
:103F3000938382838AE598E0958384838FE798E072
:103F400097838683D187C087D8011296ED91FC9123
:103F5000139709952DB73EB7265F3F4F0FB6F894DC
:103F60003EBF0FBE2DBFCFEFDFEF15C0C7010E94D0
:103F7000E02FAC01009751F0C801BE019601F50198
:103F8000099597FFF3CFCFEFDFEF02C0C0E0D0E09D
:103F9000C7010E94A12ECE01DF91CF911F910F91F9
:103FA000FF90EF90DF90CF90BF90AF900895CF92A9
:103FB000DF92EF92FF920F931F93CF93DF93EC0169
:103FC0007B016901DA018C9183FF40C08A010F5F98
:103FD0001F4FC8010E94661D0097C1F5C701B801B7
:103FE0000E94811D8C0100D000D000D0EDB7FEB73B
:103FF0003196ADB7BEB71296DC93CE93119789E890
:1040000098E09383828315830483EA81FB81099579
:10401000EDB7FEB736960FB6F894FEBF0FBEEDBFF4
:10402000CE01B80143ED5DE196010E94701F7C0155
:10403000009771F4CE01B80147ED5FE196010E944F
:10404000701F7C01C8010E94340F02C0EE24FF24BF
:10405000C701DF91CF911F910F91FF90EF90DF90FB
:10406000CF9008952F923F924F925F926F927F92DE
:104070008F929F92AF92BF92CF92DF92EF92FF9278
:104080000F931F93DF93CF93CDB7DEB72A970FB669
:10409000F894DEBF0FBECDBF3C017E836D835C8391
:1040A0004B839A012E5F3F4F3A83298300E010E053
:1040B00021E0222E312C9AEE892E96E0992E77C19E
:1040C000A981BA818D919D91BA83A983009709F442
:1040D00069C1EB81FC81E080F18000D000D0ADB7F8
:1040E000BEB712969C938E931197E1E0F0E0149680
:1040F000FC93EE9313970E94192C2C010F900F90B4
:104100000F900F9097FF1DC0D30112960D911C9137
:1041100013970E94BD04EDB7FEB73A970FB6F89417
:10412000FEBF0FBEEDBF3196ADB7BEB712967C9203
:104130006E92119793828282F582E4822EE838E0B3
:1041400023C082E890E00E943A0F5C01009771F56D
:10415000D30112960D911C9113970E94BD04EDB7E7
:10416000FEB73A970FB6F894FEBF0FBEEDBF31967B
:10417000ADB7BEB712967C926E92119793828282EF
:10418000F582E48223E938E037832683DC018D91D0
:104190009C9191878087F8010995EDB7FEB73A9613
:1041A0000FB6F894FEBF0FBEEDBFFCC06801788665
:1041B0006F8202C038872F83C201B50142E850E008
:1041C0000E94DC2C8C0197FF54C06F8078840E9481
:1041D000BD04DC018D919C91119784309105E1F42F
:1041E00000D000D000D0EDB7FEB73196ADB7BEB766
:1041F00012967C926E92119723E337E033832283E9
:10420000F582E482D3011296ED91FC911397099502
:10421000EDB7FEB7369625C02DB73EB72A503040D1
:104220000FB6F8943EBF0FBE2DBFEDB7FEB7319667
:10423000ADB7BEB712967C926E921197938282822E
:10424000F582E4822AE938E03783268391878087E4
:10425000D3011296ED91FC9113970995EDB7FEB736
:104260003A960FB6F894FEBF0FBEEDBF0FEF1FEFEB
:104270007AC0009709F474C0662477242F813885AA
:10428000D901ED91FC91C901B501A80129873A87AF
:10429000099529853A8597FF5CC038872F830E944E
:1042A000BD04FC018081918184309105F1F400D03E
:1042B00000D000D0EDB7FEB731962F813885ADB76D
:1042C000BEB712963C932E93119783E397E09383A6
:1042D0008283F582E482D9011296ED91FC911397C5
:1042E0000995EDB7FEB736962BC0AF81B88512960B
:1042F0000D911C9113970E94BD04EDB7FEB73A973C
:104300000FB6F894FEBF0FBEEDBF31962F813885F2
:10431000ADB7BEB712963C932E93119793828282CB
:10432000F582E482AFE9B8E0B783A683DC018D9122
:104330009C9191878087F8010995EDB7FEB73A9671
:104340000FB6F894FEBF0FBEEDBFCC24CA94DC2C90
:1043500033CF680E791E601671060CF02BCF90CF0C
:1043600086016F80788400D000D0ADB7BEB71296BA
:104370007C926E921197EDE6F8E01496FC93EE9322
:104380001397D3011296ED91FC91139709950F9015
:104390000F900F900F90C2010E947C2BC5010E94CC
:1043A000340F02C00FEF1FEF0894211C311CED8168
:1043B000FE812E163F0624F40115110509F480CE66
:1043C000C8012A960FB6F894DEBF0FBECDBFCF91BD
:1043D000DF911F910F91FF90EF90DF90CF90BF90F2
:1043E000AF909F908F907F906F905F904F903F9095
:1043F0002F9008956F927F929F92AF92BF92CF922B
:10440000DF92EF92FF920F931F93DF93CF93CDB77D
:10441000DEB768970FB6F894DEBF0FBECDBF8C0134
:104420005B016A019924EE24FF2441E2642E46E0F8
:10443000742E3CC08C36910539F08337910571F0AC
:104440008235910581F405C023E030E0E22AF32AA9
:104450002DC084E090E0E82AF92A28C0A1E0B0E06D
:10446000EA2AFB2A23C000D000D000D0EDB7FEB767
:104470003196ADB7BEB712961C930E931197738207
:104480006282D6018D919C9195838483D801129686
:10449000ED91FC9113970995EDB7FEB736960FB6DF
:1044A000F894FEBF0FBEEDBF99249394C501B601E9
:1044B00045EA58E00E94246CFFEF8F3F9F0709F008
:1044C000B9CF992009F0C7C0E091900EF091910EFC
:1044D000CF0101968A159B057CF400D000D000D056
:1044E000EDB7FEB73196ADB7BEB712961C930E93DB
:1044F00011978EE896E011C0EA15FB05FCF000D09C
:1045000000D000D0EDB7FEB73196ADB7BEB712966A
:104510001C930E93119781EE95E093838283D601CD
:104520008D919C9195838483D8011296ED91FC9195
:1045300013970995EDB7FEB7369642C0EE0FFF1FF1
:10454000EC0DFD1DA080B180A114B10409F483C05D
:10455000C501BE016F5F7F4F0E94FF2C97FF36C0E1
:10456000D8011296AD90BC901397F601E080F180CF
:104570000E94BD042DB73EB72A5030400FB6F894C4
:104580003EBF0FBE2DBFEDB7FEB73196ADB7BEB77C
:1045900012961C930E9311972AEE36E033832283F2
:1045A000F582E4822DE538E037832683DC018D91A6
:1045B0009C9191878087F5010995EDB7FEB73A96F2
:1045C0000FB6F894FEBF0FBEEDBF45C089819A813A
:1045D0008070907FF0E480309F0741F0C801B50102
:1045E00040E050E097010E94D31D33C000D000D0BE
:1045F00000D0EDB7FEB73196ADB7BEB712961C939B
:104600000E93119789E898E093838283B582A48200
:10461000D8011296ED91FC9113970995EDB7FEB76D
:1046200036960FB6F894FEBF0FBEEDBFC801B501B8
:1046300043ED5DE197010E94701F9C01009769F4B2
:10464000E2FE0BC0C801B50147ED5FE197010E9492
:10465000701F9C0102C02FEF3FEFC90168960FB693
:10466000F894DEBF0FBECDBFCF91DF911F910F91A8
:10467000FF90EF90DF90CF90BF90AF909F907F9092
:104680006F9008954F925F926F927F928F929F9258
:10469000BF92CF92DF92EF92FF920F931F93DF931F
:1046A000CF93CDB7DEB7A2970FB6F894DEBF0FBE9B
:1046B000CDBF8C016B017A01DE011196E5ECF8E0CB
:1046C00080E201900D928150E1F7BB24E1EE8E2E45
:1046D000E5E09E2E71E2672E76E0772E6CE3462EA3
:1046E00066E0562E5EC08A33910549F18634910505
:1046F000A9F580910E1290910F1260E070E04AE0EF
:1047000050E00E941C6B6A83662309F44AC06C3037
:1047100009F447C0603109F444C0603209F441C073
:1047200000D000D000D0EDB7FEB73196ADB7BEB720
:1047300012961C930E931197538242821DC000D093
:1047400000D000D0EDB7FEB73196ADB7BEB7129628
:104750001C930E931197938282820EC000D000D0DA
:1047600000D0EDB7FEB73196ADB7BEB712961C9329
:104770000E93119773826282D7018D919C919583DC
:104780008483D8011296ED91FC9113970995EDB7AA
:10479000FEB736960FB6F894FEBF0FBEEDBFBB2432
:1047A000B394C601B70149EA58E00E94246CFFEFB8
:1047B0008F3F9F0709F097CFBB2009F0BDC08091C4
:1047C000900E9091910E96012150304082179307E0
:1047D000D9F5FC01EE0FFF1FEE0DFF1D80819181C9
:1047E000009709F067C0D8011296CD90DC9013971E
:1047F000F701E080F1800E94BD042DB73EB72A503A
:1048000030400FB6F8943EBF0FBE2DBFEDB7FEB7D8
:104810003196ADB7BEB712961C930E9311972AEE40
:1048200036E033832283F582E4822DEA38E0378351
:104830002683DC018D919C9191878087F6010995F3
:10484000EDB7FEB73A9630C08C159D057CF000D0D0
:1048500000D000D0EDB7FEB73196ADB7BEB7129617
:104860001C930E9311978EE896E00EC000D000D0F6
:1048700000D0EDB7FEB73196ADB7BEB712961C9318
:104880000E93119781EE95E093838283D7018D91EA
:104890009C9195838483D8011296ED91FC91139796
:1048A0000995EDB7FEB736960FB6F894FEBF0FBE6A
:1048B000EDBF42C0BE016F5F7F4F0E9408509C0158
:1048C00097FF3CC0D8011296CD90DC901397F7016A
:1048D000E080F18089A33AA30E94BD044DB75EB782
:1048E0004A5050400FB6F8945EBF0FBE4DBFEDB7B3
:1048F000FEB73196ADB7BEB712961C930E931197C3
:104900004AEE56E053834283F582E4824DEB58E051
:1049100057834683DC018D919C9191878087F601B6
:104920000995EDB7FEB73A960FB6F894FEBF0FBEE5
:10493000EDBF29A13AA102C02FEF3FEFC901A29616
:104940000FB6F894DEBF0FBECDBFCF91DF911F91A0
:104950000F91FF90EF90DF90CF90BF909F908F903E
:104960007F906F905F904F9008958F929F92BF922B
:10497000CF92DF92EF92FF920F931F93CF93DF932B
:10498000EC018B01DB011296CD90DC9013978E80A9
:104990009F80BC848E859F8584FF03C045EE58E0D0
:1049A00002C04AEE58E0FC01E370F070EE0FFF1F0A
:1049B000EB59F64FE080F18082FF03C02EE430E037
:1049C00002C020E230E083FF03C080E590E002C037
:1049D00080E290E0EDB7FEB772970FB6F894FEBF95
:1049E0000FBEEDBF3196ADB7BEB712961C930E93B6
:1049F00011976FEE78E07383628395828482B6822A
:104A0000178251874087F386E28635872487978708
:104A10008687AD85B0E0AA0FBB1FA455B64F8D9118
:104A20009C91918B808BF6010995EDB7FEB73E9670
:104A30000FB6F894FEBF0FBEEDBF1283018388E06E
:104A400099E094838383D8011296ED91FC9113979A
:104A5000099593E6E92EF12CEC0EFD1ED701ED91A0
:104A6000FC911197828193810F900F900F900F907E
:104A7000009709F450C000D000D000D0EDB7FEB7C9
:104A80003196ADB7BEB712961C930E93119722E1E3
:104A900039E03383228395838483D8011296ED9184
:104AA000FC9113970995EDB7FEB736960FB6F894BB
:104AB000FEBF0FBEEDBFC4E0D0E085E1C82E89E0A7
:104AC000D82E1EC000D000D000D0EDB7FEB7319672
:104AD000ADB7BEB712961C930E931197D382C282C4
:104AE00095838483D8011296ED91FC9113970995D3
:104AF000EDB7FEB736960FB6F894FEBF0FBEEDBF0A
:104B0000D701ED91FC911197EC0FFD1F80819181F0
:104B100022960097B9F600D000D0EDB7FEB7128309
:104B200001838AE199E094838383D8011296ED9101
:104B3000FC91139709950F900F900F900F90DF91B4
:104B4000CF911F910F91FF90EF90DF90CF90BF908A
:104B50009F908F900895CF93DF93EC0100D000D009
:104B6000EDB7FEB7928381838DE199E094838383CF
:104B7000EA81FB8109950F900F900F900F9085EBC4
:104B800094E2BE010E94226280E090E0DF91CF912A
:104B90000895AF92BF92CF92DF92EF92FF920F9360
:104BA0001F93CF93DF93EC015B018A010E5F1F4FD0
:104BB00091E0E92EF12C8AEBC82E89E0D82E22C094
:104BC000D8018D919D918D0100D000D000D0EDB71E
:104BD000FEB73196ADB7BEB71296DC93CE93119760
:104BE000D382C28295838483EA81FB8109950894EC
:104BF000E11CF11CEDB7FEB736960FB6F894FEBF78
:104C00000FBEEDBFEA14FB04DCF200D000D0ADB75C
:104C1000BEB71296DC93CE9311978EEB99E0149663
:104C20009C938E931397EA81FB8109950F900F90C7
:104C30000F900F9080E090E0DF91CF911F910F9146
:104C4000FF90EF90DF90CF90BF90AF900895CF93FB
:104C5000DF93FA01DB012D913D914D915C9113970A
:104C60002434BDE43B07B0E04B07B0E05B0719F02C
:104C700020EC39E002C02DEC39E0CDB7DEB7289743
:104C80000FB6F894DEBF0FBECDBFADB7BEB711965D
:104C9000FA83E98342ED59E013965C934E931297A1
:104CA00015969C938E93149717963C932E93169774
:104CB0000280F381E02D09954DB75EB7485F5F4FE5
:104CC0000FB6F8945EBF0FBE4DBF80E090E0DF915D
:104CD000CF9108956F927F928F929F92AF92BF92E1
:104CE000CF92DF92EF92FF920F931F93DF93CF93B8
:104CF0000F92CDB7DEB73C018B016A0162307105BE
:104D000064F020E0EE24FF2451EEA52E55E0B52EF0
:104D100041E2842E46E0942E43C087E296E2B3013E
:104D20000E94F3318C01F6C08A33910541F084373B
:104D30009105A1F4E0900E12F0900F1231C000D056
:104D400000D000D0EDB7FEB73196ADB7BEB7129622
:104D50007C926E921197B382A2820EC000D000D0D6
:104D600000D0EDB7FEB73196ADB7BEB712967C92C4
:104D70006E92119793828282D6018D919C91958338
:104D80008483D3011296ED91FC9113970995EDB7A9
:104D9000FEB736960FB6F894FEBF0FBEEDBF21E00A
:104DA000C801B60140EE59E029830E94246C298194
:104DB000FFEF8F3F9F0709F0B7CF222309F0A8C06C
:104DC0008091900E9091910E80179107BCF5FC0197
:104DD000EE0FFF1FEC0DFD1D608171810196909318
:104DE000910E8093900E80179107F4F4FC01EE0F62
:104DF000FF1FEC0DFD1D5081418101969093910E96
:104E00008093900E8017910794F400D000D000D0CA
:104E1000EDB7FEB73196ADB7BEB712967C926E92E3
:104E200011978EE896E018C080E090E004C0CB01B6
:104E30009A01632F722FE114F10421F500D000D004
:104E400000D0EDB7FEB73196ADB7BEB712967C92E3
:104E50006E92119781EE95E093838283D6018D91B6
:104E60009C9195838483D3011296ED91FC911397C5
:104E70000995EDB7FEB736960FB6F894FEBF0FBE94
:104E8000EDBF46C06115710509F442C0A70100E0FD
:104E900010E020E030E0EE24FF240E948E308C01F0
:104EA00097FF38C0D3011296AD90BC901397F601CE
:104EB000E080F1800E94BD042DB73EB72A503040FB
:104EC0000FB6F8943EBF0FBE2DBFEDB7FEB73196BB
:104ED000ADB7BEB712967C926E9211972AEE36E06D
:104EE00033832283F582E48224EE39E037832683FC
:104EF000DC018D919C9191878087F5010995EDB733
:104F0000FEB73A960FB6F894FEBF0FBEEDBF02C0D3
:104F10000FEF1FEFC8010F90CF91DF911F910F91FD
:104F2000FF90EF90DF90CF90BF90AF909F908F90C9
:104F30007F906F900895AF92BF92CF92DF92EF92E1
:104F4000FF920F931F93CF93DF938C017B015A0144
:104F5000423051052CF4DB011C92C0E0D0E088C047
:104F6000DC011496ED91FC9115976AEE79E043E02F
:104F700050E00995C0E0D0E0CC24DD2403C091E0EE
:104F8000C92ED12CD801ED91FC91C8010995BC0125
:104F9000BFEF8F3F9B0721F4209709F062C066C0E6
:104FA000C114D10459F08B35910531F7E2E0CE16EA
:104FB000D10411F382E0C82ED12CE4CF88309105C2
:104FC00019F08F379105C1F42097E1F22197D801AC
:104FD0001296ED91FC911397C80168E070E0099575
:104FE000D8011496ED91FC911597C8016AEE79E00D
:104FF00043E050E00995C6CF8B31910509F4BFCF4E
:105000008A30910519F08D309105A1F4F701EC0F6C
:10501000FD1F8AE080832196F701EC0FFD1F1082AF
:10502000D8011296ED91FC911397C8016AE070E0E7
:1050300009951EC080978F35910508F0A3CFF70121
:10504000EC0FFD1F60832196D8011296ED91FC9123
:105050001397C8010995CE0101968A159B050CF49A
:1050600091CFF701EC0FFD1F108202C0CFEFDFEFF1
:10507000CE01DF91CF911F910F91FF90EF90DF90C4
:10508000CF90BF90AF9008950E94332A0895CF9398
:10509000DF93EC010EC00E94BD04FC018081918170
:1050A0008430910531F08DEE99E068E570E00E9462
:1050B0002713CE010E946F64009769F7DF91CF91AB
:1050C0000895EF92FF920F931F93CF93DF938C017C
:1050D000DC011696ED90FC901797E114F10419F19C
:1050E000D7011896ED91FC911997309741F0028005
:1050F000F381E02D309719F00995EC0102C0C0E072
:10510000D0E0C7010E94572BF80111821082D8010C
:1051100012961D921D921D921C92159717961C9225
:105120001E92169702C0C0E0D0E0CE01DF91CF9171
:105130001F910F91FF90EF900895089560E070E047
:1051400041E050E00E940D0F08950F931F93CF93FD
:10515000DF938C01C0E0D0E0CE01880F991F9E0143
:1051600043E0220F331F4A95E1F7820F931F029607
:10517000800F911F0E9461282196C430D10561F7EC
:10518000C8010E945564DF91CF911F910F9108953E
:10519000CF92DF92EF92FF920F931F93CF93DF9303
:1051A0008C01EB01009709F463C0FC0186819781B3
:1051B000009709F45DC0209709F45AC00E94FF606F
:1051C0006C010E944728CE010E9461287C0197FD56
:1051D00047C0F801E680F780C7010E94462BF8011E
:1051E000808191819983888382819381A481B58113
:1051F0008A839B83AC83BD83FF82EE82F701A08507
:10520000B1851097D9F02D913C9111972115310559
:10521000A9F086819781877090708230910541F462
:105220001E96ED91FC911F97C801BE01099503C020
:10523000CE01F90109957C0197FD06C0C6010E94C7
:10524000046520E030E01DC08E819F810E94572BB5
:10525000198218821A821B821C821D821F821E8262
:10526000CC27DD27CE19DF09C6010E94046502C0E4
:10527000C9E0D0E00E94BD04FC01D183C0832FEFC0
:105280003FEFC901DF91CF911F910F91FF90EF90F8
:10529000DF90CF9008954F925F926F927F928F929E
:1052A0009F92AF92BF92CF92DF92EF92FF920F93B5
:1052B0001F93CF93DF933C014B0159016A010E9478
:1052C000FF607C010E944728C801F801EE0FFF1F14
:1052D00023E0880F991F2A95E1F7E80FF91F389608
:1052E000EE0DFF1D402EE2012E01512EE20130C0D5
:1052F000208131813A96CE0101962115310539F58B
:10530000FE01EE0FFF1F9E01A3E0220F331FAA959F
:10531000E1F7E20FF31FEE0DFF1D93828282A4825C
:10532000B582C682D78271866086FC01EE0FFF1FB0
:1053300063E0880F991F6A95E1F7E80FF91FEE0DFA
:10534000FF1D11821082C7010E94046509C0EC0193
:10535000C430D1056CF2C7010E940465CFEFDFEFC6
:10536000CE01DF91CF911F910F91FF90EF90DF90D1
:10537000CF90BF90AF909F908F907F906F905F90F5
:105380004F900895CF92DF92EF92FF920F931F9369
:10539000CF93DF937C010E94FF608C01CE2CE6014D
:1053A0006E01DF2CE601C430D10540F59701F7010D
:1053B000EE0FFF1F63E0220F331F6A95E1F7E20F44
:1053C000F31FE80FF91F808591850097B9F0C80198
:1053D0000E944728C601880F991F43E0CC0FDD1FAC
:1053E0004A95E1F78C0F9D1F0296800F911F0E9436
:1053F0006128EC01C8010E94046502C0C7EFDFEF1D
:10540000CE01DF91CF911F910F91FF90EF90DF9030
:10541000CF9008950F931F93CF93DF938C010E9439
:10542000FF60EC0104301105C8F40E944728F80120
:10543000EE0FFF1FA3E0000F111FAA95E1F7E00F89
:10544000F11FEC0FFD1F1382128214821582168247
:10545000178211861086CE010E940465DF91CF91DC
:105460001F910F9108958AE091E160E070E041E0C2
:1054700050E00E940D0F8FEF9FEF90930D118093DE
:105480000C1110920F1110920E118DE998E20097F5
:1054900011F00E949D2808950F931F93CF93DF93DF
:1054A0000E940D638C0180910C1190910D110817D1
:1054B0001907C1F480910E1190910F1101969093EC
:1054C0000F1180930E111BC00E94BD04FC0180814E
:1054D00091818430910531F08AE29AE06AEE70E0C1
:1054E0000E942713CAE0D1E1CE010E946F640097A9
:1054F00059F71B830A8381E090E09D838C83DF91C1
:10550000CF911F910F91089580910E1190910F11DD
:105510008230910534F0019790930F1180930E1112
:1055200008958FEF9FEF90930D1180930C111092BF
:105530000F1110920E118AE091E10E940465089506
:10554000CF93DF93EC01009759F0888199810E94F5
:10555000A02A8A819B810E94A02ACE010E94340F3A
:10556000DF91CF910895282F392FC901FC012081A7
:105570000196222319F02F32C9F7FC01CF010895BB
:105580004F925F926F927F928F929F92AF92BF9253
:10559000CF92DF92EF92FF920F931F93CF93DF93FF
:1055A0003C014B015A016901FC0180819181019606
:1055B000C0910811D0910911EE24FF243EC000973C
:1055C00009F441C0DE011C96FC013D91208133238A
:1055D00029F42223B1F02F3259F413C0319622233B
:1055E00091F12F3281F132171CF0231774F72BC081
:1055F0008E0138812981432EE2012E01522EE201D3
:105600001EC00E94B32AFC012081222339F02E8182
:105610003F81277030702230310539F4C114D10434
:10562000A1F0F6019183808310C07E013A812B8125
:10563000432EE2012E01522EE20100E010E02097FD
:1056400009F0BDCF02C0C0E0D0E08114910419F090
:10565000F40111830083A114B10419F0F501F18262
:10566000E082F30191838083CE01DF91CF911F917E
:105670000F91FF90EF90DF90CF90BF90AF909F90F1
:105680008F907F906F905F904F900895CF93DF93AE
:10569000EC01009749F00E944C2A8C819D81019673
:1056A0009D838C830E94842ADF91CF910895CF93AC
:1056B000DF93EC010097E9F00E944C2A8C819D81D8
:1056C000009719F001979D838C838C819D8118161A
:1056D00019066CF08E8183FF0AC00E94842A8A8199
:1056E0009B810E94A02ACE010E94340F02C00E941A
:1056F000842ADF91CF910895CF93DF938430910571
:1057000048F40E94C22997FF0FC0CC27DD27C81B91
:10571000D90B02C0C9E0D0E00E94BD04FC01D183D6
:10572000C0832FEF3FEF02C020E030E0C901DF91DE
:10573000CF910895EF92FF920F931F93CF93DF9332
:10574000EC017B010E94CD2B8C01C7010E94CD2B67
:10575000BC0101151105B9F00097A9F0F801868187
:105760009781009741F40E94BD0429E030E0FC01DC
:105770003183208308C0CE15DF0539F0C8010E94AF
:10578000C828EC0102C0CFEFDFEFCE01DF91CF914F
:105790001F910F91FF90EF900895EF92FF92CF939A
:1057A000DF93E82EE7017E01F92EE701C430D10531
:1057B00098F40E94FF60009791F09701220F331F29
:1057C00043E0CC0FDD1F4A95E1F72C0F3D1F2E5F04
:1057D0003F4F280F391F0CC0C9E0D0E002C0CBE01A
:1057E000D0E00E94BD04FC01D183C08320E030E002
:1057F000C901DF91CF91FF90EF900895FC0160FF08
:1058000008C0A085B18514968D919C91159700973D
:1058100061F061FF07C00084F185E02D86819781EA
:10582000009719F020E030E002C023EF3FEFC901FC
:105830000895AF92BF92CF92DF92EF92FF920F93B3
:105840001F93DF93CF9300D0CDB7DEB7A988BA8876
:105850001A8219828F859889BE016F5F7F4F0E94DF
:105860000A5A7C01009709F45DC0DC0116968D91FF
:105870009C91179787709070009721F08230910566
:1058800009F047C0F70180859185009709F441C070
:10589000C701B5010E94FE2B97FF05C00027112705
:1058A000081B190B3BC0C701B50120E030E040E008
:1058B00050E000E010E00E944B296C0197FD2CC0E5
:1058C0000E94CD2B0097A9F1D7011896ED91FC917C
:1058D00019970190F081E02D309771F116962D9176
:1058E0003C911797277030702230310539F4698167
:1058F0007A81A50126EB31E0099501C0099597FF52
:105900001BC000271127081B190BC6010E940A2A79
:1059100005C006E010E002C008E110E0C7010E94E7
:10592000572B02C002E010E00E94BD04FC0111836D
:105930000083CC24CA94DC2CC6010F900F90CF9129
:10594000DF911F910F91FF90EF90DF90CF90BF906C
:10595000AF900895EF92FF92CF93DF93DC011696FC
:10596000ED91FC9117972C9120FF20C0309709F101
:105970000084F185E02D3097E1F00480F581E02D81
:105980003097B9F00995EC0197FF0AC00E94BD0459
:10599000D095C195DF4FFC01D183C083CFEFDFEFFE
:1059A000CE01DF91CF91FF90EF900895C3EFDFEF2D
:1059B000EDCFC7EFDFEFEACF0F931F93CF93DF93C6
:1059C000EB018A018430910540F00E94BD0429E07A
:1059D00030E0FC01318320830AC00E94CD2B009768
:1059E00031F0BE01A8010E94AA2C9C0102C02FEF39
:1059F0003FEFC901DF91CF911F910F910895EF9271
:105A0000FF920F931F93DF93CF9300D0CDB7DEB7F4
:105A10007C018B011A821982009709F4A8C06115D4
:105A2000710509F4A4C0DC018C91882309F4A2C09B
:105A3000C70167E67AE00E944B6E009769F4C801DF
:105A400060E070E048E150E00E945C0D84E291E487
:105A5000F8019183808388C0C701BE016F5F7F4FCB
:105A60000E940A5A7C01009709F484C0DC01169652
:105A70008D919C9117978770907082309105A9F451
:105A80001896ED91FC911997309709F46AC006A019
:105A9000F7A1E02D309709F464C069817A81C701CC
:105AA000A801099597FF5DC054C0C80160E070E08F
:105AB00048E150E00E945C0DF701868182FD51C0F3
:105AC0000084F185E02D3097D1F184819581009794
:105AD00029F084E291E0D8018D939C93D701189628
