:100000000C944C000C946D000C9470000C947300D4
:100010000C9476000C9479000C947C000C947F0076
:100020000C9482000C9485000C9488000C948B0036
:100030000C948E000C9491000C9494000C949700F6
:100040000C949A000C949D000C94A0000C94A300B6
:100050000C94A6000C94A9000C94AC000C94AF0076
:100060000C94B2000C94B5000C94B8000C94BB0036
:100070000C94BE000C94C1000C94C4000C94C700F6
:100080000C94CA000C94CD000C94D0000C94D300B6
:100090000C94D6000C94D90011241FBEC5E7D9E1F9
:1000A000DEBFCDBF11E1A0E0B1E0EAE0F6E201E0A1
:1000B0000BBF02C007900D92A539B107D9F717E120
:1000C000A5E9B1E101C01D92A637B107E1F70E9491
:1000D00081130E9436010C94D0048F9380E06CC091
:1000E0008F9381E069C08F9382E066C08F9383E035
:1000F00063C08F9384E060C08F9385E05DC08F9371
:1001000086E05AC08F9387E057C08F9388E054C031
:100110008F9389E051C08F938AE04EC08F938BE01C
:100120004BC08F938CE048C08F938DE045C08F9378
:100130008EE042C08F938FE03FC08F9380E13CC040
:100140008F9381E139C08F9382E136C08F9383E131
:1001500033C08F9384E130C08F9385E12DC08F939E
:1001600086E12AC08F9387E127C08F9388E124C05E
:100170008F9389E121C08F938AE11EC08F938BE119
:100180001BC08F938CE118C08F938DE115C08F93A6
:100190008EE112C08F938FE10FC08F9380E20CC06D
:1001A0008F9381E209C08F9382E206C08F9383E22E
:1001B00003C08F9384E200C09F939FB7F894906828
:1001C0009F930F921F9211242F923F924F925F9212
:1001D0006F927F928F929F92AF92BF92CF92DF9257
:1001E000EF92FF920F931F932F933F934F935F9341
:1001F0006F937F93CF93DF93EF93FF93AF93BF936F
:10020000ADB7BEB79396AF93BF93CDB7DEB7219688
:10021000BE010E941E15C817D90711F00C944F1388
:10022000BF91AF91BF91AF91FF91EF91DF91CF91CE
:100230007F916F915F914F913F912F911F910F91FE
:10024000FF90EF90DF90CF90BF90AF909F908F90F6
:100250007F906F905F904F903F902F901F900F90E6
:100260008F918F778FBF9F918F911895DF93CF9349
:1002700000D000D0CDB7DEB710925B1610925A16A0
:1002800010925D1610925C161092871610928616C8
:1002900010928916109288161092571610925616C0
:1002A00010925916109258161092631610926216F8
:1002B000109265161092641610925F1610925E16D8
:1002C000109261161092601610928D1610928C1674
:1002D00010928F1610928E1610928B1610928A160C
:1002E000E6E6F6E18FEF9FEF11821082938382831F
:1002F000349626E1E638F207B9F705E911E11093E3
:100300006716009366161092691610926816C80157
:1003100060E070E045E650E00E94610E83E080936B
:10032000A21186E391E09093A01180939F1182E047
:1003300090E09093A4118093A31187E191E09093B2
:10034000FB118093FA111092FD111092FC118AEFAB
:1003500091E19093F9118093F811C8016AE576E173
:100360000E94870FC8010E946515CE010196BE014B
:100370006D5F7F4F0E946A146B817C8189819A81B5
:100380000E94411081EF90E6009711F00E94F16009
:1003900082EE9DE0009711F00E94E20D82EE93E85C
:1003A000009711F00E94E2838BEE9AE0009711F023
:1003B0000E94EB0A0E94E8290E94561585E991E106
:1003C0006091A3110E941C0285E991E10E945902EB
:1003D00085E991E10E944F02E0919911F0919A1103
:1003E00081E080830E94000202C00E9455150E9495
:1003F00049100097D1F70E9494020E944E10F5CF49
:100400000F931F9381E291E064E670E040E052E0D8
:100410002FE839E100E010E00E94400318161906A9
:100420002CF480E090E01F910F91089586E291E016
:100430006DE171E00E948A14CF92DF92EF92FF92F9
:100440000F931F93CF93DF937C0188E690E00E9487
:100450005F10C82EE6016E01D92EE6012097A9F0A3
:10046000F701D582C482C6010E9432088C0197FD33
:100470000FC000E010E0C801DF91CF911F910F91F4
:10048000FF90EF90DF90CF90089504EF1FEFF3CF30
:10049000C6010E945310F70115821482ECCFDC01D3
:1004A0001496ED91FC91159781E0818380E090E0B6
:1004B0000895CF93DF93EC018C819D810A960E9471
:1004C000402A00D000D087E691E0EDB7FEB79283D6
:1004D000818383E090E0948383830E941F2E0F909A
:1004E0000F900F900F900097A1F480E090E061E0F2
:1004F00070E00E948D2D80E090E062E070E00E944C
:100500008D2DCE010E9472089C01C901DF91CF910F
:100510000895181619061CF029EE3FEFF6CF0E9439
:100520006F2D29EE3FEFF1CF1F9309C01FB7F8944D
:100530008CE896E10E944E0F1FBF009741F4809116
:100540008C1690918D16009789F71F9108950E943F
:100550005310F5CF2F923F924F925F926F927F92FE
:100560008F929F92AF92BF92CF92DF92EF92FF92C3
:100570000F931F93CF93DF932C01D62E3A0149019D
:10058000580185E690E00E945F10192F282EE101A6
:100590001E01392EE101209709F463C0C1016D2DC0
:1005A0000E941C0297FD51C0C1010E94970897FD4F
:1005B00052C0C22C822D912FB4014D2D0E94E814FF
:1005C00097FD32C0CE01B3014DEA54E095010D2DE7
:1005D0000E946E0397FD28C0CE01B201A7010E94C0
:1005E000EE03CE010E944F0297FD1EC0AE80EF8049
:1005F0008C2F912F0E94A30497FD37C02A2D3E2DEA
:10060000C901DF91CF911F910F91FF90EF90DF9083
:10061000CF90BF90AF909F908F907F906F905F90A2
:100620004F903F902F900895EE24FF24E81AF90A86
:100630008C2D912F6D2D0E942D090E94DE04FC014E
:10064000F182E0822FEF3FEFDBCFEE24FF24E81AA8
:10065000F90AC22CEDCFEE24FF24E81AF90AC22CC5
:10066000E7CF8CE0E82EF12CE8CF0E94DE04FC01FD
:10067000E080F180CE016EE576E10E94A90FD8CF2F
:10068000EF92FF920F931F93CF93DF93FB01DA0159
:10069000E901780160E0AF019D018E010E94AA028C
:1006A000DF91CF911F910F91FF90EF900895EF92FE
:1006B000FF920F931F93CF93DF93FB01DA01E901C0
:1006C000780162E0AF019D018E010E94AA02DF91D4
:1006D000CF911F910F91FF90EF900895CF92DF92ED
:1006E000EF92FF920F931F93CF93DF93EC01162F9E
:1006F0006A0179010E94570928E030E061E070E06A
:1007000011C0FC01E770F070EE0FFF1FEE0FFF1F2E
:10071000EA59F94E408151814115510551F121505D
:100720003040C9F080918A1690918B160196909373
:100730008B1680938A1680918A1690918B161816C4
:100740001906FCF270938B1660938A16E1E0F0E0D4
:1007500081E090E0D9CF0E9476092FEF3FEFC901E9
:10076000DF91CF911F910F91FF90EF90DF90CF908D
:100770000895D183C083938382839F838E830E9455
:1007800076091C87D986C886FB86EA860370802F87
:1007900090E02E853F852C7F822B932B9F878E8721
:1007A000AE01425E5F4F83E090E060E070E00E9447
:1007B000F4041D86CE010E9465150E945709CE01E2
:1007C0006EE576E10E94870F84E08D870E947609AE
:1007D000CE59DF4F188320E030E0C1CF2F923F92F7
:1007E0004F925F926F927F928F929F92AF92BF9241
:1007F000CF92DF92EF92FF920F931F93CF93DF93ED
:100800006C015A0184E791E00E94740EEC0121967C
:10081000A114B10409F494C0750100E010E013C004
:100820000E94740E0196C80FD91FF6018689978918
:10083000C817D90708F07BC00F5F1F4FF1E00130E8
:100840001F0709F477C0F701819191917F0100970B
:1008500039F7E2E0EE2EF12CE00EF11EEE0CFF1C5B
:10086000B7016C0F7D1FC6010E94BF161C010097C7
:1008700009F463C0E80EF91EFC01F182E08284E70E
:1008800091E00E94740EEC01C70164E771E00E94E0
:100890006B0E0115110541F12196CE0DDF1D62E0B1
:1008A000662E712C620C731C7501AA24BB24F30103
:1008B000C193D1933F014701F701819191917F014C
:1008C0000E94740E2C01F40160817181CE010E949E
:1008D0006B0E0894411C511CC40DD51D0894A11C1D
:1008E000B11CA016B1061CF3F8013196EE0FFF1FE4
:1008F000E20DF31D11821082F601ED59FF4F318296
:10090000208220E030E0C901DF91CF911F910F914B
:10091000FF90EF90DF90CF90BF90AF909F908F901F
:100920007F906F905F904F903F902F9008952CEDA7
:100930003FEFE9CF29EF3FEFE6CF24EF3FEFE3CFE3
:1009400000E010E086CF1F931FB7F8940E94DD16D9
:100950001FBF80E090E01F910895A0915A16B091BA
:100960005B16FD01ED59FF4F60817181FB013296ED
:1009700081E090E005C0019621E08130920761F0AE
:100980002191319121153105B1F71A96ED91FC9124
:100990001B9709950E94D00481E090E00E94D0044A
:1009A00020915A1630915B16C82FD0E0C901BE01C4
:1009B00040E00E94B309CE010E944A150E948515AD
:1009C000882349F4E0915A16F0915B16309719F09C
:1009D0008585833021F02EEF31E1C90108959F0113
:1009E0002A5C3F4FC9010895CF92DF92EF92FF92A8
:1009F0000F931F93CF93DF936C01EB017A0100916A
:100A00005A1610915B160E945709F801868D978D32
:100A1000A0A1B1A1E114F10429F0F7018083918331
:100A2000A283B383209709F457C06FB7F894F2E01C
:100A3000CF16D104C9F123E0C216D104A9F031E0E8
:100A4000C316D104E9F0CFEFDFEF6FBF0E946F054F
:100A50000E947609CE01DF91CF911F910F91FF90F7
:100A6000EF90DF90CF90089588819981AA81BB8112
:100A7000F801868F978FA0A3B1A3C0E0D0E0E5CFA7
:100A8000F801868D978DA0A1B1A1288139814A8175
:100A90005B81822B932BA42BB52B868F978FA0A3E2
:100AA000B1A3C0E0D0E0D1CF288139814A815B81F8
:100AB0002095309540955095F801868D978DA0A191
:100AC000B1A182239323A423B523868F978FA0A35C
:100AD000B1A3C0E0D0E0B9CFC0E0D0E0B9CFCF92B1
:100AE000DF92EF92FF920F931F93DF93CF9300D08B
:100AF00000D0CDB7DEB7C0905A16D0905B160E94DA
:100B00005709F601E68CF78C00A111A1E094F0944E
:100B100000951095C6010E94420B6E217F21802313
:100B2000912369837A838B839C837E010894E11CE3
:100B3000F11C0CC0C7010E9429068C01FFEF8F3FFA
:100B40009F07C1F469817A818B819C816115710550
:100B50008105910579F70E9476090F900F900F900B
:100B60000F90CF91DF911F910F91FF90EF90DF9049
:100B7000CF900895C701B8010E94C60EC601B80102
:100B80000E94CF058C010097E9F2BC016E5F7F4F98
:100B9000C6010E944F06C8010E940906D3CFEF92FA
:100BA000FF921F93CF93DF93FC01A481B5811FB700
:100BB000F8941296ED91FC911397309739F1828158
:100BC00090E08617970739F41BC02A8130E026177A
:100BD000370769F0FE01C081D1812097B1F71FBFAF
:100BE000CE01DF91CF911F91FF90EF900895309744
:100BF00041F0BD016E5F7F4FCF010E94640FEFCFC8
:100C0000EF01CD0102960E944E0FE9CFC0E0D0E087
:100C1000E6CF1F93FC012681222331F0223089F098
:100C2000213059F01F9108951FB7F89460EA76E1DA
:100C30000E940B0F1FBF1F9108950E94F5081F917E
:100C400008951FB7F8946CE976E10E940B0F1FBF5F
:100C5000E9CFEF92FF920F931F93CF93DF938C0115
:100C6000C0E0D0E004C02196C032D10571F0C801C7
:100C7000BE010E94F30E0097B1F3CE01DF91CF9138
:100C80001F910F91FF90EF900895CFEFDFEFCE010E
:100C9000DF91CF911F910F91FF90EF900895CF9228
:100CA000DF92EF92FF920F931F93CF93DF93EC01AC
:100CB0008B01FB0160814E9670E00E94F30E00975D
:100CC00091F1EFB6F8948D85863009F480C0EFBEBF
:100CD0000C80DD81C02DF80190812FB7F894EA8156
:100CE000FB81309731F408C00190F081E02D3097FE
:100CF00019F082819817C1F72FBF309709F483C08C
:100D0000CF010296B80144E050E00E94870EEE2425
:100D1000FF24C701DF91CF911F910F91FF90EF90BA
:100D2000DF90CF9008950E945709F8016081CE01AD
:100D300070E00E94A10B7C01009709F445C0FC0102
:100D400082819381009709F43FC00E94D10B6C010E
:100D5000009709F492C0F70182819381F601938391
:100D60008283F70184819581A681B781F60184830E
:100D70009583A683B783C6010896B80144E050E086
:100D80000E94870EEFB6F894BE01665D7F4FC601E4
:100D90000E940B0FEFBEEE24FF240E947609CE01C5
:100DA00067E777E00E940816CFB6F8948D85863005
:100DB00009F468C0CFBE853009F0ABCFCE0164E046
:100DC00070E00E94250AA5CFEE24FF24E6CFF801AB
:100DD0006081CE01829670E00E94F30E009709F4C4
:100DE00076CFCE01C296B80144E050E00E94870E53
:100DF0001AA21BA21CA21DA2CE010E94DD16EFBEEC
:100E0000EE24FF2486CF0E9485158823E9F080EA2E
:100E100096E10E944E0FE82EF92EE114F10409F438
:100E200041C0C7010296B80144E050E00E94870E1D
:100E30000FB7F894BE016E5F7F4FC7010E940B0F82
:100E40000FBFEE24FF2465CFCFB6F89480EA96E179
:100E50000E944E0FE82EF92ECFBEE114F10409F7DF
:100E600087E090E00E945910E82EF92EE114F10479
:100E700019F181E0F7018683D4CF84EFE82E8FEF5C
:100E8000F82E8BCFCE01C296B80144E050E00E940C
:100E9000870E1AA21BA21CA21DA2CE010E94DD1663
:100EA0008D8588CF8CE996E10E944E0FE82EF92EB1
:100EB000E114F10409F0B5CF8DE791E060E671E04F
:100EC0000E948A14CF93DF93EB010E9416090097CA
:100ED00041F0BE010E944F069C01C901DF91CF91F4
:100EE00008952DEF3FEFC901DF91CF9108952F9223
:100EF0003F924F925F926F927F928F929F92AF92AA
:100F0000BF92CF92DF92EF92FF920F931F93DF93E6
:100F1000CF9300D000D000D0CDB7DEB78C010E94B7
:100F20005709D801D6960D90BC91A02DBC83AB83F8
:100F3000F80102A4F3A5E02DFE83ED83309709F4B8
:100F40006FC09801265D3F4F3A8329839EE2892E28
:100F5000912C800E911E81E0282E312C412C512C99
:100F600002C0BE82AD82AD81BE81AD90BC90CFB6D5
:100F7000F8947D806E80872D962D69817A810E94FC
:100F8000220F8D819E81B4010E940B0FCFBEF8010C
:100F9000C68CD78CE0A0F1A0ED81FE818481958183
:100FA000A681B7818C299D29AE29BF29A201910173
:100FB000008404C0220F331F441F551F0A94D2F728
:100FC000822B932BA42BB52BF801868F978FA0A390
:100FD000B1A36D817E81685F7F4FAD81BE81129626
:100FE000ED91FC91139718968C9190E040E050E0C1
:100FF0000995F801C68ED78EE0A2F1A20E946F0576
:10100000CFB6F894872D962DB4010E94220FCFBE43
:101010008D819E810E94FE0BA114B10409F0A1CF25
:10102000EB81FC81D801D796FC93EE93D6970E9472
:10103000760926960FB6F894DEBF0FBECDBFCF91CE
:10104000DF911F910F91FF90EF90DF90CF90BF90B5
:10105000AF909F908F907F906F905F904F903F9058
:101060002F900895EF92FF920F931F93CF93DF93EA
:101070007C0100915A1610915B160E945709D80105
:101080001496ED91FC911597309721F0808591850C
:10109000009761F4C0E0D0E00E947609CE01DF91B4
:1010A000CF911F910F91FF90EF900895C681D78146
:1010B000CE010E945910009791F0F701D783C683A3
:1010C00091878087D8011496ED91FC9115976085E2
:1010D0007185AE010E94870EC0E0D0E0DDCFC4EF85
:1010E000DFEFDACFEF92FF92CF93DF93EC018C81A9
:1010F0009D810E94D30F80E090E061E070E0AE013E
:101100000E94573081E090E066E070E0AE010E94FE
:10111000573082E090E066E070E0AE010E94573008
:1011200080E090E0DF91CF91FF90EF9008958F9253
:101130009F92AF92BF92CF92DF92EF92FF920F9366
:101140001F93CF93DF935C01FC01848195810A9604
:101150000E94402AF501C480D580E0915A16F09192
:101160005B16E480F5808701C0E0D0E0F801828959
:101170009389009721F14E012C2F392DC901880F39
:10118000991F220F331F220F331F220F331F820F8D
:10119000931F0C962C2F392DB901660F771F220F44
:1011A000331F220F331F220F331F620F731F645F21
:1011B0007F4F6C0D7D1D8E0D9F1D0E946B2A219609
:1011C000065F1F4FC630D10589F6C5010E9472081F
:1011D000DF91CF911F910F91FF90EF90DF90CF9013
:1011E000BF90AF909F908F9008951F93CF93DF9300
:1011F000EC010E948515882321F40E944910009774
:1012000061F01FB7F894CE016CE876E10E940B0FF5
:101210001FBFDF91CF911F910895CE010E945310FF
:101220000E944E10DF91CF911F91089597FF04C047
:1012300020E030E0C9010895FC01E770F070EE0F86
:10124000FF1FEE0FFF1FEA59F94E22813381281745
:10125000390771F720813181EDCFCF93DF93EC0116
:10126000009789F0EE81FF81309791F4888D998DF8
:10127000009719F0CE010E94F815CE010E946A0C69
:10128000CE010E94F50880E090E0DF91CF910895B3
:10129000E770F070EE0FFF1FEE0FFF1FEA59F94ED7
:1012A000118210828FEF9FEF93838283DFCFCF93E2
:1012B000DF93C0915A16D0915B16209761F00E947F
:1012C0008515882341F4888999898F37910544F4DD
:1012D0000196998B888B80E090E0DF91CF91089503
:1012E00082EC91E069E670E00E948A141F93CF932C
:1012F000DF93C0915A16D0915B16209771F10E942E
:101300008515882351F51FB7F89488899989009726
:10131000E9F4198A188A80918616909187160097A9
:1013200011F00E94CA158E8584FF16C08A899B8998
:10133000009791F480915A1690915B168C179D0737
:1013400059F084E190E09B8B8A8B06C00197998BC2
:10135000888B18161906ECF61FBF80E090E0DF912D
:10136000CF911F9108950F931F93DF93CF930F9207
:10137000CDB7DEB78C01DC011E968C911E9785FFE0
:1013800006C00F90CF91DF911F910F910895C80172
:1013900049830E94F0094981442351F4D8011496ED
:1013A000ED91FC911597309719F08181813091F082
:1013B000C8010E946A0CC8010E941E0CF8018685B3
:1013C00097858062978786870F90CF91DF911F91D5
:1013D0000F910895CF01885B9F4F0E94180EE8CFB0
:1013E000CF93DF93EC010E94FB09CE010E94120A09
:1013F000DF91CF9108951F93CF93DF93EC011FB737
:10140000F8948C899D89009741F00E94920C8C89F8
:101410009D890E94EB0C1D8A1C8A1FBFDF91CF9112
:101420001F910895FC012FB7F8948585853059F4F4
:10143000A48DB58D8D919C911197019611969C93D9
:101440008E93158E148E2FBF08951F93FC011FB726
:10145000F8948585853019F01FBF1F910895A48DDC
:10146000B58D8D919C91119701968D939C93158EBE
:10147000148E77AB66ABCF010E94DD161FBF1F91A4
:1014800008956F927F929F92AF92BF92CF92DF9218
:10149000EF92FF920F931F93CF93DF936C017B0129
:1014A000B42ECB01880F991F860F971F880F991FA5
:1014B000880F991F860F971F0E945910982EA92EEA
:1014C000E114F10499F0982F692EE3013E017A2C82
:1014D000E30100E010E0BC86CE012D96B6010E942B
:1014E0000B0F0F5F1F4F0E151F05A8F3892D9A2DA7
:1014F000DF91CF911F910F91FF90EF90DF90CF90F0
:10150000BF90AF909F907F906F9008956F927F9261
:101510009F92AF92BF92CF92DF92EF92FF920F9382
:101520001F93CF93DF936C017B01B42ECB01880F07
:10153000991F880F991F880F991F861B970B0E9470
:101540005910982EA92EE114F10499F0982F692EC4
:10155000E3013E017A2CE30100E010E0BE82CE01FF
:101560002796B6010E940B0F0F5F1F4F0E151F0528
:10157000A8F3892D9A2DDF91CF911F910F91FF90A4
:10158000EF90DF90CF90BF90AF909F907F906F9043
:101590000895EF92FF920F931F93CF93DF9380EB09
:1015A00090E00E945910EC01909301128093001278
:1015B0008C0100551F4FCE012B9660E976E10E9409
:1015C0000B0FC017D107B9F7DF91CF911F910F9182
:1015D000FF90EF900895109291161092901610922D
:1015E00093161092921610929516109294161092CD
:1015F00097161092961610929916109298161092AD
:101600009B1610929A161092A1161092A016109284
:10161000A3161092A21610929D1610929C1610926C
:101620009F1610929E1684E996E160E170E040E01A
:101630000E94410A909303128093021288E996E176
:1016400068E070E042E00E94410A909305128093A6
:1016500004120E94C90A80EA96E160E170E040E06D
:101660000E94860A90930712809306128CE996E1F5
:1016700068E070E042E00E94860A9093091280932D
:1016800008120895DF92EF92FF920F931F93DF935A
:10169000CF9300D000D0CDB7DEB7DC011496ED912A
:1016A000FC91159719821A821B821C82DFB6F8946E
:1016B000028113810115110521F17E010894E11CBD
:1016C000F11CF8016281C70170E00E94940ED801FC
:1016D0000D911C9111970115110599F729813A81F6
:1016E0004B815C81DFBEB901CA010F900F900F9052
:1016F0000F90CF91DF911F910F91FF90EF90DF90AE
:10170000089520E030E040E050E0ECCFCF93DF934D
:10171000EC0180915A1690915B16209761F00E941F
:10172000420B688379838A839B8320E030E0C90180
:10173000DF91CF9108952FEF3FEFC901DF91CF9156
:101740000895EF92FF920F931F93CF93DF93EC01D5
:101750008B010097E1F00E9457090EA0DFA1C02D78
:10176000209731F40AC00990D881C02D209729F024
:101770008A8590E080179107B1F70E947609CE0123
:10178000DF91CF911F910F91FF90EF900895C0E0EE
:10179000D0E0CE01DF91CF911F910F91FF90EF909C
:1017A00008951F930E948515882359F084E996E1D6
:1017B0000E944E0FE82FF92F3097C9F0CF011F91EB
:1017C00008951FB7F89484E996E10E944E0FE82F20
:1017D000F92F1FBF309791F78DE090E00E945910CC
:1017E000E82FF92F309751F381E08487E7CF88E91C
:1017F00096E10E944E0FE82FF92FE0CF1F93FC01D6
:101800002485222331F0223089F0213059F01F91B4
:1018100008951FB7F89464E976E10E940B0F1FBF8B
:101820001F9108950E94F5081F9108951FB7F8941D
:1018300068E976E10E940B0F1FBFE9CF0F931F935A
:10184000CF93DF938C01EC01A69603C0C9010E94DF
:10185000230DCE010E944E0F9C010097B9F7E801BD
:10186000AA9603C0C9010E94FE0BCE010E944E0F32
:101870009C010097B9F7E801AE9603C0C9010E9428
:10188000FE0BCE010E944E0F9C010097B9F78FEF1F
:101890009FEFAFEFBFEFF801868F978FA0A3B1A3A3
:1018A00012A213A214A215A2DF91CF911F910F9142
:1018B0000895CF93DF93EC01229603C0C9010E94E3
:1018C0000906CE010E944E0F9C010097B9F7DF91E7
:1018D000CF9108950F931F93CF93DF938C01FC0159
:1018E000C481D581209741F08981823050F08150A8
:1018F0008983F80115821482DF91CF911F910F9196
:101900000895CE010E94590CCE010A960E94472AE2
:10191000CE010E940A10CE010E94D20DCE010E947B
:10192000F508E7CF1F93CF93DF93EC011FB7F8942F
:10193000009741F42FEF3FEF1FBFC901DF91CF9117
:101940001F9108958E8180FFF5CFA091AA16B091C6
:10195000AB16109769F0CA17DB0729F438C0CE1709
:10196000DF0761F0DF01ED91FC9111973097B9F736
:1019700084E092E061E870E00E948A14CD01A081C9
:10198000B181109761F014962D913C911597448187
:101990005581240F351F15963C932E93149700976D
:1019A00089F06AEA76E10E94640F198218828E81BA
:1019B0008E7F8E8320E030E01FBFC901DF91CF9181
:1019C0001F9108958AEA96E10E944E0FEECFFE0124
:1019D00080E090E0D4CF1F93CF93DF93EC011FB74B
:1019E000F8948E8180FD1FC081FD23C082FF06C058
:1019F00080E090E0DF91CF911F910895CE0164EADD
:101A000076E10E940B0F8091A8169091A91601967D
:101A10009093A9168093A8161FBF80E090E0DF91F5
:101A2000CF911F910895CE010E94920C8E8181FF6B
:101A3000DDCF1FBFCE010E94F50880E090E0DF916E
:101A4000CF911F91089560E976E10E940B0F0895F0
:101A50008F929F92AF92BF92CF92DF92EF92FF92BE
:101A60000F931F93CF93DF936C017B018A01A090AA
:101A70005A16B0905B1680E2C816D10408F075C003
:101A8000C501B6010E94A10BEC0101151105A1F0E1
:101A9000009709F44DC08A819B81F801918380836E
:101AA0008C819D81AE81BF8182839383A483B58322
:101AB0008885998597838683E114F10441F1F701C4
:101AC00080819181009731F12097E1F1F7018081C8
:101AD00091819B838A8382819381A481B5818C8348
:101AE0009D83AE83BF83868197819987888720E015
:101AF00030E0C901DF91CF911F910F91FF90EF90DE
:101B0000DF90CF90BF90AF909F908F90089520E08E
:101B100030E0EFCF2097D9F3B5016A5D7F4FCE015A
:101B20000E94220FCE010E94230D20E030E0E1CF81
:101B3000F801118210821282138214821582178298
:101B40001682BACF80E996E10E944E0F882EE401FA
:101B50004E01992EE401209791F0CA86B5016A5D85
:101B60007F4FCE010E940B0FB1CF0E94DE0426E111
:101B700030E0FC01318320832FEF3FEFBACF0E948A
:101B8000C90A80E996E10E944E0FE82FEF014E014D
:101B9000992EE401209709F784E492E068E670E06A
:101BA0000E948A14CF93DF93EC0188859985009772
:101BB00011F00E94F5081F821E8219861886DF9197
:101BC000CF9108950F931F93CF93DF9304EA16E10B
:101BD0001092A5161092A4161092A7161092A6168F
:101BE0001092AB161092AA161092AD161092AC1667
:101BF000CAE0D2E1CE01B8010E940B0FCE0140969F
:101C0000B8010E940B0FCE018096B8010E940B0F05
:101C1000CE01C096B8010E940B0F84E090E0909333
:101C2000A9168093A816DF91CF911F910F91089567
:101C3000CF92DF92EF92FF920F931F93CF93DF9398
:101C40007C010097C1F10E940F10E70100E010E055
:101C5000CC24DD2406C00F5F1F4F259606301105EA
:101C6000E9F08A819B8197FDF6CF8C8181FFF3CFCC
:101C7000C801880F991F880F991F800F911F029626
:101C80008E0D9F1D61E00E945E0E97FFE4CF6C01F8
:101C90000F5F1F4F25960630110519F7C7010E94E7
:101CA0002910C601DF91CF911F910F91FF90EF9006
:101CB000DF90CF900895CC24DD24F3CF80E090E036
:101CC00008954115510531F0E82FF92F61934150E6
:101CD0005040E1F70895A62FB72FE82FF92F2D9147
:101CE00021932223E1F70895FC012081222361F052
:101CF00031965E2F4F2F21912223D9F7252F342F94
:101D0000281B390BC901089520E030E0FBCF4115B5
:101D1000510549F0A82FB92FE62FF72F21912D93C8
:101D200041505040D9F70895EF92FF920F931F93BF
:101D3000FC016032710500F581E0E82EF12C012DE7
:101D4000112D04C0EE0CFF1C001F111F6A95D2F765
:101D500020813181428153812E293F29402B512BF3
:101D6000208331834283538320E030E0C9011F91F7
:101D70000F91FF90EF9008950E94DE0426E130E07D
:101D8000FC01318320832FEF3FEFF0CFFC01603265
:101D90007105F8F421E030E040E050E004C0220F8B
:101DA000331F441F551F6A95D2F7209530954095F3
:101DB0005095608171818281938162237323842392
:101DC0009523608371838283938320E030E0C9018F
:101DD00008950E94DE0426E130E0FC013183208377
:101DE0002FEF3FEFF4CF6032710588F4FC01808162
:101DF0009181A281B38104C0B695A79597958795E7
:101E00006A95D2F79C0121703070C90108952FEFB7
:101E10003FEFC9010895FB01DC0111961C921E924F
:101E2000208131812115310541F0A281B3811196C4
:101E30009C938E939383828308959183808393836D
:101E400082830895FB01A081B1811097C9F00097AA
:101E5000B9F0A817B907A9F0ED91FC911197E8170F
:101E6000F90739F40AC0208131812817390721F098
:101E7000F9013097C1F70895DF01CD010E94640F89
:101E800008958D919C911197918380838281938194
:101E9000A817B907A9F7138212820895DC01ED9102
:101EA000FC911197309749F08081918111969C9314
:101EB0008E93009721F011821082CF01089513961E
:101EC0001C921E921297F7CFCF93DF93DC01EB01A8
:101ED000ED91FC91119788819981009771F030976D
:101EE00061F08A819B818E179F0759F080819181D3
:101EF00011969C938E9311821082CF01DF91CF9126
:101F00000895BB83AA8311961C921E92F4CFCF939F
:101F1000DF93FC01DB01138212828D919C9111975A
:101F200091838083CD91DC911197209741F0FB83C1
:101F3000EA831196FC93EE93DF91CF910895119669
:101F4000FC93EE931396FC93EE931297DF91CF914F
:101F50000895CF93DF93FC0182819381A081B181A9
:101F6000009781F0EC01B983A883109781F0139654
:101F70009C938E9312971182108213821282DF91AA
:101F8000CF910895EB01B983A883109781F7DB0106
:101F900013969C938E931297118210821382128251
:101FA000DF91CF910895CF92DF92EF92FF920F933E
:101FB0001F93CF93DF93EC01885B9F4F60E070E04D
:101FC00041E050E00E942C108AE4E82EF12CEC0E47
:101FD000FD1E8701C0E0D0E0CC24CA94DC2CC701F0
:101FE0008C0F9D1F60E070E045E050E00E94610EA4
:101FF000F801D182C08225960B5F1F4FCE31D105EB
:1020000071F7DF91CF911F910F91FF90EF90DF90CB
:10201000CF900895885B9F4F0E94B85F0895CF933B
:10202000DF93EC0108C00E94DE04FC0180819181F5
:102030008430910541F4CE010E94D55F009799F755
:10204000DF91CF91089587E892E061E570E00E940A
:102050008A140E9478600895009749F057FD07C0E0
:10206000FC015183408320E030E0C90108950E94C3
:10207000DE0426E130E0FC01318320832FEF3FEFC7
:10208000F4CF9C01AB018EEA96E1B9010E94A61043
:1020900008958EEA96E10E94FA1008958EEA96E17C
:1020A0000E945B110895BC018EEA96E10E94FA112C
:1020B0000895BC018EEA96E10E948B120895BC013E
:1020C0008EEA96E10E9412130895CF93DF93FC01EC
:1020D000DB011F96A07F460F571F407F9A012A1BE6
:1020E0003B0B86819781820F931F97838683B187ED
:1020F000A08784E090E011969C938E93C085D18553
:1021000060E070E87B836A83BD016C5F7F4F28507D
:10211000304015963C932E931497EB019B838A8352
:102120004450504053874287EA0199838883C2858F
:10213000D38514968D919C91159790689B838A8383
:10214000CF010E947711DF91CF910895EF92FF9216
:102150000F931F93CF93DF93EC018B017A011F82C2
:102160001E820C9660E070E040E650E00E94610E36
:10217000FE0121E030E0C901880F991F880F991FE7
:10218000880F991F0C968C0F9D1F918B808BC90116
:10219000880F991F880F991F880F991F04968C0F1D
:1021A0009D1F938F828F2F5F3F4F38962C303105C4
:1021B00011F7CE010E94E810CE01B801A7010E94DC
:1021C0006510DF91CF911F910F91FF90EF900895CF
:1021D000CF93DF93EC0160E070E041E050E00E94BB
:1021E0002C108FEF9FEF9B838A831D821C82DF91CF
:1021F000CF9108950F931F93CF93DF93EC010E942B
:102200001E5E8C018A819B818017910769F48C8105
:102210009D8101969D838C8320E030E0C901DF9190
:10222000CF911F910F910895CE010E943B600097BE
:1022300049F41B830A8381E090E09D838C8320E036
:1022400030E0ECCF2FEF3FEFE9CF0F931F93CF9309
:10225000DF93EC010E941E5E8C018A819B818017B6
:10226000910749F418C00E94DE04FC01808191812D
:1022700084309105D1F4CE010E94D55F009799F783
:102280001B830A8381E090E09D838C83DF91CF9153
:102290001F910F9108958C819D8101969D838C8360
:1022A000DF91CF911F910F9108958AEC92E06BEA34
:1022B00070E00E948A14FC0184819581823091052E
:1022C00024F001979583848308958FEF9FEF938384
:1022D000828315821482CF010E947860009709F4EE
:1022E00008958AEC92E06CED70E00E948A140F93DE
:1022F0001F93CF93DF93EC018B01DB018D919C91B8
:102300000E94DD11AC01440F551F440F551F440FAF
:10231000551F445F5F4F4C0F5D1FFC013296EE0F5F
:10232000FF1FEE0FFF1FEE0FFF1FEC0FFD1FA08121
:10233000B1811097D9F08D919C9111970097D9F1A7
:10234000F801208131818217930748F034C08081E1
:1023500091810097D1F082179307B8F4DF011496AA
:10236000ED91FC911597309791F7AD01DA01159633
:102370001C930E931497F801578346831582148299
:10238000DF91CF911F910F910895AD01DA0115965C
:102390001C930E931497D80117965C934E9316973F
:1023A0001596FC93EE93149717830683DF91CF91D4
:1023B0001F910F910895FD01E9CF97FD14C09295EB
:1023C00082958F7089279F7089278230910578F0D8
:1023D00020E030E02F5F3F4F969587958230910542
:1023E000C8F7C90108952BE030E0C901089520E045
:1023F00030E0F7CFEF92FF920F931F93CF93DF93CD
:102400007C018B016115710509F47EC00E942511C4
:10241000F8013497828193819F7793838283A0818F
:10242000B181AE0FBF1F12962D913C91139737FDCE
:1024300035C08D919C9111978A0F9B1F16962D91F7
:102440003C91179714964D915C911597E9015D8326
:102450004C8314962D913C9115972115310539F037
:1024600016964D915C911797E9015F834E834D91CC
:102470005C9120813181420F531F51834083DC01E5
:1024800012962D913C91139720703078242B352B88
:1024900013963C932E93129782819381EF01C81B70
:1024A000D90BCE012A813B8137FD27C02E813F8188
:1024B0004C815D81E9015D834C83EC012C813D8180
:1024C0002115310529F04E815F81E9015F834E833B
:1024D00040815181FC0120813181420F531F518382
:1024E000408312962D913C91139720703078242BC5
:1024F000352B13963C932E931297C701BF010E9470
:102500007711C7010E945B11DF91CF911F910F914D
:10251000FF90EF900895EF92FF920F931F93CF9348
:10252000DF938C016115710551F4C0E0D0E0CE015C
:10253000DF91CF911F910F91FF90EF90089593E15C
:10254000E92EF12CE60EF71E20EF3FEFE222F322F8
:10255000C8010E942511F7FC46C0C7010E94DD1189
:10256000FC013296EE0FFF1FEE0FFF1FEE0FFF1F55
:10257000E00FF11FC081D181209731F431C00C8070
:10258000DD81C02D209761F1888199818E159F058D
:10259000B0F3EE81FF818C819D8195838483EC81F2
:1025A000FD81309721F08E819F81978386832881DA
:1025B0003981C9018E199F0988309105B8F48A8143
:1025C0009B8190689B838A832496C8010E945B113B
:1025D000CE01DF91CF911F910F91FF90EF90089561
:1025E000C0E0D0E0F2CFEBE0F0E0BBCFFE01E20FC5
:1025F000F31FBE016E0D7F1DDB0111969C938E9320
:102600001396FC92EE921297F982E88242815381EE
:1026100040705078482B592B53834283C8010E9445
:102620007711CDCFEF92FF920F931F93CF93DF934C
:102630008B010E948B12EC01009729F060E070E0A2
:10264000A8010E94610ECE01DF91CF911F910F91E1
:10265000FF90EF900895DC013F912F919EB79D93DD
:102660008DB78D931496DD93CD9316961D930D9390
:10267000FD92ED92DD92CD92BD92AD929D928D92A2
:102680007D926D925D924D923D922D9211241D92FC
:1026900011960FB60D9212963D932D93CB01DC014E
:1026A000ED01A3969D919EBF8D918DBF99918991CA
:1026B0008F939F939D918D918F939F93FD91ED911A
:1026C000DD91CD917D916D915D914D913D912D91DA
:1026D0001D910D91FD90ED90DD90CD90BD90AD9050
:1026E0009D908D907D906D905D904D903D902D9042
:1026F0001D900D908D918FBF9D918D91BF91AF9148
:10270000089588E10FB6F8948093600010926000FD
:102710000FBE80E090E020E80FB6F89420936100AF
:10272000809361000FBE0E945B190E9428140E94D2
:102730001A54089587EE9FEF0895FB01309721F01A
:102740008091C800808311828091CE0090E008952E
:10275000662331F48091C9008F778093C900089572
:102760008091C90080688093C90008958091C80055
:10277000881F8827881F08956093CE000895909140
:10278000C80081E095FF80E008959091C80081E045
:1027900096FF80E008951F931FB7F894662341F4D5
:1027A0008091C9008F798093C9001FBF1F91089540
:1027B0008091C90080628093C90087E393E00E9402
:1027C00048531FBF1F9108958091C80085FF04C022
:1027D00087E393E00E94485380E090E00895E9EC9D
:1027E000F0E08081809300008F71808388E190E029
:1027F00060E070E00E94C85B89E190E060E070E01A
:102800000E94C85B089588E190E062E174E10E9453
:10281000C85B89E190E064EE73E10E94C85B80E0F0
:1028200090E008958091C80087FD03C080E090E0AB
:10283000089587E393E00E94A35380E090E0089519
:102840000E943D1908950E944A1980E090E0089581
:10285000E9ECF0E08081809300008F71808381E05B
:1028600080933A030E944A190895CF93DF93C7E3F8
:10287000D3E087E093E0BE010E94F95284E193E047
:10288000BE010E94F952DF91CF910895EF92FF921D
:102890001F93CF93DF93EC011091C900812F8F71AB
:1028A0008093C900CA30D10589F08C2F0E945E192F
:1028B0008091C9008F71107E182B1093C900CE0132
:1028C000DF91CF911F91FF90EF9008958DE00E94CE
:1028D0005E19EBCF0F931F93CF93DF93EC018B0126
:1028E00080E090E00E94AD54809100019091010140
:1028F0009983888380E091E2209100013091010169
:10290000821B930BF80191838083DF91CF911F91FC
:102910000F910895DF93CF9300D0CDB7DEB78C0130
:1029200082E090E069837A830E94AD548DB79EB7B0
:102930000A970FB6F8949EBF0FBE8DBFEDB7FEB7D6
:10294000319683E090E0ADB7BEB712969C938E931C
:10295000119789E593E09383828383E893E09583DD
:1029600084831783068369817A81718760870E94D7
:10297000076DEDB7FEB73A960FB6F894FEBF0FBEDF
:10298000EDBF0E94241780911A1790911B17009792
:1029900099F08FB7F89480E090E00E94AD548AEFF0
:1029A00090E00E94971580E090E00E94BE548AEF6C
:1029B00090E00E949715EFCFE0915A16F0915B16C8
:1029C00086819781009729F381E090E00E94D004EE
:1029D0000F931F93CF93DF93EC018B01888D998D1B
:1029E000009711F12E893F892617370741F0CE0154
:1029F000642F0E94F815888D998D0097A9F0980191
:102A000021503040280F391F3B8F2A8F1F8B0E8B90
:102A100081E090E00E94AD5420E030E0C901DF91F8
:102A2000CF911F910F910895C8010E945910998F5D
:102A3000888F009721F72FEF3FEFF0CFFF920F9392
:102A40001F93CF93DF93F82E8B0182E090E00E94DA
:102A5000AD54C0911A17D0911B1710931B170093F8
:102A60001A178F2D90E0B8010E94E35BF0901A17BF
:102A700000911B17D0931B17C0931A1782E090E0A8
:102A80000E94BE548F2D902FDF91CF911F910F91F7
:102A9000FF9008958FB7F8940E94945D80915A1624
:102AA00090915B16CD960E944F13089510921B17BC
:102AB00010921A170E948F150E946A190E943514ED
:102AC00080E090E00E94AD540895CF93DF93EC0135
:102AD000C89660E070E04AE250E00E94610E8A8D84
:102AE0009B8D9DAF8EAF88859985FE01E05AFF4F83
:102AF0009083FE01EF59FF4F80838FB7C35ADF4F9A
:102B000080688883DF91CF91089581E020911A1722
:102B100030911B172115310509F480E008951092BA
:102B20001B1710921A178FB780688FBF0895DF9315
:102B3000CF9300D000D0CDB7DEB71A821982298199
:102B40003A8128173907F8F41C821B822B813C81BB
:102B500043E02036340764F42B813C812F5F3F4FE4
:102B60003C832B832B813C8143E020363407A4F344
:102B700029813A812F5F3F4F3A83298329813A8106
:102B80002817390708F30F900F900F900F90CF91EF
:102B9000DF910895CF93DF93C0915A16D0915B16C1
:102BA0000E94AF5C8823A1F060911A1770911B17E7
:102BB0006115710581F0CE01CD960E948119809139
:102BC0005A1690915B16CD9690931B1780931A1707
:102BD000DF91CF91089560915A1670915B16635CF6
:102BE0007F4FCE01CD960E942B13DF91CF91089598
:102BF000CF93DF93EC01888D998D009721F00E948F
:102C0000F508198E188E1F8A1E8ADF91CF910895BC
:102C10001F93CF93DF93FC0180AD91AD009721F01E
:102C2000DF91CF911F9108951FB7F894A0915A1684
:102C3000B0915B16AE17BF07F1F071AF60AF9F01A7
:102C40002F593F4FD9018C9182AFEF01C05ADF4F0E
:102C5000888183AFDF01A35ABF4F4C9144AF8DE60B
:102C600096E1F901808398834F774C931FBFDF91E2
:102C7000CF911F910895E0911A17F0911B1730978B
:102C800041F1D9967C936E93D89784A1DA968C9370
:102C9000DA9783A1DB968C93DB9780A1DC968C93EB
:102CA000DC978DE696E184A3E0911A17F0911B174B
:102CB00093A3E0911A17F0911B1780A18F7780A33F
:102CC00060911A1770911B17CD01CD960E94811942
:102CD000CDCFCD01FB010995C9CFEF92FF920F93A4
:102CE0001F93DF93CF93CDB7DEB7A5970FB6F894B8
:102CF000DEBF0FBECDBF00915A1610915B16D801F2
:102D0000D696ED90FC90D79782E090E00E94AD546B
:102D1000F80180AD91AD009761F1B801635C7F4F20
:102D2000CE0101960E948119D801DA968C91DA972A
:102D30008DA3DB968C91DB978CA3DC968C91DC9732
:102D400089A3D896ED91FC91D997D9961C921E92A1
:102D5000D8978FBFC80109958FB7F894F801F7AAE3
:102D6000E6AA82E090E00E94BE54CE0101960E9445
:102D70004F138DE893E063E670E00E948A14FC0133
:102D8000808D918D009721F420E030E0C9010895F5
:102D90008689978968177907B8F7228D338D261BA6
:102DA000370B228F338F861B970B978B868B35AF14
:102DB00026AF2F5F3F4FC90108950F931F93CF9305
:102DC000DF93EC0100915A1610915B168D858450AB
:102DD0008330A0F5CE010E94135D84E190E09B8BCF
:102DE0008A8BCE010E940F5C8823A1F060911A1794
:102DF00070911B176115710591F0C801CD960E9465
:102E0000811980915A1690915B16CD9690931B175D
:102E100080931A17DF91CF911F910F9108956091C0
:102E20005A1670915B16635C7F4FC801CD960E9465
:102E30002B13DF91CF911F910F91089587ED93E0B0
:102E400069E570E00E948A14AF92BF92CF92DF9240
:102E5000EF92FF920F931F93CF93DF93E0915A1657
:102E6000F0915B160DB72EB7922F80E010E0082B83
:102E7000192B86819781009709F088C1C0910001C4
:102E8000D09101012197A12C42E0B42E8DB79EB7BD
:102E900008970FB6F8949EBF0FBE8DBFEDB7FEB773
:102EA000319633E0C32ED12CADB7BEB71296DC926B
:102EB000CE92119782E294E09383828323E4E22E00
:102EC00025E0F22EF582E482178306830E94076DC7
:102ED000EDB7FEB73196ADB7BEB71296DC92CE9283
:102EE000119788E394E093838283F582E482D78309
:102EF000C6830E94076DEDB7FEB73196ADB7BEB77A
:102F00001296DC92CE9211978EE494E093838283A2
:102F1000F582E482B782A6820E94076DEDB7FEB704
:102F200038960FB6F894FEBF0FBEEDBFC017D1079D
:102F300038F0CE018A199B098017910708F42BC13C
:102F400000D000D000D0EDB7FEB7319683E090E01E
:102F5000ADB7BEB712969C938E93119784E694E01A
:102F600093838283F582E4820E94076DEDB7FEB7FA
:102F700036960FB6F894FEBF0FBEEDBFE0911A175C
:102F8000F0911B17309709F4F6C0778D668D558D3B
:102F9000448D338D228D918D808DADB7BEB75897FE
:102FA0000FB6F894BEBF0FBEADBFEDB7FEB73196FA
:102FB00003E010E012961C930E931197A3EEEA2EF5
:102FC000A4E0FA2EF382E282CDE5D5E0D583C48376
:102FD000178216827087118662871386548715863A
:102FE00046871786308B118A228B138A948B158A19
:102FF000868B178A0E94076DE0911A17F0911B17B4
:10300000C788A6887589648953894289318920894E
:10301000EDB7FEB73196ADB7BEB712961C930E93BF
:103020001197F382E282D583C48388E090E097838E
:103030008683C0861186A286138674871586668766
:103040001786508B118A428B138A348B158A268BF4
:10305000178A0E94076DE0911A17F0911B17C78419
:10306000A684758564855385428531852085EDB7B5
:10307000FEB73196ADB7BEB712961C930E9311975B
:10308000F382E282D583C48380E190E097838683D4
:10309000C0861186A2861386748715866687178672
:1030A000508B118A428B138A348B158A268B178A90
:1030B0000E94076DE0911A17F0911B17C2A0A1A002
:1030C000738162815781468135812481EDB7FEB7D6
:1030D0003196ADB7BEB712961C930E931197F3823B
:1030E000E282D583C48388E190E097838683C0869B
:1030F0001186A28613867487158666871786508B7D
:10310000118A428B138A348B158A268B178A0E9468
:10311000076DE0911A17F0911B1763A154A140812C
:10312000318120A1EDB7FEB738960FB6F894FEBFF7
:103130000FBEEDBF3196ADB7BEB712961C930E937E
:10314000119787E195E093838283D583C483668357
:103150001782508711864287138634871586268703
:1031600017860E94076DEDB7FEB770960FB6F894FC
:10317000FEBF0FBEEDBFDF91CF911F910F91FF906A
:10318000EF90DF90CF90BF90AF900895C28DD38D18
:10319000A688B7887BCE0C7F0C171D0708F0EECEF3
:1031A0009CE9E92E94E0F92E80E5C82E85E0D82E22
:1031B000B3E0AB2EB12C8DB79EB780970FB6F894C5
:1031C0009EBF0FBE8DBFEDB7FEB73196ADB7BEB790
:1031D0001296BC92AE921197F382E282D582C4829B
:1031E00017830683D8018C918087118611968C9164
:1031F00011978287138612968C9112978487158671
:1032000013968C9113978687178614968C91149732
:10321000808B118A15968C911597828B138A16963E
:103220008C911697848B158A17968C911797868B9D
:10323000178A18968C911897808F118E19968C91F9
:103240001997828F138E1A968C911A97848F158EE8
:103250001B968C91868F178E0E94076D045F1F4FFF
:10326000EDB7FEB7B0960FB6F894FEBF0FBEEDBF38
:103270000C171D0708F49FCF81CE1092C800109242
:10328000C9001092CA0053985A981092CD0010921B
:10329000CC0008951092C80088E18093C90086E0B0
:1032A0008093CA00539A5A9A89E190E09093CD0096
:1032B0008093CC0008950E944A1908959091C80007
:1032C00095FFFCCF8093CE0008950E94665D80E05C
:1032D00090E008958EE4809389008FE180938800C8
:1032E000109280008AE08093810080E190E065E6A2
:1032F00079E10E94C85BEFE6F0E080818260808324
:103300000895FC016817790749F0DB0180E090E03F
:103310002D912193019685329105D1F70895CF9390
:10332000DF930E94BE1980E090E060E070E00E94B0
:10333000C519EC010E94345D00D000D000D0EDB77B
:10334000FEB731960C96ADB7BEB712969C938E938E
:1033500011978DE695E093838283D583C4830E9481
:10336000D2698DB79EB706960FB6F8949EBF0FBE72
:103370008DBF81E090E0DF91CF91089581E099E1E8
:1033800060E070E00E948B610895CF93DF930E940C
:10339000D91AEC010E940F1BBC01EA85FB85CE0106
:1033A00009959C012E5E3F4FC9010895EF92FF924F
:1033B0000F931F93CF93DF93EB018C017A0141159B
:1033C000510599F0FC0180899189009711F00E94C4
:1033D0009469F80186859785F70191838083F801C8
:1033E00080899189F70193838283F801D787C68703
:1033F000118A108ADF91CF911F910F91FF90EF906A
:1034000008950F931F93DF93CF93CDB7DEB70F814E
:103410001885F8012685378580899189009779F08C
:103420009E01255F3F4F69857A85A9010E94E36966
:103430009C01C901CF91DF911F910F910895C9019E
:1034400064E975E00E94AD68F801918B808B00976C
:1034500039F72FEF3FEFEDCFCF92DF92EF92FF9250
:103460000F931F93DF93CF9300D0CDB7DEB78B01BF
:103470006C01FC01868597852089318921153105EC
:1034800099F0C80161E070E00E946269282F392F2D
:10349000C9010F900F90CF91DF911F910F91FF9075
:1034A000EF90DF90CF90089564E975E049835A83E7
:1034B0000E94AD689C01F601918B808B49815A81F5
:1034C0000097F9F62FEF3FEFE3CFEF92FF920F93C4
:1034D0001F93CF93DF93EC018B01FB01E080F18020
:1034E0000E94345D0796E816F90621F1F801808103
:1034F00091810097A9F00E949469F80180819181DF
:103500000E9405698FEF9FEF99838883F8011182EC
:103510001082DF91CF911F910F91FF90EF9008954E
:103520008881998197FDEECF8130910559F30E94F2
:103530006F2DE8CF0E94345D07960E94946981E068
:1035400090E099838883E5CFEF92FF920F931F93CA
:10355000CF93DF93E82EE7017E01F92EE7018B017F
:10356000B701605F7F4FC7010E960E94651AF80190
:10357000808191819F878E8782819381998B888BAF
:10358000DF91CF911F910F91FF90EF9008958B01E4
:10359000E82EE7017E01F92EB701605F7F4FC7017A
:1035A0000E960E94651AC7010E945310C8010E941E
:1035B000D004EF92FF92CF93DF9382E590E00E94D8
:1035C0005F10E82EE7017E01F92EE701209709F14F
:1035D0008CE29AE19983888381E09AE19B838A83D4
:1035E00081ED99E19D838C8387EC9AE19B878A87A3
:1035F00086ED99E19F838E8384EA9AE19987888793
:1036000081E090E09F878E870E94345D0796998BBA
:10361000888BCE01DF91CF91FF90EF900895EF92CC
:10362000FF920F931F93CF93DF93EC016889798901
:1036300082EB95E00E94B569888999890E94946916
:103640008E010E5E1F4F08C0CE01B8010E94441EBD
:10365000888999890E9494696889798984EC95E0C0
:103660000E94B569888999890E9494690E94345D95
:103670007C010E94345DA7014E5F5F4F9C01295F72
:103680003F4FC80160E470E00E94E21B2FEF8F3FC4
:103690009207D1F68DB79EB70A970FB6F8949EBFE2
:1036A0000FBE8DBFEDB7FEB7319688899989ADB74A
:1036B000BEB712969C938E9311978AEE96E09383F1
:1036C000828386E995E09583848382EA95E09783F7
:1036D000868381E090E0918780870E94D2698DB7D0
:1036E0009EB70A960FB6F8949EBF0FBE8DBF81E0BD
:1036F00090E0DF91CF911F910F91FF90EF9008958F
:10370000FC01808591850E9428300895EF92FF92F8
:103710000F931F93DF93CF930F92CDB7DEB77C014A
:1037200069838E010F5F1F4F02C0009791F4F7016C
:1037300080859185B80141E050E00E94283097FFD4
:10374000F4CF0E94DE04FC018081918184309105D8
:1037500071F30F90CF91DF911F910F91FF90EF9038
:103760000895EF92FF920F931F93DF93CF930F92E1
:10377000CDB7DEB77C018E010F5F1F4FF701868149
:103780009781B80141E050E00E94F42E0097B9F013
:1037900097FD0DC02981332727FD3095C9010F9072
:1037A000CF91DF911F910F91FF90EF9008950E94AC
:1037B000DE04FC018081918184309105F9F22FEFC4
:1037C0003FEFECCF0F931F93DF93CF93CDB7DEB7CF
:1037D0002A970FB6F894DEBF0FBECDBF8C01DB0178
:1037E00081EB9BE19A838983FA018081918198879B
:1037F0008F8386E89BE19C838B8380E89BE19E839B
:103800008D83F901808191819A878987CE01019604
:10381000B801AD010E9442292A960FB6F894DEBF86
:103820000FBECDBFCF91DF911F910F9108958F9261
:103830009F92AF92BF92CF92DF92EF92FF920F933F
:103840001F93CF93DF935C016B01FB01C081D1819A
:103850006881662331F453C021966881662309F498
:103860004EC0772767FD70958DE597E00E949E6DAD
:10387000009791F78881882309F441C08E3309F4B9
:103880004EC08332C9F1823209F454C08DE5E82E6E
:1038900087E0F82E4E010894811C911C69816623F3
:1038A00009F458C0840106C00F5F1F4FF801608102
:1038B000662371F0772767FD7095C7010E949E6DA2
:1038C000009791F3F8018081882311F011928F0104
:1038D000F601118300838881843299F4C40162E681
:1038E00077E00E94C26D0097B9F5F50180818823C9
:1038F00071F1C4E6D7E005C0F601D183C083C0E012
:10390000D0E0CE01DF91CF911F910F91FF90EF900A
:10391000DF90CF90BF90AF909F908F900895CE0191
:10392000019629812E3361F0F60191838083C8E5E9
:10393000D7E0E7CF21969BEAE92E95E0F92EAACFB2
:103940002296F601D183C083CAE5D7E0DACFC6E676
:10395000D7E0D7CF8401BCCFC4010E94B460EC0192
:10396000009779F6C1E6D7E0CCCF2F923F924F92E5
:103970005F926F927F928F929F92AF92BF92CF92FF
:10398000DF92EF92FF920F931F93DF93CF93CDB708
:10399000DEB76B970FB6F894DEBF0FBECDBF4C01FC
:1039A0008B01F8E04F2E512C4C0E5D1EC20160E0E1
:1039B00070E044E150E00E94610ED4011C961C921C
:1039C0001A830983EDE0CE2ED12CC80CD91CC60178
:1039D0005E010894A11CB11CB5010E94171C3C019A
:1039E000009709F43BC1998788878E01065F1F4FB6
:1039F00071E0E72EF12CC601B5010E94171CF801F9
:103A0000819391938F01009709F48BC00894E11C76
:103A1000F11CF9E0EF16F10471F71B8E1A8E5EEFC0
:103A2000252E5FEF352E2E0C3F1C8101000F111F3C
:103A30000A0D1B1DD80117968D919C91189768E56A
:103A400077E00E94C26D009709F4F5C0D80117967F
:103A50008D919C9118976AE577E00E94C26D00975E
:103A600009F4FFC000E010E0CC24DD24F7E0EF16FD
:103A7000F1040CF466C000D000D000D0EDB7FEB762
:103A80003196ADB7BEB712969C928E9211978EE882
:103A900096E09383828375826482D4011296ED91BD
:103AA000FC9113970995EDB7FEB736960FB6F894CB
:103AB000FEBF0FBEEDBFD4011C968C911C978823CE
:103AC00009F446C000D000D000D0EDB7FEB7319663
:103AD000ADB7BEB71296DC92CE92119713830283D4
:103AE00086EB91E0958384830E941F2EBC01EDB785
:103AF000FEB736960FB6F894FEBF0FBEEDBF97FD2A
:103B00005AC0D4011C968C911C97882309F11696F3
:103B1000ED91FC911797C401AE014D5F5F4F099580
:103B200017C0F701EE0FFF1FEA0DFB1D108617826D
:103B300023E0E216F1040CF072CF00E010E0CC2498
:103B4000DD24D4011C968C911C97882309F0BACFF0
:103B5000C401B701A2010E94DC1E8C01F40184851E
:103B6000882309F05FC017FD57C0D4011D961C9231
:103B70001D9700E010E0C114D10419F0C6010E94A5
:103B8000DD28C8016B960FB6F894DEBF0FBECDBF1F
:103B9000CF91DF911F910F91FF90EF90DF90CF9029
:103BA000BF90AF909F908F907F906F905F904F905D
:103BB0003F902F900895D4011296ED90FC901397AA
:103BC000088519850E94DE04EDB7FEB73A970FB657
:103BD000F894FEBF0FBEEDBF3196ADB7BEB71296DB
:103BE0009C928E9211972AEE36E0338322831583BE
:103BF00004832DEA35E037832683DC018D919C9187
:103C000091878087F7010995EDB7FEB73A960FB611
:103C1000F894FEBF0FBEEDBF81E0F40185870FEF82
:103C20001FEFA9CF0084F185E02DC401BE016D5FB7
:103C30007F4F099598CF81E0F4018487F701319790
:103C4000EE0FFF1FEA0DFB1D67817085C4010E9406
:103C50001E286C01710106E210E008CF00E010E0C0
:103C600090CF81E0F4018487F7013197EE0FFF1FB9
:103C7000EA0DFB1D67817085C4010E941E286C013E
:103C8000710106E110E0F2CECF92DF92EF92FF9247
:103C90000F931F93CF93DF938C01C62EE6017E0115
:103CA000F72EE701E62ECE0163E577E00E94D66DA0
:103CB000C80FD91F88818823E1F08A30D1F0833280
:103CC000C1F08B3359F0CE01019662E270E00E94A0
:103CD0009E6D0097E9F0EC012196E5CF1882C801AE
:103CE000B7010E94B51C9C01009741F421967E010A
:103CF000DACFC801B7010E94B51C9C01C901DF9150
:103D0000CF911F910F91FF90EF90DF90CF9008958A
:103D10002DB73EB7285030400FB6F8943EBF0FBEC7
:103D20002DBFEDB7FEB73196ADB7BEB712961C9357
:103D30000E93119788E096E0938382838BEA95E057
:103D40009583848397838683D8011296ED91FC91A5
:103D5000139709952DB73EB7285F3F4F0FB6F894DC
:103D60003EBF0FBE2DBF2FEF3FEFC8CF00D000D01A
:103D700000D0EDB7FEB73196ADB7BEB712969C93A3
:103D80008E93119729E536E033832283DA012D9152
:103D90003C9135832483DC011296ED91FC911397BD
:103DA00009958DB79EB706960FB6F8949EBF0FBEC5
:103DB0008DBF8FEF9FEF0895AF92BF92CF92DF92AA
:103DC000EF92FF920F931F93CF93DF935C016B01F0
:103DD0007A01DA010D911C91119788E697E0C1EF05
:103DE000D7E005C0289688819981009711F1B80124
:103DF0000E94C26D0097B1F78C8190E0C816D90679
:103E0000DCF08D8190E08C159D05C4F1EA81FB8189
:103E1000C501B601A70109959C01C901DF91CF91A8
:103E20001F910F91FF90EF90DF90CF90BF90AF90D8
:103E30000895E6EBFEE1ECCF00D000D000D0EDB766
:103E4000FEB73196ADB7BEB71296BC92AE9211973F
:103E500081EE95E09383828315830483F50182814B
:103E60009381FC0109958DB79EB706960FB6F8941D
:103E70009EBF0FBE8DBF2FEF3FEFCFCF00D000D042
:103E800000D0EDB7FEB73196ADB7BEB71296BC9273
:103E9000AE9211978EE896E0DDCF0F931F93CF93EC
:103EA000DF93EC018B0161E278E00E94C26D009724
:103EB00071F1ADB7BEB718970FB6F894BEBF0FBE7D
:103EC000ADBFEDB7FEB731968AE494E112969C93AC
:103ED0008E93119787E298E093838283D583C4837E
:103EE000178306830E94AD618DB79EB708960FB603
:103EF000F8949EBF0FBE8DBF1092CB148AE494E15C
:103F00000E94006EDF91CF911F910F91089500D014
:103F100000D000D0EDB7FEB731968AE494E1ADB79A
:103F2000BEB712969C938E93119783E298E0938389
:103F30008283158304830E94AD618DB79EB7069678
:103F40000FB6F8949EBF0FBE8DBFD6CFAF92BF9273
:103F5000CF92DF92EF92FF920F931F93CF93DF9355
:103F60007C018B015A016901CB010E943F31EC01B8
:103F7000009709F1CE010E943E32AC010097C1F0DA
:103F8000C701B8019601F501099597FFF3CF0FEF2F
:103F90001FEFCE010E94E130C801DF91CF911F9148
:103FA0000F91FF90EF90DF90CF90BF90AF9008956A
:103FB00000E010E0EECF8DB79EB70A970FB6F894E9
:103FC0009EBF0FBE8DBFEDB7FEB73196ADB7BEB782
:103FD0001296FC92EE92119785E796E09383828386
:103FE0008DE298E09583848380E398E097838683CD
:103FF00011870087F70182819381FC0109958DB7B4
:104000009EB70A960FB6F8949EBF0FBE8DBF0FEFF6
:104010001FEFC2CFCF92DF92EF92FF920F931F93C9
:10402000CF93DF938C016B01EA017901888183FDD5
:104030000CC0C0E0D0E0CE01DF91CF911F910F9175
:10404000FF90EF90DF90CF9008952196CE016AE324
:1040500078E00E94C26D009761F3CE016CE378E0D6
:104060000E94C26D009729F3C601BE010E944D1F38
:104070006C0100D000D000D0EDB7FEB73196ADB7DF
:10408000BEB712961C930E9311978FE398E093831B
:104090008283D582C482D8011296ED91FC91139748
:1040A00009952DB73EB72A5F3F4F0FB6F8943EBF34
:1040B0000FBE2DBFC801B60141E750E297010E9433
:1040C000A61FEC01009709F0B6CFC801B6014AE07F
:1040D00050E297010E94A61FEC01C6010E945310F6
:1040E000AACF6F927F928F929F92AF92BF92CF9200
:1040F000DF92EF92FF920F931F93DF93CF93CDB791
:10410000DEB7A3970FB6F894DEBF0FBECDBF8C010C
:104110004B016A015901C90183709070009709F43D
:1041200085C04115510509F44AC1BA016F5F7F4F3F
:10413000C4010E944D1F3C01BE01645F7F4F0E947D
:10414000232F7C01C3010E945310E114F10409F0F4
:1041500047C1A1FE69C09E012F5F3F4FD901EBE52A
:10416000F8E08BE001900D928150E1F78C859D8500
:10417000AC014070507FF0E440305F0709F427C184
:1041800060E24030560709F425C1A0E640305A07E6
:1041900009F423C1B0E840305B0711F04FE34983D5
:1041A00090FF02C042E74A8387FF02C047E74B8384
:1041B00086FF02C048E74C8385FF02C042E74D837B
:1041C00084FF02C047E74E8383FF02C048E74F8366
:1041D00082FF02C042E7488781FF02C047E7498764
:1041E00080FF02C088E78A8700D000D000D0EDB7FA
:1041F000FEB73196ADB7BEB712961C930E931197CA
:1042000089E498E09383828335832483D8011296CE
:10421000ED91FC9113970995EDB7FEB736960FB661
:10422000F894FEBF0FBEEDBFA0FC76C0C114D10450
:1042300009F4A2C076010894E11CF11C00D000D062
:1042400000D0EDB7FEB73196ADB7BEB712961C934E
:104250000E93119789E498E093838283F582E48238
:10426000D8011296ED91FC9113970995F601808182
:104270002DB73EB72A5F3F4F0FB6F8943EBF0FBE33
:104280002DBF83FF07C0C7016AE378E00E94C26DBB
:10429000009781F500D000D0ADB7BEB712961C9341
:1042A0000E93119781E598E014969C938E93139743
:1042B000D8011296ED91FC91139709950F900F90EC
:1042C0000F900F9020E030E0C901A3960FB6F8944C
:1042D000DEBF0FBECDBFCF91DF911F910F91FF9039
:1042E000EF90DF90CF90BF90AF909F908F907F9096
:1042F0006F900895C7016CE378E00E94C26D00974B
:1043000049F200D000D0ADB7BEB712961C930E9301
:10431000119788E598E0C8CF2DB73EB728503040B8
:104320000FB6F8943EBF0FBE2DBFEDB7FEB7319666
:10433000ADB7BEB712961C930E9311978DE498E01B
:10434000938382838E859F85A889B9898483958389
:10435000A683B783D8011296ED91FC911397099526
:10436000EDB7FEB738960FB6F894FEBF0FBEEDBF9F
:10437000C114D10409F05ECF00D000D000D0EDB759
:10438000FEB73196ADB7BEB712961C930E93119738
:1043900083E598E09383828395828482D801129684
:1043A000ED91FC9113970995EDB7FEB736960FB6D0
:1043B000F894FEBF0FBEEDBF20E030E085CFCB010B
:1043C000BE01645F7F4F0E94232F7C01BECE44E676
:1043D0004983E6CE43E64983E3CE42E64983E0CE15
:1043E000D8011296ED90FC9013970E94DE04EDB771
:1043F000FEB73A970FB6F894FEBF0FBEEDBF3196E9
:10440000ADB7BEB712961C930E9311972AEE36E005
:10441000338322832DE238E03583248324E438E09B
:1044200037832683DC018D919C9191878087F701EA
:104430000995EDB7FEB73A960FB6F894FEBF0FBEDA
:10444000EDBF2FEF3FEF40CF2F923F924F925F9201
:104450006F927F928F929F92AF92BF92CF92DF9294
:10446000EF92FF920F931F93DF93CF93CDB7DEB7F9
:1044700028970FB6F894DEBF0FBECDBF6C017A83CC
:1044800069835E834D83623071050CF4A5C11A0106
:1044900022E030E0220E331E81E0682E712CD10123
:1044A0006D917D911D01C6010E941E284C0100974F
:1044B00009F4D2C0ED81FE810190F081E02DFC83F2
:1044C000EB8300D000D0ADB7BEB712969C938E930D
:1044D0001197E1E0F0E01496FC93EE9313970E949D
:1044E0001F2E7C010F900F900F900F9097FD3FC1F2
:1044F00080E092E00E9459108C01009709F46FC18E
:1045000044245524C701B80140E052E00E94F42E33
:1045100097FD20C0009709F458C0AA24BB249C0131
:10452000D601ED91FC91C601B801A9012F8338870E
:1045300009952F81388597FDB9C0A80EB91EA2161E
:10454000B30674F3C701B80140E052E00E94F42EB4
:1045500097FFE0CF0E94DE04DC018D919C911197C2
:104560008430910509F47CC02DB73EB72A50304005
:104570000FB6F8943EBF0FBE2DBFEDB7FEB7319614
:10458000ADB7BEB71296DC92CE9211972AEE36E006
:1045900033832283AB81BC81B583A48322E738E0D7
:1045A0003783268391878087D6011296ED91FC91FF
:1045B00013970995EDB7FEB73A960FB6F894FEBF7C
:1045C0000FBEEDBF44244A94542C00D000D0ADB7A8
:1045D000BEB71296DC92CE921197E1E5F8E0149600
:1045E000FC93EE931397D6011296ED91FC911397DD
:1045F00009950F900F900F900F90C7010E946F2D9B
:10460000C8010E945310C4010E94DD280894611C57
:10461000711CE981FA816E167F0624F4411451045D
:1046200009F43DCFC20128960FB6F894DEBF0FBE45
:10463000CDBFCF91DF911F910F91FF90EF90DF9051
:10464000CF90BF90AF909F908F907F906F905F9032
:104650004F903F902F90089544244A94542CD6CFE5
:1046600000D000D000D0EDB7FEB73196ADB7BEB7E1
:104670001296DC92CE92119723E337E033832283A4
:104680008B819C8195838483D6011296ED91FC9158
:1046900013970995EDB7FEB736960FB6F894FEBF9F
:1046A0000FBEEDBF44244A94542C8FCF0E94DE04E9
:1046B000FC018081918184309105A9F1D601129687
:1046C000AD90BC9013970E94DE04EDB7FEB73A9709
:1046D0000FB6F894FEBF0FBEEDBF3196ADB7BEB7B3
:1046E0001296DC92CE9211972AEE36E03383228323
:1046F000AB81BC81B583A48327E738E03783268369
:10470000DC018D919C9191878087F5010995EDB72A
:10471000FEB73A960FB6F894FEBF0FBEEDBF442425
:104720004A94542CEFCE00D000D000D0EDB7FEB7A5
:104730003196ADB7BEB71296DC92CE92119723E3B5
:1047400037E0338322838B819C8195838483D601D8
:1047500012968D919C911397FC010995EDB7FEB7C8
:1047600036960FB6F894FEBF0FBEEDBFD8CFD60178
:1047700012960D911C9113970E94DE04EDB7FEB7BF
:104780003A970FB6F894FEBF0FBEEDBF3196ADB7A6
:10479000BEB71296DC92CE9211972AEE36E03383A2
:1047A0002283AB81BC81B583A48326E638E03783BE
:1047B0002683DC018D919C9191878087F801099572
:1047C000EDB7FEB73A960FB6F894FEBF0FBEEDBF39
:1047D00044244A94542C17CF4424552423CFD60183
:1047E00012960D911C9113970E94DE04EDB7FEB74F
:1047F0003A970FB6F894FEBF0FBEEDBF3196ADB736
:10480000BEB71296DC92CE9211972AEE36E0338331
:104810002283AB81BC81B583A4832BE638E0C7CF6C
:104820006F927F929F92AF92BF92CF92DF92EF9260
:10483000FF920F931F93DF93CF93CDB7DEB76897A7
:104840000FB6F894DEBF0FBECDBF5C016B018A01CD
:104850009924EE24FF2421E2622E26E0722EC60166
:10486000B8014DE758E00E94476BFFEF8F3F9F076D
:10487000E1F18C36910551F18337910589F182354B
:10488000910549F100D000D000D0EDB7FEB73196C8
:10489000ADB7BEB71296BC92AE9211977382628288
:1048A000D8018D919C9195838483D5011296ED91C9
:1048B000FC9113970995EDB7FEB736960FB6F894AD
:1048C000FEBF0FBEEDBF99249394C9CF23E030E023
:1048D000E22AF32AC4CF84E090E0E82AF92ABFCF85
:1048E000A1E0B0E0EA2AFB2ABACF992009F04CC037
:1048F00080919A0F90919B0F9C012F5F3F4F2C1539
:104900003D050CF444C08C159D050CF066C0FC01FF
:10491000EE0FFF1FE00FF11F60817181C5010E9442
:104920001E286C01009781F1BE016F5F7F4F0E94CE
:10493000232F97FD8CC089819A818070907FF0E44D
:1049400080309F0709F44DC0C501B60140E050E03A
:1049500097010E9471208C01C6010E94DD28C801C8
:1049600068960FB6F894DEBF0FBECDBFCF91DF9132
:104970001F910F91FF90EF90DF90CF90BF90AF907D
:104980009F907F906F9008950FEF1FEFE8CF00D0BA
:1049900000D000D0EDB7FEB73196ADB7BEB71296D6
:1049A000BC92AE9211978EE896E093838283D801F1
:1049B0008D919C9195838483D5011296ED91FC9104
:1049C00013970995EDB7FEB736960FB6F894FEBF6C
:1049D0000FBEEDBF0FEF1FEFC2CF0E941128BC0129
:1049E0009DCF00D000D000D0EDB7FEB73196ADB767
:1049F000BEB71296BC92AE9211978FE398E0938364
:104A00008283D582C482D5011296ED91FC911397D1
:104A10000995EDB7FEB736960FB6F894FEBF0FBEF8
:104A2000EDBFC501B60141E750E297010E94A61F04
:104A30008C01009709F090CFE2FE8ECFC501B60140
:104A40004AE050E297010E94A61F8C0185CFD50154
:104A50001296ED90FC901397F801008111810E944D
:104A6000DE042DB73EB72A5030400FB6F8943EBF53
:104A70000FBE2DBFEDB7FEB73196ADB7BEB71296DC
:104A8000BC92AE9211972AEE36E0338322831583CF
:104A9000048324E438E037832683DC018D919C91E4
:104AA00091878087F7010995EDB7FEB73A960FB663
:104AB000F894FEBF0FBEEDBF0FEF1FEF4DCF2F924B
:104AC0003F924F925F926F927F928F929F92BF928E
:104AD000CF92DF92EF92FF920F931F93DF93CF93CA
:104AE000CDB7DEB7A2970FB6F894DEBF0FBECDBF2D
:104AF0007C016B018A012E010894411C511CD201DA
:104B0000EDE9F8E080E201900D928150E1F7BB24DD
:104B100061EE862E65E0962E51E2652E56E0752EEA
:104B20004CE3242E46E0342EC601B80141E858E09B
:104B30000E94476BFFEF8F3F9F0709F45FC08A33E6
:104B4000910539F18634910599F100D000D000D05B
:104B5000EDB7FEB73196ADB7BEB71296FC92EE92A6
:104B6000119773826282D8018D919C919583848381
:104B7000D7011296ED91FC9113970995EDB7FEB709
:104B800036960FB6F894FEBF0FBEEDBFBB24B394AC
:104B9000CBCF00D000D000D0EDB7FEB73196ADB787
:104BA000BEB71296FC92EE92119793828282DBCF6F
:104BB000809168179091691760E070E04AE050E0DA
:104BC0000E94416A6A83662309F4AECF6C3009F40F
:104BD000ABCF603109F4A8CF603209F4A5CF00D083
:104BE00000D000D0EDB7FEB73196ADB7BEB7129684
:104BF000FC92EE92119733822282B5CFBB2009F04E
:104C00004DC096012150304080919A0F90919B0F9A
:104C10002817390709F454C08C159D050CF441C0C0
:104C200000D000D000D0EDB7FEB73196ADB7BEB71B
:104C30001296FC92EE9211978EE896E0938382830F
:104C4000D8018D919C9195838483D7011296ED9123
:104C5000FC9113970995EDB7FEB736960FB6F89409
:104C6000FEBF0FBEEDBF2FEF3FEFC901A2960FB6FB
:104C7000F894DEBF0FBECDBFCF91DF911F910F9192
:104C8000FF90EF90DF90CF90BF909F908F907F909C
:104C90006F905F904F903F902F9008952FEF3FEFD0
:104CA000E4CF00D000D000D0EDB7FEB73196ADB75D
:104CB000BEB71296FC92EE92119781EE95E0BECFB0
:104CC000F901EE0FFF1FE00FF11F60817181C70135
:104CD0000E941E286C01009709F448C0B2010E948E
:104CE000F6329C0197FD08C0C60129A33AA30E9491
:104CF000DD2829A13AA1B9CFD70112968D909C90B9
:104D00001397F8010081118189A33AA30E94DE0460
:104D10004DB75EB74A5050400FB6F8945EBF0FBE15
:104D20004DBFEDB7FEB73196ADB7BEB71296FC9248
:104D3000EE9211974AEE56E0538342831583048323
:104D400045E958E057834683DC018D919C9191871A
:104D50008087F4010995EDB7FEB73A960FB6F8943F
:104D6000FEBF0FBEEDBF3AA129A1BECFD70112965B
:104D7000CD90DC901397F801008111810E94DE0430
:104D80002DB73EB72A5030400FB6F8943EBF0FBE45
:104D90002DBFEDB7FEB73196ADB7BEB71296FC92F8
:104DA000EE9211972AEE36E0338322831583048333
:104DB00025E838E037832683DC018D919C9191872B
:104DC0008087F6010995EDB7FEB73A960FB6F894CD
:104DD000FEBF0FBEEDBF2FEF3FEF47CF8F929F92E9
:104DE000BF92CF92DF92EF92FF920F931F93CF93D8
:104DF000DF938C01E62EE7017E01F72EE701CA80E2
:104E0000DB80DC0116964D915C9117971C96BC9047
:104E10001C971E966D917C911F9764FFE1C02DEB4E
:104E200038E0FB01E370F070EE0FFF1FE35CF64F1C
:104E30008081918162FFD0C0FEE48F2E912C63FFB0
:104E4000C7C070E5E72EF12CEDB7FEB772970FB62D
:104E5000F894FEBF0FBEEDBF3196ADB7BEB7129648
:104E6000DC93CE93119767EC78E07383628355836C
:104E70004483B682178231872087938782879586FD
:104E80008486F786E686D8011D968C91A82FB0E01F
:104E9000AA0FBB1FAC57B64F8D919C91918B808B05
:104EA000F6010995EDB7FEB73E960FB6F894FEBF32
:104EB0000FBEEDBFD283C18380EE98E094838383DD
:104EC000EA81FB81099533E6E32EF12CE00EF11E19
:104ED000D701ED91FC911197828193810F900F90F2
:104EE0000F900F90009709F452C000D000D000D06E
:104EF000EDB7FEB73196ADB7BEB71296DC93CE9341
:104F000011972AEE38E03383228395838483EA81E4
:104F1000FB810995D701ED91FC91119784819581D1
:104F2000EDB7FEB736960FB6F894FEBF0FBEEDBFD5
:104F3000009769F106E010E02DEEC22E28E0D22E97
:104F400000D000D000D0EDB7FEB73196ADB7BEB7F8
:104F50001296DC93CE931197D382C2829583848379
:104F6000EA81FB810995D701ED91FC911197E00F42
:104F7000F11F808191810E5F1F4FEDB7FEB736960E
:104F80000FB6F894FEBF0FBEEDBF0097C9F600D074
:104F900000D0ADB7BEB71296DC93CE93119782EFD7
:104FA00098E014969C938E931397EA81FB81099560
:104FB0000F900F900F900F90DF91CF911F910F9155
:104FC000FF90EF90DF90CF90BF909F908F900895CB
:104FD00060E2E62EF12C38CFE0E28E2E912C2FCF1E
:104FE00022EC38E01ECFCF93DF93EC0100D000D04D
:104FF000EDB7FEB79283818385EF98E09483838336
:10500000EA81FB8109950F900F900F900F908EEE23
:1050100096E2BE010E943E5D80E090E0DF91CF917C
:10502000089587EB99E00E94B4609C01009711F00D
:10503000C901089525EB39E0C9010895CF92DF92A7
:10504000EF92FF920F931F93CF93DF936C01EB01CD
:10505000209709F441C088818823F1F18F3209F447
:105060007DC00E9411288C01CE0162E979E00E9486
:10507000C26D009709F477C0C80164E979E00E9425
:10508000C26D0097C1F5CE010E94740E02960E9477
:105090005910E82EF92EE114F10409F469C000D08A
:1050A00000D000D0EDB7FEB73196ADB7BEB71296BF
:1050B000FC92EE92119786E999E093838283D583DF
:1050C000C4830E94AD618DB79EB706960FB6F89463
:1050D0009EBF0FBE8DBF05C085EB99E00E94006E9C
:1050E0007C01C701DF91CF911F910F91FF90EF904D
:1050F000DF90CF900895C8010E94740E7C01CE010C
:105100000E94740E8E0D9F1D02960E945910E82E6B
:10511000F92EE114F10461F1ADB7BEB718970FB6DF
:10512000F894BEBF0FBEADBFEDB7FEB73196129675
:10513000FC92EE9211978AE999E09383828315831A
:105140000483D783C6830E94AD618DB79EB708964E
:105150000FB6F8949EBF0FBE8DBFC3CFCB010E9488
:10516000006E7C01BECFC8010E94006E7C01B9CFE9
:1051700000D000D000D0EDB7FEB73196ADB7BEB7C6
:105180001296DC92CE92119782E097E0938382830D
:1051900080EA99E095838483D6011296ED91FC9183
:1051A000139709958DB79EB706960FB6F8949EBFD4
:1051B0000FBE8DBFEE24FF2494CF009711F00E9404
:1051C00053100895AF92BF92CF92DF92EF92FF9269
:1051D0000F931F93CF93DF93EC015B016230710556
:1051E0007CF192E0E92EF12CE40EF51E01E010E0D6
:1051F0008FEAC82E89E0D82ED7018D919D917D012F
:1052000000D000D000D0EDB7FEB73196ADB7BEB735
:105210001296DC93CE931197D382C28295838483B6
:10522000EA81FB8109950F5F1F4FEDB7FEB73696F8
:105230000FB6F894FEBF0FBEEDBF0A151B05E4F2D2
:1052400000D000D0ADB7BEB71296DC93CE931197C5
:1052500083EB99E014969C938E931397EA81FB81DC
:1052600009950F900F900F900F9080E090E0DF91E4
:10527000CF911F910F91FF90EF90DF90CF90BF9053
:10528000AF900895AF92BF92CF92DF92EF92FF92CC
:105290000F931F93CF93DF93EC016B015A014230C0
:1052A00051050CF47DC0EC81FD81CE016BEB79E002
:1052B00043E050E00995EE24FF2400E010E0E8818F
:1052C000F981CE010995BC01FFEF8F3F9F0709F4DB
:1052D00060C00115110539F08B35910509F44FC0F7
:1052E00000E010E0ECCF8830910599F18F379105FF
:1052F00081F18B31910509F449C08A30910509F497
:1053000054C08D30910509F450C080978F359105B8
:10531000B0F6F601EE0DFF1D60830894E11CF11C50
:10532000EA81FB81CE010995C70101968A159B058B
:1053300034F2F601EE0DFF1D1082C701DF91CF910F
:105340001F910F91FF90EF90DF90CF90BF90AF90A3
:105350000895E114F10409F4B2CF0894E108F108CA
:10536000EA81FB81CE0168E070E00995EC81FD8166
:10537000CE016BEB79E043E050E00995A0CF02301D
:10538000110509F4ADCF02E010E099CF01E010E083
:1053900096CFE114F10469F6EE24EA94FE2CCDCF09
:1053A000FB011082EE24FF24C8CFF601EE0DFF1D95
:1053B0008AE080830894E11CF11CF601EE0DFF1DCC
:1053C0001082EA81FB81CE016AE070E00995B5CFD9
:1053D0000E94E62B0895CF93DF93EC0108C00E9452
:1053E000DE04FC01808191818430910541F4CE017D
:1053F0000E94D55F009799F7DF91CF9108958EEBCA
:1054000099E068E570E00E948A14EF92FF920F9392
:105410001F93CF93DF93EC010E811F8101151105BE
:1054200021F1D8011896ED91FC9119973097D1F0A0
:105430000280F381E02D3097A9F009957C01C80125
:105440000E944C2D198218821A821B821C821D8296
:105450001F821E82C701DF91CF911F910F91FF9094
:10546000EF900895EE24FF24EACFEE24FF24C70135
:10547000DF91CF911F910F91FF90EF9008950895C4
:1054800060E070E041E050E00E942C1008950F931E
:105490001F93CF93DF938C01C0E0D0E0CE01880F43
:1054A000991F9E01220F331F220F331F220F331F1C
:1054B000820F931F0296800F911F0E94052A21964A
:1054C000C630D10559F7C8010E94B85FDF91CF916E
:1054D0001F910F910895CF92DF92EF92FF920F9359
:1054E0001F93CF93DF938C01EB01009709F459C010
:1054F000FC0186819781009709F453C0209709F435
:1055000050C00E94FE5B6C010E94EB29CE010E94FC
:10551000052A7C0197FD5BC0F801E680F780C70192
:105520000E943B2DF801808191819983888382813B
:105530009381A481B5818A839B83AC83BD83FF82E1
:10554000EE82F701A085B185109799F02D913C91DD
:1055500011972115310569F08681978187709070C8
:1055600082309105A9F0CE01F90109957C01F7FC83
:1055700022C0C6010E94786020E030E0C901DF91BE
:10558000CF911F910F91FF90EF90DF90CF900895F2
:105590001E96ED91FC911F97C801BE0109957C01F3
:1055A000E6CFC9E0D0E00E94DE04FC01D183C083D5
:1055B0002FEF3FEFE3CF8E819F810E944C2D198208
:1055C00018821A821B821C821D821F821E82CC2797
:1055D000DD27CE19DF09C6010E947860E4CF8F92E3
:1055E0009F92AF92BF92CF92DF92EF92FF920F9372
:1055F0001F93CF93DF934C015B0169017A010E94F5
:10560000FE5BEC010E94EB29063011056CF5F801F8
:10561000EE0FFF1FC801880F991F880F991F880F71
:10562000991FE80FF91FEC0FFD1F808591850097EA
:1056300071F1C8010196FC01EE0FFF1F880F991F41
:10564000880F991F880F991FE80FF91F3896EC0FE4
:10565000FD1F05C0808191813A960097C1F00F5FD0
:105660001F4F06301105B4F3CE010E9478600FEF92
:105670001FEFC801DF91CF911F910F91FF90EF9025
:10568000DF90CF90BF90AF909F908F900895F801DA
:10569000EE0FFF1FC801880F991F880F991F880FF1
:1056A000991FE80FF91FEC0FFD1FB382A282C4827D
:1056B000D582E682F78291868086C8010196FC0138
:1056C000EE0FFF1F880F991F880F991F880F991FD2
:1056D000E80FF91FEC0FFD1F11821082CE010E940E
:1056E0007860C7CFCF92DF92EF92FF920F931F9314
:1056F000CF93DF937C010E94FE5B8C01CE2CE601F0
:105700006E01DF2CE601C630D10560F0C7EFDFEF98
:10571000CE01DF91CF911F910F91FF90EF90DF901D
:10572000CF9008959701F701EE0FFF1F220F331F4F
:10573000220F331F220F331FE20FF31FE80FF91F51
:1057400080859185009711F3C8010E94EB29C6015D
:10575000880F991FCC0FDD1FCC0FDD1FCC0FDD1F75
:105760008C0F9D1F0296800F911F0E94052AEC014D
:10577000C8010E947860CCCF0F931F93CF93DF9323
:10578000EC010E94FE5B8C01C630D105D0F40E9472
:10579000EB29FE01EE0FFF1FCC0FDD1FCC0FDD1F2D
:1057A000CC0FDD1FEC0FFD1FE00FF11F13821282E3
:1057B000148215821682178211861086C8010E94F3
:1057C0007860DF91CF911F910F9108958CE496E15D
:1057D00060E070E041E050E00E942C108FEF9FEFFE
:1057E00090934F1680934E161092511610925016A9
:1057F0008FE39AE2009711F00E943F2A08950F93D9
:105800001F93CF93DF930E941E5E8C0180914E16F2
:1058100090914F168017910749F41AC00E94DE0438
:10582000FC01808191818430910501F5CCE4D6E1C1
:10583000CE010E94D55F009789F71B830A8381E020
:1058400090E09D838C83DF91CF911F910F910895FC
:105850008091501690915116019690935116809315
:105860005016DF91CF911F910F9108958BEF99E022
:105870006AEE70E00E948A14809150169091511641
:105880008230910534F00197909351168093501611
:1058900008958FEF9FEF90934F1680934E161092BE
:1058A0005116109250168CE496E10E94786008958B
:1058B0009F92AF92BF92CF92DF92EF92FF920F939F
:1058C0001F93CF93DF937C018B016A015901DC01A7
:1058D0002D913C9111972F5F3F4FE0914A16F09127
:1058E0004B16309709F49BC02115310509F490C07F
:1058F000EF012C9660E070E040E050E09881992341
:10590000A1F1D9018C91882309F454C08F3209F494
:1059100051C09817DCF089170CF44CC021961196F1
:105920000BC08D91882309F445C08F3209F442C021
:10593000981664F08915F4F1CD019990992089F7B2
:10594000DC018C918823B1F08F32A1F0AF019081FE
:105950008181E92FF82F309779F12115310551F127
:10596000EF012C969881992361F6C901DC018C9195
:10597000882351F7D9018C91882359F08F32D1F1C6
:10598000D901119602C08F32A9F19D018D91882312
:10599000D1F78823A9F18681978187709070823032
:1059A000910571F1BF0192818381E92FF82F40E0C9
:1059B00050E0D1CFE0E0F0E00115110521F0D80171
:1059C00011965C934E93C114D10419F0D6016D93D6
:1059D0007C93D70111963C932E93CF01DF91CF9109
:1059E0001F910F91FF90EF90DF90CF90BF90AF90FD
:1059F0009F9008952F5F3F4FD9018C91882359F6CE
:105A0000A114B104C9F2D50111963C932E93D4CFC1
:105A100060E070E040E050E0E0E0F0E0CDCF60E03A
:105A200070E040E050E0C8CFCF93DF93EC010097E7
:105A300059F0888199810E94142D8A819B810E944E
:105A4000142DCE010E945310DF91CF910895FC01D7
:105A50008081882359F08F3259F0DF01119602C0FE
:105A60008F3231F0FD018D918823D1F7CF01089558
:105A70003196CF010895CF93DF93EC01009749F061
:105A80000E94FF2B8C819D8101969D838C830E94B7
:105A90003C2CDF91CF910895CF93DF93EC010097D9
:105AA00071F00E94FF2B8C819D81009759F0019726
:105AB0009D838C83181619062CF40E943C2CDF91D0
:105AC000CF9108958E8183FFF8CF0E943C2C8A816C
:105AD0009B810E94142DCE010E945310F0CFCF93D2
