:100000000C944C000C946D000C9470000C947300D4
:100010000C9476000C9479000C947C000C947F0076
:100020000C9482000C9485000C9488000C948B0036
:100030000C948E000C9491000C9494000C949700F6
:100040000C949A000C949D000C94A0000C94A300B6
:100050000C94A6000C94A9000C94AC000C94AF0076
:100060000C94B2000C94B5000C94B8000C94BB0036
:100070000C94BE000C94C1000C94C4000C94C700F6
:100080000C94CA000C94CD000C94D0000C94D300B6
:100090000C94D6000C94D90011241FBEC1E7D6E100
:1000A000DEBFCDBF11E1A0E0B1E0E4E4FFEB01E091
:1000B0000BBF02C007900D92AF30B107D9F715E121
:1000C000AFE0B1E101C01D92A237B107E1F70E9494
:1000D000AA210E9436010C9461078F9380E06CC0C6
:1000E0008F9381E069C08F9382E066C08F9383E035
:1000F00063C08F9384E060C08F9385E05DC08F9371
:1001000086E05AC08F9387E057C08F9388E054C031
:100110008F9389E051C08F938AE04EC08F938BE01C
:100120004BC08F938CE048C08F938DE045C08F9378
:100130008EE042C08F938FE03FC08F9380E13CC040
:100140008F9381E139C08F9382E136C08F9383E131
:1001500033C08F9384E130C08F9385E12DC08F939E
:1001600086E12AC08F9387E127C08F9388E124C05E
:100170008F9389E121C08F938AE11EC08F938BE119
:100180001BC08F938CE118C08F938DE115C08F93A6
:100190008EE112C08F938FE10FC08F9380E20CC06D
:1001A0008F9381E209C08F9382E206C08F9383E22E
:1001B00003C08F9384E200C09F939FB7F894906828
:1001C0009F930F921F9211242F923F924F925F9212
:1001D0006F927F928F929F92AF92BF92CF92DF9257
:1001E000EF92FF920F931F932F933F934F935F9341
:1001F0006F937F93CF93DF93EF93FF93AF93BF936F
:10020000ADB7BEB79396AF93BF93CDB7DEB7219688
:10021000BE010E940E25C817D90711F00C94772152
:10022000BF91AF91BF91AF91FF91EF91DF91CF91CE
:100230007F916F915F914F913F912F911F910F91FE
:10024000FF90EF90DF90CF90BF90AF909F908F90F6
:100250007F906F905F904F903F902F901F900F90E6
:100260008F918F778FBF9F918F911895DF93CF9349
:1002700000D000D000D0CDB7DEB710925714109246
:10028000561410925914109258141092831410920C
:1002900082141092851410928414109253141092A8
:1002A0005214109255141092541410925F1410921C
:1002B0005E14109261141092601410925B141092EC
:1002C0005A1410925D1410925C14109289141092BA
:1002D000881410928B1410928A1410928714109222
:1002E00086141A8219821DC089819A81880F991FEC
:1002F000880F991F8E599B4EFC01118210828981B3
:100300009A81880F991F880F991F8C599B4E2FEF48
:100310003FEFFC013183208389819A8101969A8382
:10032000898389819A8188309105F4F28FE091E187
:100330009093631480936214109265141092641465
:100340008FE091E160E070E045E650E00E94E21746
:1003500083E080931C1186E391E090931A118093BF
:10036000191182E090E090931E1180931D1187E196
:1003700091E09093751180937411109277111092FF
:10038000761184E791E190937311809372118FE05D
:1003900091E126E534E1B9010E949F1A8FE091E1D5
:1003A0000E948E25CE0103969E012B5F3F4FB9011F
:1003B0000E94FA238B819C812D813E81B9010E948C
:1003C0000C1C80EF97E9009711F00E94F0978CE2E7
:1003D00097E1009711F00E942C1782E39EEC0097A2
:1003E00011F00E9432CE8EEE91E1009711F00E9442
:1003F000EE110E94C0460E94712580911D119091BE
:100400001E11282F8FE091E1622F0E9452028FE08F
:1004100091E10E94B1028FE091E10E9494028091EB
:1004200013119091141121E0FC0120830E944D02D0
:100430000E94271C009721F40E9448030E942C1C54
:100440000E947025F5CF0F931F93DF93CF9300D0B9
:10045000CDB7DEB781E291E02AE03FE264E670E0EA
:1004600040E053E000E010E00E9421049A83898379
:1004700089819A811816190634F086E291E06DE1BF
:1004800071E00E9462240F900F90CF91DF911F9135
:100490000F9108950E94230208950E944A0280E06D
:1004A00090E00895DF93CF93CDB7DEB727970FB6CF
:1004B000F894DEBF0FBECDBF9E838D836F8388E629
:1004C00090E00E94571C9A83898389819A810097C2
:1004D00019F484EF9FEF1FC08D819E8129813A819D
:1004E000FC013583248389819A810E94FF0C9C83BF
:1004F0008B838B819C81992364F489819A810E94EA
:10050000311C8D819E81FC01158214828B819C811E
:1005100002C080E090E027960FB6F894DEBF0FBED1
:10052000CDBFCF91DF910895DF93CF9300D000D05E
:10053000CDB7DEB79C838B838B819C81FC0184814A
:1005400095819A83898389819A8121E0FC012183A5
:1005500080E090E00F900F900F900F90CF91DF917F
:100560000895DF93CF9300D000D000D0CDB7DEB791
:100570009E838D838D819E81FC01848195819A83E8
:10058000898389819A810A960E943A4700D000D0D7
:100590008DB79EB7019627E631E0FC0131832083B9
:1005A00023E030E0FC01338322830E94174D0F903B
:1005B0000F900F900F909C838B838B819C81009771
:1005C00089F480E090E061E070E00E944C4C80E0B3
:1005D00090E062E070E00E944C4C8D819E810E9410
:1005E0006D0D0BC08B819C811816190624F48B812C
:1005F0009C810E94124C89EE9FEF26960FB6F894CC
:10060000DEBF0FBECDBFCF91DF9108951F93DF9363
:10061000CF930F92CDB7DEB71FB7F89419838981B6
:100620000F90CF91DF911F910895DF93CF930F9299
:10063000CDB7DEB7898389818FBF0F90CF91DF91CE
:100640000895DF93CF9300D00F92CDB7DEB714C0DB
:100650000E940603898388E894E10E941A1A9B830A
:100660008A8389810E9415038A819B81009721F0EA
:100670008A819B810E94311C8091881490918914F9
:10068000009731F70F900F900F90CF91DF91089561
:100690000E9421030895EF92FF920F931F93DF931F
:1006A000CF93CDB7DEB763970FB6F894DEBF0FBE1A
:1006B000CDBF9A8789876B875D874C873F872E8759
:1006C000198B088BFB8AEA8A85E690E00E94571C0A
:1006D0009C838B838B819C81009729F48CE090E034
:1006E0009A83898398C08B819C816B850E9452027A
:1006F0009E838D838D819E81992344F48D819E817B
:10070000909581959F4F9A83898380C08B819C812E
:100710000E940D0E9E838D838D819E81992344F4CA
:100720008D819E81909581959F4F9A8389836EC01C
:100730008B819C812E853F85B9014B850E94A42425
:100740009E838D838D819E81992344F48D819E812A
:10075000909581959F4F9A83898358C08B819C8106
:100760006C857D8547E157E0288939890B850E9492
:100770008D069E838D838D819E81992344F48D8186
:100780009E81909581959F4F9A8389833FC08B81ED
:100790009C8149855A852A893B89BA01A9010E9411
:1007A000C5068B819C810E9494029E838D838D81DE
:1007B0009E81992344F48D819E81909581959F4FD0
:1007C0009A83898323C08B819C81FC0186819781D8
:1007D00098878F838B819C810E94FD069E838D83E9
:1007E0008D819E8199237CF40E948007FC01808189
:1007F00091819A8389838B819C812AE534E1B901B7
:100800000E94E61A03C08F8198850EC08B819C815F
:100810006B850E94DF0E0E94800729813A81FC01CE
:10082000318320838FEF9FEF63960FB6F894DEBF7E
:100830000FBECDBFCF91DF911F910F91FF90EF9031
:100840000895EF92FF920F931F93DF93CF93CDB74D
:10085000DEB72A970FB6F894DEBF0FBECDBF9A83DE
:1008600089837C836B835E834D8338872F831A87CC
:10087000098789819A814B815C812D813E81AF817D
:10088000B885E985FA8560E08D017F010E944B0300
:100890002A960FB6F894DEBF0FBECDBFCF91DF9181
:1008A0001F910F91FF90EF900895EF92FF920F9399
:1008B0001F93DF93CF93CDB7DEB72A970FB6F89487
:1008C000DEBF0FBECDBF9A8389837C836B835E833B
:1008D0004D8338872F831A87098789819A814B81B5
:1008E0005C812D813E81AF81B885E985FA8562E022
:1008F0008D017F010E944B032A960FB6F894DEBF4C
:100900000FBECDBFCF91DF911F910F91FF90EF9060
:100910000895DF93CF93CDB7DEB728970FB6F8943D
:10092000DEBF0FBECDBF98878F830E941B0F1C8236
:100930001B825CC0809186149091871401969093DD
:1009400087148093861480918614909187149A83DB
:10095000898389819A811816190654F081E090E004
:10096000909387148093861481E090E09A83898322
:1009700089819A81877090709E838D838D819E81FD
:10098000880F991F880F991F8E599B4EFC018081FB
:100990009181009731F58D819E81880F991F880F75
:1009A000991F8E599B4E2F813885FC0131832083FE
:1009B0008D819E81880F991F880F991F8C599B4E9E
:1009C00029813A81FC01318320838F819885298197
:1009D0003A81FC01378326830E946B0F80E090E010
:1009E0000FC08B819C8101969C838B838B819C8122
:1009F000883091050CF49ECF0E946B0F8FEF9FEF14
:100A000028960FB6F894DEBF0FBECDBFCF91DF9111
:100A100008950F93DF93CF93CDB7DEB72B970FB623
:100A2000F894DEBF0FBECDBF9C838B837E836D8326
:100A300058874F833A8729870B878B819C810E9437
:100A400089049A83898389819A81009709F055C026
:100A50002D818B819C81FC0124878B819C812F813E
:100A60003885FC013187208729853A858B819C81D7
:100A7000FC01338722878B8583708B878B819C81D8
:100A8000FC01868597859C012C7F8B819C81FC01D4
:100A9000378726878B819C81FC01268537858B854E
:100AA000882F90E0282B392B8B819C81FC01378784
:100AB00026878B819C819C01225E3F4F83E090E0E2
:100AC00060E070E0A9010E94BF078B819C81FC015E
:100AD00015868B819C810E948E250E941B0F8B8125
:100AE0009C812AE534E1B9010E949F1A8B819C8187
:100AF00024E0FC0125870E946B0F89819A812B9647
:100B00000FB6F894DEBF0FBECDBFCF91DF910F912E
:100B10000895DF93CF93CDB7DEB764970FB6F894FF
:100B2000DEBF0FBECDBF9A8B898B7C8B6B8B84E72E
:100B300091E09A87898789859A850E945018019645
:100B40009C838B831E821D828B899C89009709F46C
:100B50003EC030C08D819E81880F991F2B893C89B2
:100B6000820F931FFC01808191810E9450189C018B
:100B70008B819C81820F931F01969C838B83898933
:100B80009A89FC01268937898B819C81821793077A
:100B900018F08CED9FEFB8C08D819E8101969E83E9
:100BA0008D838D819E81F1E081309F071CF089EF5C
:100BB0009FEFAAC08D819E81880F991F2B893C8948
:100BC000820F931FFC0180819181009719F68D811E
:100BD0009E810296880F991F9C878B8789899A89A5
:100BE0004B855C852B813C81240F351FB9010E9408
:100BF0001C289E878D878D859E85009719F484EF2C
:100C00009FEF82C02D853E858B859C85820F931F2B
:100C10009A8389838D859E8529813A81FC01318360
:100C2000208389859A850E9450180196988B8F871A
:100C300089819A8129853A85B9010E9419188F8581
:100C4000988929813A81820F931F9A838983188614
:100C50001F823BC08F8198850196880F991F2D8533
:100C60003E85820F931F29813A81FC0131832083C5
:100C70008F819885880F991F2B893C89820F931F3C
:100C8000FC01808191810E9450180196988B8F877A
:100C90008F819885880F991F2B893C89820F931F1C
:100CA000FC012081318189819A81B9010E94191842
:100CB0008F85988929813A81820F931F9A8389832E
:100CC0008F819885019698878F832F8138858D81B4
:100CD0009E81281739070CF4BDCF8D819E81019626
:100CE000880F991F2D853E85820F931FFC0111826D
:100CF000108289899A898D599F4F2D853E85FC01E7
:100D00003183208380E090E064960FB6F894DEBFD4
:100D10000FBECDBFCF91DF9108950F93DF93CF9397
:100D2000CDB7DEB72B970FB6F894DEBF0FBECDBFA1
:100D30009C838B837E836D8358874F833A87298773
:100D40000B878B819C816D817E814F8158852985A0
:100D50003A850B850E9409059A83898389819A8146
:100D6000009739F42D818B819C818E599F4FFC0116
:100D7000208389819A812B960FB6F894DEBF0FBE2F
:100D8000CDBFCF91DF910F910895DF93CF9300D026
:100D900000D000D0CDB7DEB79A8389837C836B8384
:100DA0005E834D8389819A812D813E81B9010E94A4
:100DB000890526960FB6F894DEBF0FBECDBFCF9142
:100DC000DF9108951F93DF93CF930F92CDB7DEB7D6
:100DD0001FB7F894198389810F90CF91DF911F91EC
:100DE0000895DF93CF930F92CDB7DEB789838981C2
:100DF0008FBF0F90CF91DF910895DF93CF9300D0F5
:100E00000F92CDB7DEB79B838A830E94E206898367
:100E10008A819B810E94802889810E94F10680E05E
:100E200090E00F900F900F90CF91DF910895DF9396
:100E3000CF9300D000D000D0CDB7DEB7809156144C
:100E4000909157149C838B8381E090E09A838983EF
:100E50000FC089819A8101969A83898389819A81B9
:100E600021E08130920724F081E090E00E94610748
:100E70008B819C818D599F4FFC012081318189811B
:100E80009A81880F991F820F931FFC0180819181A5
:100E90000097F9F68B819C81FC01228533858B813B
:100EA0009C818D599F4FFC014081518189819A819C
:100EB000BA01F90109959E838D838D819E810E94DF
:100EC0006107DF93CF9300D000D0CDB7DEB79C830E
:100ED0008B8380915614909157149A8389838B81C8
:100EE0009C8190709C838B8389819A812B813C812A
:100EF000B90140E00E9402108B819C810E9459251B
:100F0000DF93CF9300D0CDB7DEB70E94DE258823D4
:100F1000A1F480915614909157149A838983898102
:100F20009A81009751F089819A81FC0185858330EF
:100F300021F489819A81C69602C088E791E10F90D9
:100F40000F90CF91DF9108951F93DF93CF930F926E
:100F5000CDB7DEB71FB7F894198389810F90CF9171
:100F6000DF911F910895DF93CF930F92CDB7DEB736
:100F7000898389818FBF0F90CF91DF910895DF938F
:100F8000CF93CDB7DEB72F970FB6F894DEBF0FBE65
:100F9000CDBF9B878A877D876C875F874E878091CF
:100FA0005614909157149C838B831A8219820E9445
:100FB0001B0F8B819C81FC01868D978DA0A1B1A117
:100FC0008D839E83AF83B8878E859F85009759F068
:100FD0002E853F858D819E81AF81B885F901808303
:100FE0009183A283B3838C859D85009709F460C0AB
:100FF0000E94A40789878A859B858230910509F123
:1010000083309105E1F18130910509F047C08B8172
:101010009C81FC01268D378D40A151A18C859D8539
:10102000FC0180819181A281B381822B932BA42B1F
:10103000B52B2B813C81F901868F978FA0A3B1A39B
:1010400032C08B819C81FC01268D378D40A151A13E
:101050008C859D85FC0180819181A281B3818095E1
:101060009095A095B09582239323A423B5232B813B
:101070003C81F901868F978FA0A3B1A314C08C8502
:101080009D85FC0180819181A281B3812B813C816E
:10109000F901868F978FA0A3B1A305C08FEF9FEFB3
:1010A0009A838983000089850E94B3070E9465089E
:1010B0000E946B0F89819A812F960FB6F894DEBF3C
:1010C0000FBECDBFCF91DF910895EF92FF920F93A6
:1010D0001F93DF93CF93CDB7DEB72A970FB6F8945F
:1010E000DEBF0FBECDBF80915614909157149A83E6
:1010F00089830E941B0F89819A81FC01868D978DBF
:10110000A0A1B1A17C018D01E094F094009510950F
:1011100089819A810E94C612DC01CB018E219F2118
:10112000A023B1238F839887A987BA872EC0CE01C9
:1011300007960E94B3099C838B838B819C81FFEF70
:101140008F3F9F0711F1CE0107962B813C81B9019A
:101150000E94FA1889819A812B813C81B9010E94F1
:10116000F7089E838D838D819E81009771F08D811C
:101170009E819C012E5F3F4F89819A81B9010E9417
:10118000510B8D819E810E9473098F819885A9855D
:10119000BA850097A105B10551F60E946B0F2A96FA
:1011A0000FB6F894DEBF0FBECDBFCF91DF911F9178
:1011B0000F91FF90EF9008951F93DF93CF930F92BD
:1011C000CDB7DEB71FB7F894198389810F90CF91FF
:1011D000DF911F910895DF93CF930F92CDB7DEB7C4
:1011E000898389818FBF0F90CF91DF910895DF931D
:1011F000CF93CDB7DEB72B970FB6F894DEBF0FBEF7
:10120000CDBF998788877B876A8788859985FC0108
:10121000848195819E838D830E94DC088F831C824C
:101220001B828D819E81FC01828193819A838983B7
:101230000BC089819A819C838B8389819A81FC016F
:10124000808191819A83898389819A81009759F05D
:1012500089819A81FC018281282F30E08A859B85D3
:101260002817390731F789819A81009799F08B8186
:101270009C81009751F08B819C812D813E812E5F56
:101280003F4FB9010E94511A05C08D819E8102967F
:101290000E941A1A8F810E94EB0889819A812B96ED
:1012A0000FB6F894DEBF0FBECDBFCF91DF9108958A
:1012B0001F93DF93CF930F92CDB7DEB71FB7F8948C
:1012C000198389810F90CF91DF911F910895DF934A
:1012D000CF930F92CDB7DEB7898389818FBF0F90EF
:1012E000CF91DF910895DF93CF9300D00F92CDB7C8
:1012F000DEB79B838A838A819B81FC018681882358
:1013000071F40E94580989838A819B812CE934E118
:10131000B9010E94701989810E9467091EC08A81E3
:101320009B81FC018681823071F40E945809898377
:101330008A819B8128E934E1B9010E947019898171
:101340000E9467090AC08A819B81FC0186818130E5
:1013500021F48A819B810E944B0E0F900F900F9079
:10136000CF91DF910895DF93CF9300D000D0CDB718
:10137000DEB79C838B831A82198211C08B819C817A
:1013800029813A81B9010E943E19009719F089819B
:101390009A810CC089819A8101969A838983898177
:1013A0009A818032910554F38FEF9FEF0F900F9049
:1013B0000F900F90CF91DF9108951F93DF93CF93FC
:1013C0000F92CDB7DEB71FB7F894198389810F90BC
:1013D000CF91DF911F910895DF93CF930F92CDB7F7
:1013E000DEB7898389818FBF0F90CF91DF910895F8
:1013F000DF93CF93CDB7DEB72B970FB6F894DEBF50
:101400000FBECDBF998788877B876A871A8219822A
:101410000E941B0F8A859B85FC018081282F30E06C
:1014200088859985B9010E9410139C838B838B81D9
:101430009C81009709F446C08B819C81FC018281CC
:101440009381009709F43EC00E9469139E838D83A7
:101450008D819E81009729F484EF9FEF9A83898381
:1014600031C08B819C81FC01228133818D819E81E1
:10147000FC01338322838B819C81FC0184819581D3
:10148000A681B7812D813E81F90184839583A6834E
:10149000B7838D819E8108962A853B85B90144E0FA
:1014A00050E00E9477180E94DD098F838D819E8114
:1014B00028853985265D3F4FB9010E9470198F81BB
:1014C0000E94EC090E946B0F89819A812B960FB6BE
:1014D000F894DEBF0FBECDBFCF91DF910895DF93AB
:1014E000CF9300D00F92CDB7DEB70E94DE258823C0
:1014F00089F08CE994E10E941A1A9A838983898180
:101500009A81009751F588E994E10E941A1A9A830A
:10151000898323C00E94DD098B838CE994E10E94BA
:101520001A1A9A8389838B810E94EC0989819A8196
:10153000009799F489819A81009731F487E090E0CF
:101540000E94441C9A83898389819A81009729F09B
:1015500089819A8121E0FC01268389819A810F90FB
:101560000F900F90CF91DF910895DF93CF93CDB778
:10157000DEB727970FB6F894DEBF0FBECDBF9D83B1
:101580008C837F836E831A8219820E94DD098B838C
:101590008C819D81FC01828193819A83898307C01C
:1015A00089819A81FC01808191819A8389838981D3
:1015B0009A81009759F089819A81FC018281282FB4
:1015C00030E08E819F812817390751F78B810E9467
:1015D000EC0989819A8127960FB6F894DEBF0FBE79
:1015E000CDBFCF91DF910895DF93CF93CDB7DEB715
:1015F00029970FB6F894DEBF0FBECDBF9F838E83B1
:10160000798768878E819F81FC01848195819C8385
:101610008B8388859985FC018081282F30E08B8120
:101620009C81B9010E94B50A9A83898389819A8134
:10163000009759F089819A81029628853985B901E8
:1016400044E050E00E94771821C00E946F0A9A83FC
:10165000898389819A810097C9F089819A8102964C
:1016600028853985B90144E050E00E9477180E942E
:10167000DD098D8389819A812B813C812E5F3F4FCB
:10168000B9010E9470198D810E94EC0989819A81AB
:1016900029960FB6F894DEBF0FBECDBFCF91DF9174
:1016A0000895DF93CF93CDB7DEB727970FB6F894A1
:1016B000DEBF0FBECDBF9D838C837F836E831A8276
:1016C00019828C819D814E962E813F81F901208166
:1016D000222F30E0B9010E943E19009709F443C05F
:1016E0000E94DD098B838C819D81FC01858586307C
:1016F00039F58C819D8182962E813F81F90120816F
:10170000222F30E0B9010E943E190097C9F08C8168
:101710009D81C2962E813F81B90144E050E00E9434
:1017200077188C819D81FC0112A213A214A215A22C
:101730008C819D810E9480288B810E94EC0950C081
:101740008B810E94EC098C819D812E813F81B901A2
:101750000E94F40A009709F043C08DE791E060E62B
:1017600071E00E9462248C819D812E813F81B901AC
:101770000E94F8099A8389838C819D812EE33CE045
:10178000B9010E94C3260E94DD098B838C819D8153
:10179000FC0185858630A9F48C819D81C2962E81BD
:1017A0003F81B90144E050E00E9477188C819D810F
:1017B000FC0112A213A214A215A28C819D810E9489
:1017C00080288B810E94EC098C819D81FC0185859C
:1017D000853031F48C819D8164E070E00E940911B4
:1017E00089819A8127960FB6F894DEBF0FBECDBFD0
:1017F000CF91DF910895DF93CF9300D000D000D038
:10180000CDB7DEB79C838B837E836D838B819C8178
:101810000E94750E9A83898389819A81009719F4B1
:101820008DEF9FEF07C089819A812D813E81B9019B
:101830000E94510B26960FB6F894DEBF0FBECDBFA7
:10184000CF91DF9108951F93DF93CF930F92CDB780
:10185000DEB71FB7F894198389810F90CF91DF917C
:101860001F910895DF93CF930F92CDB7DEB7898391
:1018700089818FBF0F90CF91DF910895DF93CF9330
:10188000CDB7DEB72D970FB6F894DEBF0FBECDBF34
:101890009D878C870E941B0F8C859D85FC0186A9E6
:1018A00097A99C838B838C859D85FC0182A593A53C
:1018B0009A8389838DC089819A81FC01808191817D
:1018C0009E838D830E94230C8F8389819A812C852E
:1018D0003D85265D3F4FB9010E94AD1989819A81EE
:1018E0002C853D85225D3F4FB9010E9470198F8183
:1018F0000E94320C8C859D85FC01868D978DA0A160
:10190000B1A188879987AA87BB8789819A81FC01C1
:10191000248135814681578188859985AA85BB8533
:10192000282B392B4A2B5B2B89819A81FC018085DE
:10193000682F70E081E090E0A0E0B0E004C0880F84
:10194000991FAA1FBB1F6A95D2F7822B932BA42B3A
:10195000B52B2C853D85F901868F978FA0A3B1A368
:1019600089819A81FC012281338189819A81FC01DC
:101970008085882F90E049815A81485F5F4FBA0186
:1019800040E050E0F90109952C853D8588859985D1
:10199000AA85BB85F901868F978FA0A3B1A30E946A
:1019A00065080E94230C8F8389819A812C853D854F
:1019B000225D3F4FB9010E94AD198F810E94320C08
:1019C00089819A810E94CA138D819E819A8389831D
:1019D00089819A81009709F06ECF8C859D852B8136
:1019E0003C81FC0137AB26AB0E946B0F2D960FB6E6
:1019F000F894DEBF0FBECDBFCF91DF910895DF9386
:101A0000CF93CDB7DEB72A970FB6F894DEBF0FBEDF
:101A1000CDBF9A87898780915614909157149C83E3
:101A20008B831E821D821A8219820E941B0F8B815A
:101A30009C81FC0184819581009709F441C08B81D0
:101A40009C81FC0184819581FC01808591850097B2
:101A5000B9F18B819C81FC0184819581FC01868197
:101A6000978198878F838F8198850E94441C9E83DD
:101A70008D838D819E81009729F484EF9FEF9A8357
:101A800089831EC089859A852F813885FC0137831B
:101A9000268389859A852D813E81FC0131872087A7
:101AA0008B819C81FC0184819581FC01408551855D
:101AB0008D819E812F813885BA01A9010E947718F6
:101AC0000E946B0F89819A812A960FB6F894DEBF27
:101AD0000FBECDBFCF91DF910895DF93CF9300D09C
:101AE000CDB7DEB79A83898389819A81FC0184818D
:101AF00095810E943B1B29813A8180E090E061E062
:101B000070E0A9010E94035129813A8181E090E0AF
:101B100066E070E0A9010E94035129813A8182E0C8
:101B200090E066E070E0A9010E94035180E090E03F
:101B30000F900F90CF91DF910895DF93CF93CDB7A2
:101B4000DEB72A970FB6F894DEBF0FBECDBF9A87D7
:101B5000898780915614909157149C838B838B8135
:101B60009C81FC01848195810C969E838D8389855F
:101B70009A85FC01848195810C9698878F831A82BF
:101B800019823CC089819A81880F991F9C01220F7C
:101B9000331F220F331F820F931F2D813E81820F2F
:101BA000931FFC0186819781009719F189819A81A1
:101BB000880F991F9C01220F331F220F331F820FA2
:101BC000931F2D813E81A901480F591F89819A8158
:101BD000880F991F9C01220F331F220F331F820F82
:101BE000931F2F813885280F391FCA01B9010E9420
:101BF000824789819A8101969A83898389819A8112
:101C0000863091050CF4BECF2A960FB6F894DEBF4D
:101C10000FBECDBFCF91DF910895DF93CF9300D05A
:101C200000D0CDB7DEB79C838B838B819C81FC0178
:101C3000848195819A83898389819A810A960E94F9
:101C40003A478B819C810E949D0D8B819C810E94D3
:101C50006D0D0F900F900F900F90CF91DF91089521
:101C60001F93DF93CF930F92CDB7DEB71FB7F894D2
:101C7000198389810F90CF91DF911F910895DF9390
:101C8000CF930F92CDB7DEB7898389818FBF0F9035
:101C9000CF91DF910895DF93CF9300D00F92CDB70E
:101CA000DEB79B838A830E94DE25882321F40E946D
:101CB000271C009771F00E94300E89838A819B81D6
:101CC00028E834E1B9010E94701989810E943F0E11
:101CD00006C08A819B810E94311C0E942C1C0F909F
:101CE0000F900F90CF91DF910895DF93CF9300D0A5
:101CF00000D000D0CDB7DEB79E838D831A821982C3
:101D00008D819E8199231CF18D819E8187709070B9
:101D10009C838B838B819C81880F991F880F991FCF
:101D20008C599B4EFC01208131818D819E81281729
:101D3000390769F48B819C81880F991F880F991F3F
:101D40008E599B4EFC01808191819A838983898180
:101D50009A8126960FB6F894DEBF0FBECDBFCF9105
:101D6000DF910895DF93CF9300D000D0CDB7DEB7D9
:101D70009C838B838B819C81877090709A838983ED
:101D800089819A81880F991F880F991F8E599B4EC0
:101D9000FC011182108289819A81880F991F880F16
:101DA000991F8C599B4E2FEF3FEFFC01318320830D
:101DB0000F900F900F900F90CF91DF910895DF93C8
:101DC000CF9300D000D00F92CDB7DEB79C838B832A
:101DD0006D831A8219828B819C81009711F18B810E
:101DE0009C81FC0186819781009739F08B819C81D1
:101DF000FC01868197810E94B20E8B819C81FC013F
:101E0000808D918D009729F08B819C816D810E943E
:101E100081268B819C810E949E148B819C810E94D3
:101E20004B0E89819A810F900F900F900F900F9019
:101E3000CF91DF910895DF93CF9300D0CDB7DEB778
:101E400080915614909157149A83898389819A813D
:101E50000097F9F00E94DE258823D9F489819A81C0
:101E6000FC01808991898F37910534F082EC91E0F3
:101E700069E670E00E94622489819A81FC01808970
:101E800091899C012F5F3F4F89819A81FC01318BA1
:101E9000208B80E090E00F900F90CF91DF9108951C
:101EA0001F93DF93CF930F92CDB7DEB71FB7F89490
:101EB000198389810F90CF91DF911F910895DF934E
:101EC000CF930F92CDB7DEB7898389818FBF0F90F3
:101ED000CF91DF910895DF93CF9300D00F92CDB7CC
:101EE000DEB780915614909157149A838983898123
:101EF0009A81009709F455C00E94DE25882309F0D5
:101F000050C00E94500F8B8389819A81FC01808987
:101F10009189009769F089819A81FC018089918972
:101F20009C012150304089819A81FC01318B208BAA
:101F300089819A81FC01808991891816190674F1AA
:101F400089819A81FC01118A108A80918214909172
:101F50008314009711F00E943C2689819A81FC012C
:101F600086859785807190700097C1F089819A81EC
:101F7000FC0182899389009789F48091561490918D
:101F800057149C0189819A812817390739F0898172
:101F90009A8124E130E0FC01338B228B8B810E94FB
:101FA0005F0F80E090E00F900F900F90CF91DF9146
:101FB0000895DF93CF9300D000D0CDB7DEB79C83D8
:101FC0008B838B819C81FC01848195819A83898399
:101FD00089819A81009779F089819A81FC018181B8
:101FE000813049F48B819C81FC0184819581885BDF
:101FF0009F4F0E946D170F900F900F900F90CF91F1
:10200000DF910895DF93CF9300D000D00F92CDB72A
:10201000DEB79A8389837C836B834D8389819A8120
:10202000FC018685978580729070009701F5898103
:102030009A810E9440108D81882321F489819A81A0
:102040000E94D90F89819A810E949E1489819A8168
:102050000E940A1489819A81FC01868597859C01DA
:10206000206289819A81FC013787268701C00000A0
:102070000F900F900F900F900F90CF91DF910895D8
:10208000DF93CF9300D0CDB7DEB79A838983898160
:102090009A810E946F1089819A810E94B8100F90D6
:1020A0000F90CF91DF9108951F93DF93CF930F92FD
:1020B000CDB7DEB71FB7F894198389810F90CF9100
:1020C000DF911F910895DF93CF930F92CDB7DEB7C5
:1020D000898389818FBF0F90CF91DF910895DF931E
:1020E000CF9300D00F92CDB7DEB79B838A830E9437
:1020F000541089838A819B81FC018489958900978A
:1021000099F08A819B81FC01848995890E94ED1454
:102110008A819B81FC01848995890E94A1158A810D
:102120009B81FC01158A148A89810E9463100F909B
:102130000F900F90CF91DF9108951F93DF93CF936E
:102140000F92CDB7DEB71FB7F894198389810F902E
:10215000CF91DF911F910895DF93CF930F92CDB769
:10216000DEB7898389818FBF0F90CF91DF9108956A
:10217000DF93CF9300D000D00F92CDB7DEB79D8311
:102180008C830E949D1089838C819D81FC018585B3
:102190008530C9F48C819D81FC01848D958D9B8354
:1021A0008A838A819B81FC01808191819C012F5FC0
:1021B0003F4F8A819B81FC01318320838C819D81EB
:1021C000FC01158E148E89810E94AC100F900F9027
:1021D0000F900F900F90CF91DF9108951F93DF9391
:1021E000CF930F92CDB7DEB71FB7F89419838981CB
:1021F0000F90CF91DF911F910895DF93CF930F92AE
:10220000CDB7DEB7898389818FBF0F90CF91DF91E2
:102210000895DF93CF93CDB7DEB727970FB6F89425
:10222000DEBF0FBECDBF9D838C837F836E830E94F4
:10223000EE1089838C819D81FC018585853021F597
:102240008C819D81FC01848D958D9B838A838A81FD
:102250009B81FC01808191819C012F5F3F4F8A818E
:102260009B81FC01318320838C819D81FC01158E33
:10227000148E8C819D812E813F81FC0137AB26AB72
:102280008C819D810E94802889810E94FD10279663
:102290000FB6F894DEBF0FBECDBFCF91DF9108958A
:1022A000DF93CF93CDB7DEB72B970FB6F894DEBF91
:1022B0000FBECDBF98878F837A8769874B87298523
:1022C0003A85C901880F991F820F931F880F991FA4
:1022D000880F991F820F931F0E94441C9E838D8339
:1022E0008D819E819A8389831C821B8217C089817C
:1022F0009A812B85FC01248789819A8129813A81E1
:10230000235F3F4F3A8329832F813885B9010E948B
:1023100070198B819C8101969C838B832B813C81DE
:1023200089859A852817390710F38D819E812B9610
:102330000FB6F894DEBF0FBECDBFCF91DF910895E9
:10234000DF93CF93CDB7DEB72B970FB6F894DEBFF0
:102350000FBECDBF98878F837A8769874B87298582
:102360003A85C901880F991F880F991F880F991FF7
:10237000821B930B0E94441C9E838D838D819E81C2
:102380009A8389831C821B8217C089819A812B853D
:10239000FC01268389819A8129813A81295F3F4FF7
:1023A0003A8329832F813885B9010E9470198B8166
:1023B0009C8101969C838B832B813C8189859A85A6
:1023C0002817390710F38D819E812B960FB6F8944C
:1023D000DEBF0FBECDBFCF91DF91089510928D1457
:1023E00010928C1410928F1410928E1410929114DB
:1023F00010929014109293141092921410929514BB
:1024000010929414109297141092961410929D1496
:1024100010929C1410929F1410929E141092991472
:102420001092981410929B1410929A1480E994E1DF
:1024300060E170E040E00E94501190937D11809324
:102440007C1184E994E168E070E042E00E94501160
:1024500090937F1180937E110E9445128CE994E144
:1024600060E170E040E00E94A011909381118093A0
:10247000801188E994E168E070E042E00E94A011D8
:1024800090938311809382110895DF93CF9300D0AE
:1024900000D0CDB7DEB780EB90E00E94441C909353
:1024A0007B1180937A1180917A1190917B119A839C
:1024B00089831C821B8212C089819A8129813A8179
:1024C000255F3F4F3A8329832CE834E1B9010E940C
:1024D00070198B819C8101969C838B838B819C815D
:1024E000803191054CF30F900F900F900F90CF918A
:1024F000DF9108951F93DF93CF930F92CDB7DEB78F
:102500001FB7F894198389810F90CF91DF911F91A4
:102510000895DF93CF930F92CDB7DEB7898389817A
:102520008FBF0F90CF91DF910895DF93CF9300D0AD
:1025300000D000D0CDB7DEB79E838D838091561436
:10254000909157149C838B838FEF9FEF9A8389839D
:102550008D819E81009779F08B819C810E94C612AB
:10256000DC01CB012D813E81F90180839183A2831F
:10257000B3831A82198289819A8126960FB6F894BC
:10258000DEBF0FBECDBFCF91DF910895DF93CF9314
:10259000CDB7DEB72B970FB6F894DEBF0FBECDBF19
:1025A0009B878A878A859B85FC01848195819C8392
:1025B0008B831E821F82188619860E947A128D8351
:1025C0008B819C81FC01828193819A83898312C0D3
:1025D00089819A81FC018281282F30E0CE01069604
:1025E000B9010E94BA1889819A81FC018081918188
:1025F0009A83898389819A81009751F78D810E94FE
:1026000089128E819F81A885B985BC01CD012B9649
:102610000FB6F894DEBF0FBECDBFCF91DF91089506
:10262000DF93CF9300D000D000D0CDB7DEB79C832E
:102630008B837E836D831A8219828B819C810097A4
:1026400011F10E941B0F8B819C81FC0186A197A137
:102650009A83898307C089819A81FC018081918155
:102660009A83898389819A81009759F089819A8117
:10267000FC018285282F30E08D819E812817390743
:1026800051F70E946B0F89819A8126960FB6F894B4
:10269000DEBF0FBECDBFCF91DF9108951F93DF93B3
:1026A000CF930F92CDB7DEB71FB7F8941983898106
:1026B0000F90CF91DF911F910895DF93CF930F92E9
:1026C000CDB7DEB7898389818FBF0F90CF91DF911E
:1026D0000895DF93CF9300D00F92CDB7DEB70E945D
:1026E000DE25882389F080E994E10E941A1A9A83F2
:1026F000898389819A81009751F584E994E10E9448
:102700001A1A9A83898323C00E944E138B8380E90F
:1027100094E10E941A1A9A8389838B810E945D1327
:1027200089819A81009799F489819A81009731F47F
:102730008DE090E00E94441C9A83898389819A816C
:10274000009729F089819A8121E0FC012487898101
:102750009A810F900F900F90CF91DF9108951F9362
:10276000DF93CF930F92CDB7DEB71FB7F8941983DD
:1027700089810F90CF91DF911F910895DF93CF93BF
:102780000F92CDB7DEB7898389818FBF0F90CF912C
:10279000DF910895DF93CF9300D00F92CDB7DEB7CE
:1027A0009B838A838A819B81FC018485882371F4C1
:1027B0000E94AF1389838A819B8120E934E1B901AA
:1027C0000E94701989810E94BE131EC08A819B815C
:1027D000FC018485823071F40E94AF1389838A8161
:1027E0009B8124E934E1B9010E94701989810E941A
:1027F000BE130AC08A819B81FC018485813021F44B
:102800008A819B810E944B0E0F900F900F90CF9169
:10281000DF910895DF93CF9300D000D000D0CDB7E3
:10282000DEB79E838D8304C089819A810E94F5164C
:102830008D819E8186960E941A1A9A838983898146
:102840009A81009789F704C08B819C810E94CA13EA
:102850008D819E818A960E941A1A9C838B838B811C
:102860009C81009789F704C08B819C810E94CA13C8
:102870008D819E818E960E941A1A9C838B838B81F8
:102880009C81009789F72D813E818FEF9FEFAFEFFD
:10289000BFEFF901868F978FA0A3B1A38D819E8191
:1028A000FC0112A213A214A215A226960FB6F89448
:1028B000DEBF0FBECDBFCF91DF910895DF93CF93E1
:1028C00000D000D0CDB7DEB79C838B8304C0898154
:1028D0009A810E9473098B819C8102960E941A1A28
:1028E0009A83898389819A81009789F70F900F9045
:1028F0000F900F90CF91DF910895DF93CF9300D089
:10290000CDB7DEB79A83898389819A810E945E144C
:1029100089819A810A960E944E4789819A810E94F4
:10292000911B89819A810E94081789819A810E944E
:102930004B0E0F900F90CF91DF910895DF93CF93BF
:1029400000D000D0CDB7DEB79C838B838B819C8178
:10295000FC01848195819A83898389819A8100977A
:10296000D1F089819A81FC018181823058F089817E
:102970009A81FC018181282F215089819A81FC0153
:10298000218304C089819A810E947D148B819C815E
:10299000FC01158214820F900F900F900F90CF9131
:1029A000DF9108951F93DF93CF930F92CDB7DEB7DA
:1029B0001FB7F894198389810F90CF91DF911F91F0
:1029C0000895DF93CF930F92CDB7DEB789838981C6
:1029D0008FBF0F90CF91DF910895DF93CF93CDB745
:1029E000DEB729970FB6F894DEBF0FBECDBF99872B
:1029F00088878FEF9FEF9E838D830E94D2148F83F1
:102A000088859985009709F473C088859985FC01AC
:102A10008681882F90E081709070882309F468C0C7
:102A20001C821B828091A6149091A7149A8389839B
:102A30000BC089819A819C838B8389819A81FC0157
:102A4000808191819A83898389819A81009739F065
:102A500029813A81888599852817390751F7898115
:102A60009A81009731F484E092E061E870E00E947E
:102A7000622489819A81FC01808191810097B9F05B
:102A800089819A81FC018081918129813A81F901B2
:102A900020813181F9014481558129813A81F901EF
:102AA00024813581240F351FFC01358324838B81DC
:102AB0009C81009741F08B819C8126EA34E1B90129
:102AC0000E94511A04C086EA94E10E941A1A88856D
:102AD0009985FC011182108288859985FC01868187
:102AE000282F2E7F88859985FC0126831E821D82D2
:102AF0008F810E94E1148D819E8129960FB6F894F2
:102B0000DEBF0FBECDBFCF91DF9108951F93DF933E
:102B1000CF930F92CDB7DEB71FB7F8941983898191
:102B20000F90CF91DF911F910895DF93CF930F9274
:102B3000CDB7DEB7898389818FBF0F90CF91DF91A9
:102B40000895DF93CF9300D00F92CDB7DEB79B836C
:102B50008A830E94861589838A819B81FC018681F4
:102B6000882F90E081709070882321F08A819B816A
:102B70000E94ED148A819B81FC018681882F90E060
:102B800082709070009741F089810E9495158A812A
:102B90009B810E944B0E1DC08A819B81FC01868116
:102BA000882F90E084709070009799F48A819B81BF
:102BB00020EA34E1B9010E9470198091A414909127
:102BC000A51401969093A5148093A41489810E9462
:102BD000951580E090E00F900F900F90CF91DF91CE
:102BE0000895DF93CF9300D0CDB7DEB78CE894E1A2
:102BF0000E941A1A9A83898389819A81009791F495
:102C00000E9445128CE894E10E941A1A9A838983E3
:102C100089819A81009731F484E492E068E670E05B
:102C20000E94622489819A810F900F90CF91DF9149
:102C30000895DF93CF93CDB7DEB72A970FB6F894F8
:102C4000DEBF0FBECDBF9E838D8378876F835A878B
:102C5000498780915614909157149C838B838D8162
:102C60009E818032910550F00E94800726E130E07D
:102C7000FC01318320838FEF9FEFAEC08B819C815D
:102C80002D813E81B9010E9410139A838983898521
:102C90009A850097C1F189819A81009719F18981FC
:102CA0009A81FC012281338189859A85FC013183D7
:102CB000208389819A81FC0184819581A681B781D5
:102CC00029853A85F90182839383A483B583898119
:102CD0009A81FC012085318589859A85FC0137839D
:102CE000268311C089859A85FC011182108289850D
:102CF0009A85FC01128213821482158289859A8535
:102D0000FC01178216828F819885009719F480E064
:102D100090E062C08F819885FC018081918100974D
:102D200099F489819A81009709F454C089819A8124
:102D30002B813C812A5D3F4FB9010E94AD198981E9
:102D40009A810E94F51646C089819A81009701F503
:102D50000E94F1159A83898389819A81009751F4A1
:102D60000E9480072CE030E0FC01318320838FEF4C
:102D70009FEF32C02D8189819A81FC012287898150
:102D80009A812B813C812A5D3F4FB9010E947019C5
:102D90008F819885FC012081318189819A81FC0194
:102DA000338322838F819885FC0182819381A48162
:102DB000B58129813A81F90184839583A683B783FC
:102DC0008F819885FC012681378189819A81FC0158
:102DD0003187208780E090E02A960FB6F894DEBF16
:102DE0000FBECDBFCF91DF910895DF93CF9300D079
:102DF000CDB7DEB79A83898389819A812CE834E143
:102E0000B9010E9470190F900F90CF91DF91089532
:102E1000DF93CF9300D0CDB7DEB79A8389838981C2
:102E20009A81FC0180859185009739F089819A818A
:102E3000FC01808591850E944B0E89819A81FC015D
:102E40001782168289819A81FC01118610860F9063
:102E50000F90CF91DF910895DF93CF9300D000D0F2
:102E6000CDB7DEB784E891E19A8389831092A114EB
:102E70001092A0141092A3141092A2141092A714EE
:102E80001092A6141092A9141092A8141C821B82EE
:102E900012C089819A8129813A81205F3F4F3A830C
:102EA000298320EA34E1B9010E9470198B819C8149
:102EB00001969C838B838B819C81843091054CF39C
:102EC00084E090E09093A5148093A4140F900F9049
:102ED0000F900F90CF91DF910895DF93CF93CDB7EF
:102EE000DEB72A970FB6F894DEBF0FBECDBF9A8724
:102EF00089871A82198289859A85009709F446C0C4
:102F000089859A850E94AA1B1C821B8236C08985EE
:102F10009A85AC014E5F5F4F2B813C81C901880FC0
:102F2000991F880F991F820F931F840F951F9E83EF
:102F30008D838D819E81FC01808191819923C4F0D4
:102F40008D819E81FC0182819381827090700097B7
:102F500079F08D819E8161E00E94D11798878F83DF
:102F60008F819885992324F48F8198859A8389830A
:102F70008B819C8101969C838B838B819C81863085
:102F800091052CF289859A850E94CB1B89819A81B3
:102F90002A960FB6F894DEBF0FBECDBFCF91DF915A
:102FA0000895DF93CF9300D00F92CDB7DEB79A8309
:102FB00089836B8380E090E00F900F900F90CF910A
:102FC000DF910895DF93CF93CDB7DEB728970FB683
:102FD000F894DEBF0FBECDBF9C838B837E836D8351
:102FE00058874F838B819C819A8389830AC02D8166
:102FF00089819A81FC01208389819A8101969A8333
:10300000898321E08F819885009709F420E08F81E2
:103010009885019798878F83222349F78B819C811C
:1030200028960FB6F894DEBF0FBECDBFCF91DF91CB
:103030000895DF93CF9300D000D000D0CDB7DEB796
:103040009C838B837E836D838B819C819A83898310
:1030500000008D819E81FC0120818B819C81FC017F
:1030600020838B819C81FC01808121E0882309F4ED
:1030700020E08B819C8101969C838B838D819E8136
:1030800001969E838D83222321F789819A8126963A
:103090000FB6F894DEBF0FBECDBFCF91DF9108957C
:1030A000DF93CF9300D000D0CDB7DEB79C838B8366
:1030B0008B819C819A83898305C089819A8101963D
:1030C0009A83898389819A81FC0180818823A9F769
:1030D00029813A818B819C81A901481B590BCA0126
:1030E0000F900F900F900F90CF91DF910895DF9385
:1030F000CF93CDB7DEB72A970FB6F894DEBF0FBED9
:10310000CDBF9E838D8378876F835A8749878D8152
:103110009E819A8389838F8198859C838B8312C03B
:103120008B819C81FC01208189819A81FC01208313
:1031300089819A8101969A8389838B819C810196EA
:103140009C838B8321E089859A85009709F420E090
:1031500089859A8501979A878987222309F78D8126
:103160009E812A960FB6F894DEBF0FBECDBFCF91D9
:10317000DF910895DF93CF9300D000D0CDB7DEB7B5
:103180009A8389837C836B838B819C8180329105B8
:1031900050F00E94800726E130E0FC01318320835B
:1031A0008FEF9FEF20C089819A81FC0120813181BE
:1031B0004281538181E090E0A0E0B0E00B8004C048
:1031C000880F991FAA1FBB1F0A94D2F7822B932B3B
:1031D000A42BB52B29813A81F90180839183A283A5
:1031E000B38380E090E00F900F900F900F90CF91FD
:1031F000DF910895DF93CF9300D000D0CDB7DEB735
:103200009A8389837C836B838B819C818032910537
:1032100050F00E94800726E130E0FC0131832083DA
:103220008FEF9FEF24C089819A81FC012081318139
:103230004281538181E090E0A0E0B0E00B8004C0C7
:10324000880F991FAA1FBB1F0A94D2F780959095EB
:10325000A095B09582239323A423B52329813A8195
:10326000F90180839183A283B38380E090E00F9083
:103270000F900F900F90CF91DF910895DF93CF9330
:1032800000D000D000D0CDB7DEB79C838B837E8387
:103290006D838FEF9FEF9A8389838D819E8180322A
:1032A000910598F48B819C81FC0180819181A281A0
:1032B000B3810D8004C0B695A795979587950A941C
:1032C000D2F7817090709A83898389819A8126963A
:1032D0000FB6F894DEBF0FBECDBFCF91DF9108953A
:1032E000DF93CF9300D000D0CDB7DEB79A83898328
:1032F0007C836B8389819A81FC01118210828B818E
:103300009C81FC0180819181009779F48B819C8163
:1033100029813A81FC01318320838B819C81298121
:103320003A81FC013383228311C08B819C81FC0193
:103330008281938129813A81FC01318320838B81B1
:103340009C8129813A81FC01338322830F900F9065
:103350000F900F90CF91DF910895DF93CF9300D01E
:1033600000D000D0CDB7DEB79C838B837E836D8386
:103370008D819E81FC0180819181009709F451C06B
:103380008B819C81009709F44CC08D819E81FC014A
:10339000208131818B819C8128173907D1F48B8161
:1033A0009C81FC01208131818D819E81FC013183D2
:1033B00020838D819E81FC01228133818B819C81C0
:1033C0002817390771F58D819E81FC0113821282C5
:1033D00028C08D819E81FC01808191819A8389839F
:1033E00007C089819A81FC01808191819A838983B8
:1033F00089819A81009751F089819A81FC0120810D
:1034000031818B819C812817390759F789819A81ED
:10341000009739F089819A812D813E81B9010E94FE
:10342000511A26960FB6F894DEBF0FBECDBFCF91CE
:10343000DF910895DF93CF9300D000D0CDB7DEB7F2
:103440009C838B838B819C81FC01808191819A83F9
:10345000898389819A810097D9F089819A81FC01B9
:10346000208131818B819C81FC01318320838B8180
:103470009C81FC0180819181009729F48B819C8142
:10348000FC011382128289819A81FC0111821082CF
:1034900089819A810F900F900F900F90CF91DF91BB
:1034A0000895DF93CF9300D000D000D0CDB7DEB722
:1034B0009C838B837E836D838B819C81FC018081C7
:1034C00091819A8389838D819E81FC018081918184
:1034D000009751F189819A81009731F18D819E8108
:1034E000FC012281338189819A812817390769F487
:1034F0008D819E812B813C81FC01338322838B81D2
:103500009C81FC01118210820AC089819A81FC0190
:10351000208131818B819C81FC01318320838981D1
:103520009A81FC011182108289819A8126960FB6B8
:10353000F894DEBF0FBECDBFCF91DF910895DF932A
:10354000CF9300D000D0CDB7DEB79A8389837C8338
:103550006B8389819A81FC01138212828B819C8109
:10356000FC012081318189819A81FC013183208392
:103570008B819C81FC0180819181009779F48B8102
:103580009C8129813A81FC01318320838B819C813C
:1035900029813A81FC013383228311C08B819C8174
:1035A000FC018081918129813A81FC01338322834E
:1035B0008B819C8129813A81FC01318320830F908A
:1035C0000F900F900F90CF91DF910895DF93CF93DD
:1035D000CDB7DEB728970FB6F894DEBF0FBECDBFCC
:1035E0009E838D8378876F838D819E81FC0182818C
:1035F00093819A8389838D819E81FC018081918151
:103600009C838B8389819A81009741F48F8198856F
:103610002B813C81FC013183208307C089819A8101
:103620002B813C81FC01318320838B819C8100971D
:1036300041F48F81988529813A81FC01338322836B
:1036400007C08B819C8129813A81FC0133832283CD
:103650008D819E81FC01118210828D819E81FC01F1
:103660001382128228960FB6F894DEBF0FBECDBF2C
:10367000CF91DF910895DF93CF9300D000D000D099
:10368000CDB7DEB79E838D838D819E81885B9F4FF2
:103690009C838B838B819C8160E070E041E050E0F3
:1036A0000E94DB1B1A8219822EC08B819C81AC0187
:1036B0004E5F5F4F29813A81C901880F991F880F9A
:1036C000991F820F931F840F951F60E070E045E003
:1036D00050E00E94E2174B815C8129813A81C90147
:1036E000880F991F880F991F820F931F840F951FB2
:1036F00002962FEF3FEFFC013183208389819A816D
:1037000001969A83898389819A81863091056CF22A
:1037100026960FB6F894DEBF0FBECDBFCF91DF91D6
:103720000895DF93CF9300D000D0CDB7DEB79C8350
:103730008B838B819C81885B9F4F9A83898389814E
:103740009A810E94AE950F900F900F900F90CF919D
:10375000DF910895DF93CF9300D0CDB7DEB79A8382
:1037600089830EC00E948007FC0180819181843092
:10377000910531F087E892E061E570E00E946224F3
:1037800089819A810E94F395009761F70F900F90BD
:10379000CF91DF910895DF93CF9300D0CDB7DEB7FF
:1037A0009A83898389819A810E940C970F900F9048
:1037B000CF91DF910895DF93CF9300D000D000D058
:1037C000CDB7DEB79A8389837C836B835E834D8319
:1037D00089819A81009771F08D819E81992354F09F
:1037E0002D813E8189819A81FC013183208380E093
:1037F00090E009C00E94800726E130E0FC0131839F
:1038000020838FEF9FEF26960FB6F894DEBF0FBE92
:10381000CDBFCF91DF910895DF93CF9300D000D03B
:10382000CDB7DEB79A8389837C836B838AEA94E180
:1038300049815A812B813C81BA01A9010E94031D53
:103840000F900F900F900F90CF91DF9108958AEA1B
:1038500094E10E94A81D08958AEA94E10E943C1E0A
:103860000895DF93CF9300D0CDB7DEB79A838983D5
:103870008AEA94E129813A81B9010E94321F0F90AE
:103880000F90CF91DF910895DF93CF9300D0CDB704
:10389000DEB79A8389838AEA94E129813A81B90162
:1038A0000E9436200F900F90CF91DF910895DF9303
:1038B000CF9300D0CDB7DEB79A8389838AEA94E1AB
:1038C00029813A81B9010E9427210F900F90CF9151
:1038D000DF910895DF93CF93CDB7DEB72C970FB666
:1038E000F894DEBF0FBECDBF98878F837A87698734
:1038F0005C874B8789859A850F96807F9A83898319
:1039000029853A858B859C85820F931F807F9C83B8
:103910008B832B813C8189819A81A901481B590B9A
:10392000CA019C878B878F819885FC01268137810E
:103930008B859C85280F391F8F819885FC013783E3
:10394000268329813A818F819885FC0131872087E0
:103950008F819885FC018085918524E030E0FC0111
:10396000318320838F819885FC018085918520E0BB
:1039700030E8FC013383228389819A8104969E83F7
:103980008D838B859C859C01285030408D819E8144
:10399000FC01318320838D819E8124E030E0FC0195
:1039A000338322838B819C8104979C018F8198852E
:1039B000FC01338722878F819885FC01828593855E
:1039C00024E030E0FC01318320838F819885FC0165
:1039D000828593852D813E81F90120813181306876
:1039E000FC01338322838F8198852D813E81B9012B
:1039F0000E94761E2C960FB6F894DEBF0FBECDBF88
:103A0000CF91DF910895DF93CF93CDB7DEB728979D
:103A10000FB6F894DEBF0FBECDBF9C838B837E8331
:103A20006D8358874F838B819C81FC01178216829E
:103A30008B819C810C9660E070E040E650E00E9433
:103A4000E21781E090E09A83898345C089819A8159
:103A500001972B813C81A901445F5F4F29813A8105
:103A6000220F331F220F331F220F331F240F351F46
:103A70004B815C810296880F991F880F991F880FD0
:103A8000991F840F951FFC01318320838B819C81BA
:103A90009C01245F3F4F89819A810197880F991F6C
:103AA000880F991F880F991F280F391F4B815C8140
:103AB00089819A81880F991F880F991F880F991FF4
:103AC000840F951F4296FC013183208389819A815E
:103AD00001969A83898389819A818C3091050CF4AF
:103AE000B5CF8B819C810E94881D8B819C814D81EB
:103AF0005E812F813885BA01A9010E946A1C28962F
:103B00000FB6F894DEBF0FBECDBFCF91DF91089501
:103B1000DF93CF9300D0CDB7DEB79A8389838981B5
:103B20009A8160E070E041E050E00E94DB1B8981F7
:103B30009A812FEF3FEFFC013383228389819A81A1
:103B4000FC01158214820F900F90CF91DF910895A0
:103B5000DF93CF9300D000D0CDB7DEB79C838B83AB
:103B60000E940A939A8389838B819C81FC01228124
:103B7000338189819A812817390781F48B819C814F
:103B8000FC01848195819C012F5F3F4F8B819C813B
:103B9000FC013583248380E090E019C08B819C81F7
:103BA0000E949C96009719F08FEF9FEF10C08B81B9
:103BB0009C8129813A81FC01338322838B819C8102
:103BC00021E030E0FC013583248380E090E00F9019
:103BD0000F900F900F90CF91DF910895DF93CF93C7
:103BE00000D000D0CDB7DEB79C838B830E940A93B0
:103BF0009A8389838B819C81FC0122813381898115
:103C00009A8128173907E1F48B819C81FC0184811A
:103C100095819C012F5F3F4F8B819C81FC013583F7
:103C2000248323C00E948007FC018081918184301D
:103C3000910539F08AEC92E06BEA70E00E94622410
:103C400000008B819C810E94F395009759F78B812E
:103C50009C8129813A81FC01338322838B819C8161
:103C600021E030E0FC01358324830F900F900F900A
:103C70000F90CF91DF910895DF93CF9300D0CDB710
:103C8000DEB79A83898389819A81FC018481958139
:103C90008230910574F089819A81FC01848195813B
:103CA0009C012150304089819A81FC013583248315
:103CB00018C089819A812FEF3FEFFC013383228363
:103CC00089819A81FC011582148289819A810E94DE
:103CD0000C97009731F08AEC92E06CED70E00E9456
:103CE00062240F900F90CF91DF910895DF93CF93CF
:103CF000CDB7DEB72A970FB6F894DEBF0FBECDBFA3
:103D000098878F837A87698789859A85FC01808166
:103D100091810E94FD1E9E838D838F8198859C01D9
:103D2000245F3F4F8D819E81880F991F880F991FB7
:103D3000880F991F820F931F9C838B832F81388557
:103D40008D819E810296880F991F880F991F880F79
:103D5000991F820F931FFC01808191819A8389832F
:103D60000BC089819A819C838B8389819A81FC0114
:103D7000848195819A83898389819A810097A1F0B2
:103D800089819A81FC0180819181009769F0898104
:103D90009A81FC012081318189859A85FC0180818D
:103DA000918128173907E8F28B819C8129853A8512
:103DB000FC013583248389859A852B813C81FC0114
:103DC0003783268389859A8529813A81FC01358349
:103DD000248389819A81009739F089819A81298584
:103DE0003A85FC01378326832A960FB6F894DEBF06
:103DF0000FBECDBFCF91DF910895DF93CF9300D059
:103E000000D0CDB7DEB79C838B831A8219828B8159
:103E10009C8199231CF48BE090E01DC08B819C81D8
:103E2000929582958F7089279F7089279C838B83B9
:103E30000BC089819A8101969A8389838B819C81A9
:103E4000969587959C838B838B819C81823091058D
:103E500080F789819A810F900F900F900F90CF91EA
:103E6000DF910895DF93CF93CDB7DEB72C970FB6D0
:103E7000F894DEBF0FBECDBF9A8789877C876B879A
:103E80008B859C85009709F4E7C089859A850E94F7
:103E9000EE1D8B859C8504979A83898389819A81FD
:103EA000FC01828193819C013F7789819A81FC0189
:103EB0003383228389819A81FC01808191812981C8
:103EC0003A81820F931F9C838B838B819C81FC01A1
:103ED0008281938199230CF454C02B813C818B8186
:103EE0009C81FC0180819181820F931F9E838D8331
:103EF0008B819C81FC01868197812B813C81F9011A
:103F000024813581FC01358324838B819C81FC01D4
:103F100084819581009769F08B819C81FC0184816B
:103F200095812B813C81F90126813781FC01378302
:103F3000268389819A81FC01208131818B819C813A
:103F4000FC0180819181280F391F89819A81FC01B0
:103F50003183208389819A81FC01208131818D8187
:103F60009E81FC018281938180709078282B392B6F
:103F70008D819E81FC01338322838D819E819C8370
:103F80008B8389819A81FC018281938190958195AF
:103F90009F4F29813A81820F931F98878F838F814A
:103FA0009885FC018281938199230CF449C08F810B
:103FB0009885FC01868197812F813885F9012481BC
:103FC0003581FC01358324838F819885FC018481B0
:103FD0009581009769F08F819885FC018481958196
:103FE0002F813885F90126813781FC0137832683AB
:103FF0008F819885FC012081318189819A81FC0122
:1040000080819181280F391F8F819885FC01318330
:1040100020838F819885FC01208131818B819C8157
:10402000FC018281938180709078282B392B8B81C1
:104030009C81FC01338322838F8198859A838983B5
:1040400089859A8529813A81B9010E94761E8985E0
:104050009A850E943C1E01C000002C960FB6F89471
:10406000DEBF0FBECDBFCF91DF910895DF93CF9319
:10407000CDB7DEB760970FB6F894DEBF0FBECDBFE9
:104080009E878D87788B6F871C821B828F8598898E
:10409000009719F480E090E0D1C08F85988943960D
:1040A000807F988B8F878D859E850E94EE1D8F85E2
:1040B000988999232CF48BE090E09E838D8306C031
:1040C0008F8598890E94FD1E9E838D832D853E8558
:1040D0008D819E810296880F991F880F991F880FE6
:1040E000991F820F931FFC01808191819A8389839C
:1040F00007C089819A81FC01848195819A83898393
:1041000089819A81009751F089819A81FC012081EF
:1041100031818F8598892817390758F389819A81C9
:10412000009709F485C089819A81FC018681978175
:1041300029813A81F90124813581FC013583248369
:1041400089819A81FC0184819581009769F0898138
:104150009A81FC018481958129813A81F901268126
:104160003781FC013783268389819A81FC01208174
:1041700031818F859889A901481B590BCA019887FD
:104180008F838F8198858830910508F440C089819C
:104190009A81FC018081918129813A81820F931F4C
:1041A0009A87898729813A818F859889820F931F01
:1041B0009C878B878B859C852F813885FC0131837B
:1041C00020838B859C852F853889FC01338322834E
:1041D00089819A812F853889FC01318320838985E3
:1041E0009A85FC01828193819C01207030788F81B7
:1041F0009885282B392B89859A85FC013383228366
:104200008D859E852B853C85B9010E94761E89810E
:104210009A81FC01828193819C01306889819A8115
:10422000FC013383228389819A8104969C838B834A
:104230008D859E850E943C1E8B819C8160960FB669
:10424000F894DEBF0FBECDBFCF91DF910895DF930D
:10425000CF9300D000D000D0CDB7DEB79C838B8346
:104260007E836D838B819C812D813E81B9010E946B
:1042700036209A83898389819A81009749F08981C0
:104280009A812D813E8160E070E0A9010E94E217D1
:1042900089819A8126960FB6F894DEBF0FBECDBFF6
:1042A000CF91DF910895DC013F912F919EB79D93AF
:1042B0008DB78D931496DD93CD9316961D930D9324
:1042C000FD92ED92DD92CD92BD92AD929D928D9236
:1042D0007D926D925D924D923D922D9211241D9290
:1042E00011960FB60D9212963D932D93CB01DC01E2
:1042F000ED01A3969D919EBF8D918DBF999189915E
:104300008F939F939D918D918F939F93FD91ED91AD
:10431000DD91CD917D916D915D914D913D912D916D
:104320001D910D91FD90ED90DD90CD90BD90AD90E3
:104330009D908D907D906D905D904D903D902D90D5
:104340001D900D908D918FBF9D918D91BF91AF91DB
:1043500008950895DF93CF9300D00F92CDB7DEB7C5
:1043600088E10FB6F89480936000109260000FBE51
:104370001A82198280E88B832B8189819A810FB6FA
:10438000F89420936100809361000FBE0E94A921E0
:104390000E947A2E0E94BD230E94D8850F900F9014
:1043A0000F90CF91DF9108951F93DF93CF930F92DA
:1043B000CDB7DEB71FB7F894198389810F90CF91DD
:1043C000DF911F910895DF93CF930F92CDB7DEB7A2
:1043D000898389818FBF0F90CF91DF910895DF93FB
:1043E000CF9300D0CDB7DEB78A8389EC90E0FC0193
:1043F0008081898389818F7189838A81807E8A8384
:1044000099818A81892B898389EC90E02981FC013B
:1044100020830F900F90CF91DF910895DF93CF937A
:1044200000D00F92CDB7DEB79B838A8389EC90E0F2
:10443000FC01808189838A819B812981FC01208301
:1044400089818F71898389EC90E02981FC01208327
:104450000F900F900F90CF91DF910895DF93CF933E
:1044600000D0CDB7DEB79A8389830E94432E80E0C7
:1044700090E00F900F90CF91DF910895DF93CF934D
:1044800000D0CDB7DEB79A8389830E941F2E0F908C
:104490000F90CF91DF910895DF93CF9300D0CDB7E8
:1044A000DEB79A83898324E832E288E190E0B9019B
:1044B0000E94568E25EA32E289E190E0B9010E941D
:1044C000568E80E090E00F900F90CF91DF9108958D
:1044D000DF93CF9300D0CDB7DEB79A83898380E096
:1044E00090E00E940E2288E190E060E070E00E947F
:1044F000568E89E190E060E070E00E94568E0F9049
:104500000F90CF91DF910895DF93CF9300D000D02B
:104510000F92CDB7DEB79B838A837D836C8388EC53
:1045200090E0FC01808189838981882324F48FE1D4
:1045300093E00E94408580E090E00F900F900F90F4
:104540000F900F90CF91DF910895DF93CF9300D01C
:1045500000D00F92CDB7DEB79B838A837D836C83B7
:1045600088EC90E0FC01808189838981882F90E02C
:1045700080729070009721F08FE193E00E94AD84EB
:1045800080E090E00F900F900F900F900F90CF91E0
:10459000DF910895DF93CF93CDB7DEB728970FB69D
:1045A000F894DEBF0FBECDBF9A8389837C836B8373
:1045B0002D833E834F83588787EE9FEF28960FB653
:1045C000F894DEBF0FBECDBFCF91DF910895DF938A
:1045D000CF9300D000D0CDB7DEB79A8389837C8398
:1045E0006B838B819C81009759F088EC90E0FC01F3
:1045F0008081282F30E08B819C81FC0131832083D6
:104600008EEC90E0FC018081882F90E00F900F905D
:104610000F900F90CF91DF910895DF93CF9300D04B
:104620000F92CDB7DEB79A8389836B838B81882302
:1046300051F089EC90E029EC30E0F901208120680C
:10464000FC01208309C089EC90E029EC30E0F901FD
:1046500020812F77FC0120830F900F900F90CF9136
:10466000DF910895DF93CF9300D0CDB7DEB79A8363
:10467000898388EC90E0FC018081881F8827881F4F
:104680000F900F90CF91DF910895DF93CF9300D0DB
:1046900000D0CDB7DEB79A8389837C836B838EECA1
:1046A00090E02B81FC0120830F900F900F900F90D2
:1046B000CF91DF910895DF93CF9300D000D0CDB795
:1046C000DEB79B838A836C830E94D42189838C818B
:1046D000882371F089EC90E029EC30E0F901208129
:1046E0002062FC0120838FE193E00E94AD8409C029
:1046F00089EC90E029EC30E0F90120812F79FC0170
:10470000208389810E94E3210F900F900F900F90DA
:10471000CF91DF910895DF93CF9300D0CDB7DEB76F
:104720009A83898388EC90E0FC018081882F90E057
:104730008072907021E0009709F420E0822F0F90A2
:104740000F90CF91DF910895DF93CF9300D0CDB735
:10475000DEB79A83898388EC90E0FC018081882F02
:1047600090E08074907021E0009709F420E0822F9F
:104770000F900F90CF91DF91089580E090E00E941C
:104780000E2281E0809322038FE193E00E942E228B
:10479000089581E493E02FE133E0B9010E942E8473
:1047A0008EE493E02FE133E0B9010E942E84089556
:1047B000DF93CF9300D00F92CDB7DEB79B838A8370
:1047C000CE0101960E940E228A819B818A3091053A
:1047D00019F48DE00E947D2E8A810E947D2E8981B0
:1047E0000E94EF218A819B810F900F900F90CF91B3
:1047F000DF910895DF93CF9300D000D0CDB7DEB71F
:104800009A8389837C836B8380E090E00E94DE86BC
:1048100080910001909101019C0189819A81FC01A4
:1048200031832083809100019091010120E031E2E9
:10483000281B390B8B819C81FC01318320830F90D5
:104840000F900F900F90CF91DF9108951F93DF93FA
:10485000CF930F92CDB7DEB71FB7F8941983898134
:104860000F90CF91DF911F910895DF93CF9300D0E8
:10487000CDB7DEB79A83898380911615909117156D
:10488000009749F48091561490915714FC01868149
:104890009781009799F40E94262480E090E00E947E
:1048A000DE868AEF90E00E940C2680E090E00E9475
:1048B0000F878AEF90E00E940C26EFCF89819A81C2
:1048C0000E946107DF93CF9300D000D0CDB7DEB751
:1048D0009A8389837C836B8382E090E00E94DE86EA
:1048E0008DB79EB70A970FB6F8949EBF0FBE8DBFC7
:1048F0008DB79EB7019623E030E0FC013183208321
:1049000029E533E0FC013383228323E833E0FC0113
:104910003583248329813A81FC01378326832B81C7
:104920003C81FC01318720870E9448AC8DB79EB73F
:104930000A960FB6F8949EBF0FBE8DBF0E942B2D16
:1049400081E090E00E943524DF93CF93CDB7DEB7AE
:1049500027970FB6F894DEBF0FBECDBF9C838B8325
:104960007E836D834F838B819C81FC01808D918D33
:10497000009779F08B819C81FC01268937898D8194
:104980009E812817390729F08B819C816F810E94B5
:1049900081268B819C81FC01808D918D009751F443
:1049A0008D819E810E94441C9C018B819C81FC0115
:1049B000318F208F8B819C81FC01808D918D0097A0
:1049C00011F18B819C81FC01808D918D9C018D81E9
:1049D0009E81820F931F01979A83898329813A814F
:1049E0008B819C81FC01338F228F8B819C812D8157
:1049F0003E81FC01378B268B81E090E00E94DE86B1
:104A000080E090E002C08FEF9FEF27960FB6F894FA
:104A1000DEBF0FBECDBFCF91DF910895DF93CF935F
:104A200000D000D00F92CDB7DEB78B837D836C832F
:104A300082E090E00E94DE86809116159091171515
:104A40009A8389838C819D81909317158093161585
:104A50008B81882F90E02C813D81B9010E94938E3B
:104A600080911615909117159D838C8389819A8169
:104A7000909317158093161582E090E00E940F879F
:104A80008C819D810F900F900F900F900F90CF9180
:104A9000DF9108951F93DF93CF930F92CDB7DEB7C9
:104AA0001FB7F894198389810F90CF91DF911F91DF
:104AB0000895DF93CF9300D000D0CDB7DEB79C83AD
:104AC0008B830E944A250E942492809156149091D3
:104AD00057149A83898389819A81CD960E94772180
:104AE000089510921715109216150E9402260E9422
:104AF000AC2E0E94C92380E090E00E94DE860895DB
:104B00001F93DF93CF930F92CDB7DEB71FB71983F3
:104B100089810F90CF91DF911F910895DF93CF93FB
:104B200000D000D0CDB7DEB79C838B838B819C8176
:104B3000C8969A83898389819A8160E070E04AE20D
:104B400050E00E94E2178B819C81FC01828D938D45
:104B5000892F9927282F89819A81FC0125838B81B0
:104B60009C81FC01828D938D282F89819A81FC0183
:104B700026838B819C81FC0180859185892F9927D3
:104B8000282F89819A81FC0120A78B819C81FC01BF
:104B900080859185282F89819A81FC0121A70E9417
:104BA0008025282F206889819A81FC0125A30F90F8
:104BB0000F900F900F90CF91DF910895809116156F
:104BC0009091171521E0009709F420E0822F0895B5
:104BD0001F93DF93CF930F92CDB7DEB71FB7198323
:104BE00089810F90CF91DF911F910895DF93CF932B
:104BF0000F92CDB7DEB7898389818FBF0F90CF9198
:104C0000DF91089510921715109216150E94E8254D
:104C100080680E94F6250895DF93CF9300D000D0DE
:104C200000D0CDB7DEB79E838D831A82198213C060
:104C30001C821B8205C08B819C8101969C838B8387
:104C40008B819C8123E080369207ACF389819A8125
:104C500001969A83898389819A819C018D819E81A5
:104C60002817390728F326960FB6F894DEBF0FBE33
:104C7000CDBFCF91DF910895DF93CF9300D000D0C7
:104C8000CDB7DEB780915614909157149A838983DB
:104C90000E944A90882371F1809116159091171502
:104CA0000097C1F089819A81CD9620911615309197
:104CB0001715B9010E94D02E809156149091571467
:104CC0009A83898389819A81CD96909317158093D1
:104CD000161510C080915614909157149C838B83A5
:104CE00089819A81CD962B813C81235C3F4FB9010C
:104CF0000E9453210F900F900F900F90CF91DF9152
:104D00000895DF93CF9300D00F92CDB7DEB79A838B
:104D100089836B8389819A81FC01808D918D0097B5
:104D200061F089819A81FC01808D918D0E944B0EEA
:104D300089819A81FC01118E108E89819A81FC01F2
:104D4000178A168A0F900F900F90CF91DF910895D8
:104D50001F93DF93CF930F92CDB7DEB71FB7F894B1
:104D6000198389810F90CF91DF911F910895DF936F
:104D7000CF930F92CDB7DEB7898389818FBF0F9014
:104D8000CF91DF910895DF93CF9300D000D00F92A1
:104D9000CDB7DEB79B838A837D836C838A819B81B9
:104DA000FC0180AD91AD009709F0BCC00E94A8261F
:104DB000898380915614909157149C018A819B811C
:104DC0002817390709F064C08091161590911715BE
:104DD000009739F48A819B812C813D81F9010995E5
:104DE0009EC08A819B812C813D81FC0131AF20AF27
:104DF00080911615909117158496FC0120818A8167
:104E00009B81FC0122AF8091161590911715839616
:104E1000FC0120818A819B81FC0123AF80911615C2
:104E2000909117158096FC0120818A819B81FC015D
:104E300024AF8091161590911715849625EB37E2D3
:104E4000FC0120838091161590911715839625EB10
:104E500037E2232F3327FC01208380911615909190
:104E6000171580962091161530911715205E3F4F2B
:104E7000F90120812F77FC0120838A819B81CD96C7
:104E80002091161530911715B9010E94D02E47C0F8
:104E90008A819B812C813D81FC0131AF20AF8A81C9
:104EA0009B818F599F4FFC0120818A819B81FC014E
:104EB00022AF8A819B81805A9F4FFC0120818A8189
:104EC0009B81FC0123AF8A819B81835A9F4FFC0108
:104ED00020818A819B81FC0124AF85EB97E2282FFA
:104EE0008A819B818F599F4FFC01208385EB97E23C
:104EF000892F9927282F8A819B81805A9F4FFC01F7
:104F000020838A819B81835A9F4FFC018081282FB7
:104F10002F778A819B81835A9F4FFC01208389814F
:104F20000E94B7260F900F900F900F900F90CF9187
:104F3000DF9108951F93DF93CF930F92CDB7DEB724
:104F40001FB7F894198389810F90CF91DF911F913A
:104F50000895DF93CF930F92CDB7DEB78983898110
:104F60008FBF0F90CF91DF910895DF93CF93CDB78F
:104F7000DEB7AB970FB6F894DEBF0FBECDBF809102
:104F80005614909157149A83898389819A81FC01E0
:104F900086A997A99C838B8382E090E00E94DE869D
:104FA00089819A81FC0180AD91AD009731F48DE843
:104FB00093E063E670E00E94622489819A819C01FB
:104FC000235C3F4FCE010796B9010E94D02E898104
:104FD0009A81FC0182AD8BA789819A81FC0183AD06
:104FE0008AA789819A81FC0184AD8FA389819A81E6
:104FF000FC0180AD91AD9E838D8389819A81FC01F6
:1050000011AE10AE8FA10E94A92789819A812D81AE
:105010003E81F90109950E949A2789819A812B8105
:105020003C81FC0137AB26AB82E090E00E940F8709
:10503000CE0107960E947721DF93CF9300D000D056
:1050400000D0CDB7DEB79C838B837E836D838B814D
:105050009C81FC01808D918D009751F08B819C810A
:10506000FC01268937898D819E818217930718F06C
:1050700080E090E03CC08B819C81FC01828D938D0F
:105080009C018D819E81A901481B590BCA019A83FD
:10509000898329813A818B819C81FC01338F228F06
:1050A0008B819C81FC01268937898D819E81281BFB
:1050B000390B8B819C81FC01378B268B8B819C81EA
:1050C000FC01828D938D892F9927282F8B819C81BC
:1050D000FC0125AF8B819C81FC01828D938D282F53
:1050E0008B819C81FC0126AF89819A81019626964D
:1050F0000FB6F894DEBF0FBECDBFCF91DF910895FC
:10510000DF93CF9300D000D000D0CDB7DEB79E8321
:105110008D8380915614909157149A8389838D8141
:105120009E81FC018585843030F08D819E81FC015B
:105130008585873030F087ED93E069E570E00E9467
:1051400062248D819E810E94FA908D819E8124E14E
:1051500030E0FC01338B228B8D819E810E94158F64
:10516000882371F180911615909117150097C1F061
:1051700089819A81CD962091161530911715B90124
:105180000E94D02E80915614909157149A8389834F
:1051900089819A81CD96909317158093161510C02A
:1051A00080915614909157149C838B8389819A81A6
:1051B000CD962B813C81235C3F4FB9010E94532146
:1051C00026960FB6F894DEBF0FBECDBFCF91DF910C
:1051D00008950F931F93DF93CF9300D0CDB7DEB721
:1051E0000DB71EB709831A838A81882F90E0382F64
:1051F00022278981882F90E0822B932B0F900F908C
:10520000CF91DF911F910F9108952F923F924F926E
:105210005F926F927F928F929F92AF92BF92CF9246
:10522000DF92EF92FF920F931F93DF93CF93CDB74F
:10523000DEB72A970FB6F894DEBF0FBECDBF9E83B0
:105240008D8378876F838D819E818C7F9A838983FC
:10525000BEC089819A819C838B838B819C81DC0178
:105260008C91482E55248B819C810196FC01808174
:10527000682E77248B819C810296DC018C91882E8C
:1052800099248B819C810396FC018081A82EBB24EC
:105290008B819C810496DC018C91C82EDD248B814E
:1052A0009C810596FC018081E82EFF248B819C81E6
:1052B0000696DC018C91082F10E08B819C8107966B
:1052C000FC018081A82FB0E08B819C810896FC01B5
:1052D0008081282F30E03A8729878B819C8109962D
:1052E000FC018081682F70E08B819C810A96FC0113
:1052F0008081482F50E08B819C810B96FC0180813E
:10530000282F30E08DB79EB780970FB6F8949EBFD8
:105310000FBE8DBF8DB79EB701960F2EF3E02F2ED7
:105320003324F02DFC01318220820F2EF2E22F2E49
:10533000F4E03F2EF02DFC01338222820F2EF0E6A6
:105340002F2EF5E03F2EF02DFC013582248229809E
:105350003A80FC0137822682FC0151864086FC019E
:1053600073866286FC0195868486FC01B786A686D4
:10537000FC01D18AC08AFC01F38AE28AFC01158B08
:10538000048BFC01B78BA68BE985FA85DC01599665
:10539000FC93EE935897DC015B967C936E935A973F
:1053A000FC01558F448FDC015F963C932E935E97F2
:1053B0000E9448ACEDB7FEB7B0960FB6F894FEBFAA
:1053C0000FBEEDBF89819A810C969A8389832981CA
:1053D0003A818F8198852817390708F43ACF2A96A1
:1053E0000FB6F894DEBF0FBECDBFCF91DF911F91F6
:1053F0000F91FF90EF90DF90CF90BF90AF909F9074
:105400008F907F906F905F904F903F902F90089576
:10541000CF92DF92EF92FF920F931F93DF93CF9380
:1054200000D000D0CDB7DEB780911615909117153A
:10543000009709F403C380911615909117154F96A4
:10544000DC018C91E82EFF248091161590911715A0
:105450004E96FC018081082F10E0809116159091E6
:1054600017154D96DC018C91E82FF0E0FC83EB835F
:1054700080911615909117154C96DC018C91A82FF0
:10548000B0E080911615909117154B96FC01808124
:10549000282F30E03A8329838091161590911715B3
:1054A0004A96FC018081682F70E0809116159091DA
:1054B00017154996FC018081482F50E08091161500
:1054C000909117154896FC018081282F30E08DB708
:1054D0009EB748970FB6F8949EBF0FBE8DBF8DB78D
:1054E0009EB701960F2EF3E0CF2EDD24F02DFC01A8
:1054F000D182C0820F2EF9E6CF2EF4E0DF2EF02D00
:10550000FC01D382C2820F2EF0E5CF2EF5E0DF2E14
:10551000F02DFC01D582C482FC0117821682FC01A9
:10552000F186E086FC01138702870B811C81FC0158
:1055300015870487FC01B787A687E981FA81DC011A
:105540005196FC93EE935097DC0153967C936E93A7
:105550005297FC01558B448BDC0157963C932E935C
:1055600056970E9448ACEDB7FEB778960FB6F89400
:10557000FEBF0FBEEDBF809116159091171547968F
:10558000DC018C91E82EFF2480911615909117155F
:105590004696FC018081082F10E0809116159091AD
:1055A00017154596DC018C91E82FF0E0FC83EB8326
:1055B00080911615909117154496DC018C91A82FB7
:1055C000B0E080911615909117154396FC018081EB
:1055D000282F30E03A832983809116159091171572
:1055E0004296FC018081682F70E0809116159091A1
:1055F00017154196FC018081482F50E080911615C7
:10560000909117154096FC018081282F30E08DB7CE
:105610009EB748970FB6F8949EBF0FBE8DBF8DB74B
:105620009EB701960F2EF3E0CF2EDD24F02DFC0166
:10563000D182C0820F2EF9E6CF2EF4E0DF2EF02DBE
:10564000FC01D382C2820F2EF0E5CF2EF5E0DF2ED3
:10565000F02DFC01D582C482CC24DD246894C3F8EB
:10566000FC01D782C682FC01F186E086FC0113872B
:1056700002870B811C81FC0115870487FC01B78719
:10568000A687E981FA81DC015196FC93EE9350974D
:10569000DC0153967C936E935297FC01558B448B9F
:1056A000DC0157963C932E9356970E9448ACEDB779
:1056B000FEB778960FB6F894FEBF0FBEEDBF80918F
:1056C0001615909117150F96DC018C91E82EFF248A
:1056D00080911615909117150E96FC018081082F68
:1056E00010E080911615909117150D96DC018C91A4
:1056F000E82FF0E0FC83EB8380911615909117154D
:105700000C96DC018C91A82FB0E080911615909139
:1057100017150B96FC018081282F30E03A832983EE
:1057200080911615909117150A96FC018081682FBB
:1057300070E080911615909117150996FC018081F3
:10574000482F50E080911615909117150896FC018E
:105750008081282F30E08DB79EB748970FB6F89418
:105760009EBF0FBE8DBF8DB79EB701960F2EF3E083
:10577000CF2EDD24F02DFC01D182C0820F2EF9E660
:10578000CF2EF4E0DF2EF02DFC01D382C2820F2E4B
:10579000F0E5CF2EF5E0DF2EF02DFC01D582C4829E
:1057A000CC24DD246894C4F8FC01D782C682FC01B5
:1057B000F186E086FC01138702870B811C81FC01C6
:1057C00015870487FC01B787A687E981FA81DC0188
:1057D0005196FC93EE935097DC0153967C936E9315
:1057E0005297FC01558B448BDC0157963C932E93CA
:1057F00056970E9448ACEDB7FEB778960FB6F8946E
:10580000FEBF0FBEEDBF80911615909117158296C1
:10581000DC018C91E82EFF248091161590911715CC
:105820008196FC018081082F10E0809116159091DF
:1058300017150396DC018C91E82FF0E0FC83EB83D5
:1058400080911615909117150296DC018C91A82F66
:10585000B0E080911615909117150796FC01808194
:10586000282F30E03A8329838091161590911715DF
:105870000696FC018081682F70E08091161590914A
:1058800017150596FC018081482F50E08091161570
:10589000909117150496FC018081282F30E08DB778
:1058A0009EB748970FB6F8949EBF0FBE8DBF8DB7B9
:1058B0009EB701960F2EF3E0CF2EDD24F02DFC01D4
:1058C000D182C0820F2EF9E6CF2EF4E0DF2EF02D2C
:1058D000FC01D382C2820F2EF0E5CF2EF5E0DF2E41
:1058E000F02DFC01D582C4820F2EF8E1CF2EDD24ED
:1058F000F02DFC01D782C682FC01F186E086FC0116
:10590000138702870B811C81FC0115870487FC012A
:10591000B787A687E981FA81DC015196FC93EE9363
:105920005097DC0153967C936E935297FC01558BF4
:10593000448BDC0157963C932E9356970E9448ACBB
:10594000EDB7FEB778960FB6F894FEBF0FBEEDBF69
:1059500080911615909117158396DC018C91A82FD4
:10596000B0E080911615909117158496FC01808106
:10597000082F10E01A83098380911615909117154E
:10598000FC018081682F70E08091161590911715A9
:105990000196FC018081482F50E08091161590916E
:1059A00017158096FC018081282F30E00DB71EB7B7
:1059B000005110400FB6F8941EBF0FBE0DBF8DB73B
:1059C0009EB70196E3E0F0E0FC83EB830B811C8142
:1059D000FC0111830083EDE9F4E0FC83EB830B8190
:1059E0001C81FC0113830283E0E5F5E0FC83EB837B
:1059F0000B811C81FC0115830483FC01B783A68302
:105A0000E981FA81DC011996FC93EE931897DC0189
:105A10001B967C936E931A97FC0155874487DC0193
:105A20001F963C932E931E970E9448ACEDB7FEB78D
:105A300070960FB6F894FEBF0FBEEDBF0F900F909B
:105A40000F900F90CF91DF911F910F91FF90EF90EA
:105A5000DF90CF900895DF93CF93CDB7DEB728972F
:105A60000FB6F894DEBF0FBECDBF80915614909153
:105A700057149E838D830E94E92898878F838D8198
:105A80009E81FC0186819781009761F480910001DD
:105A90009091010101979A83898380E091E09C8332
:105AA0008B830EC08D819E81FC01828D938D9A83A4
:105AB00089838D819E81FC01868997899C838B8354
:105AC0008DB79EB708970FB6F8949EBF0FBE8DBFD7
:105AD0008DB79EB7019623E030E0FC01318320832F
