:100000000C94C6000C94E7000C94EA000C94ED00EC
:100010000C94F0000C94F3000C94F6000C94F9008E
:100020000C94FC000C94FF000C9402010C9405014C
:100030000C9408010C940B010C940E010C9411010A
:100040000C9414010C9417010C941A010C941D01CA
:100050000C9420010C9423010C9426010C9429018A
:100060000C942C010C942F010C9432010C9435014A
:100070000C9438010C943B010C943E010C9441010A
:100080000C9444010C9447010C944A01005EBCE2BC
:10009000613FDD83C29C7E20A3FD1F419DC3217F64
:1000A000FCA2401E5F01E3BD3E6082DC237D9FC158
:1000B000421CFEA0E1BF5D0380DE3C62BEE0025C4C
:1000C000DF81633D7C22C09E1D43A1FF4618FAA438
:1000D00027799BC584DA3866E5BB5907DB85673924
:1000E000BAE406581947A5FB7826C49A653BD98718
:1000F000045AB8E6A7F91B45C6987A24F8A6441A0C
:1001000099C7257B3A6486D85B05E7B98CD2306EF7
:10011000EDB3510F4E10F2AC2F7193CD114FADF3E3
:10012000702ECC92D38D6F31B2EC0E50AFF1134DD7
:10013000CE90722C6D33D18F0C52B0EE326C8ED0CB
:10014000530DEFB1F0AE4C1291CF2D73CA947628B7
:10015000ABF517490856B4EA6937D58B5709EBB5A3
:1001600036688AD495CB2977F4AA4816E9B7550B97
:1001700088D6346A2B7597C94A14F6A8742AC8968B
:10018000154BA9F7B6E80A54D7896B3511241FBE61
:10019000C4E6D7E1DEBFCDBF1FE0A0E0B1E0E2EDF5
:1001A000F5E101E00BBF02C007900D92A637B10741
:1001B000D9F715E1A6E7BFE001C01D92A536B1074A
:1001C000E1F70E94F4130E94A7010C9443058F935A
:1001D00080E063C08F9381E060C08F9382E05DC058
:1001E0008F9383E05AC08F9384E057C08F9385E04C
:1001F00054C08F9386E051C08F9387E04EC08F9399
:1002000088E04BC08F9389E048C08F938AE045C057
:100210008F938BE042C08F938CE03FC08F938DE033
:100220003CC08F938EE039C08F938FE036C08F93A0
:1002300080E133C08F9381E130C08F9382E12DC084
:100240008F9383E12AC08F9384E127C08F9385E148
:1002500024C08F9386E121C08F9387E11EC08F93C6
:1002600088E11BC08F9389E118C08F938AE115C084
:100270008F938BE112C08F938CE10FC08F938DE130
:100280000CC08F938EE109C08F938FE106C08F93CE
:1002900080E203C08F9381E200C09F939FB7F894E0
:1002A00090689F930F921F9211242F923F924F922A
:1002B0005F926F927F928F929F92AF92BF92CF92F6
:1002C000DF92EF92FF920F931F932F933F934F93E1
:1002D0005F936F937F93CF93DF93EF93FF93AF93EE
:1002E000BF93ADB7BEB79396AF93BF93CDB7DEB70D
:1002F0002196BE010E948C15C817D90711F00C94E5
:10030000C213BF91AF91BF91AF91FF91EF91DF9178
:10031000CF917F916F915F914F913F912F911F915D
:100320000F91FF90EF90DF90CF90BF90AF909F9094
:100330008F907F906F905F904F903F902F901F9085
:100340000F908F918F778FBF9F918F911895DF932B
:10035000CF9300D000D0CDB7DEB7109242141092E8
:100360004114109244141092431410926E1410927F
:100370006D141092701410926F1410923E1410921B
:100380003D141092401410923F1410924A1410928F
:10039000491410924C1410924B141092461410925F
:1003A000451410924814109247141092741410922D
:1003B0007314109276141092751410927214109295
:1003C0007114EDE4F4E18FEF9FEF118210829383BB
:1003D0008283349624E1ED36F207B9F706E71FE091
:1003E00010934E1400934D141092501410924F1409
:1003F000C80160E070E045E650E00E94D40E83E062
:100400008093830F87EA91E09093810F8093800F10
:1004100082E090E09093850F8093840F87E191E0D4
:100420009093DC0F8093DB0F1092DE0F1092DD0FA4
:100430008BED9FE09093DA0F8093D90FC80161E4B0
:1004400074E10E94FA0FC8010E94D515CE010196F1
:10045000BE016D5F7F4F0E94D8146B817C818981C2
:100460009A810E94B41086EC9DE4009711F00E94DE
:10047000C64D85E59EE0009711F00E94550E83E180
:100480009CE7009711F00E94137C8EE59BE000979B
:1004900011F00E945E0B0E9418380E94C41586E776
:1004A0009FE06091840F0E948F0286E79FE00E9488
:1004B000CC0286E79FE00E94C202E0917A0FF091A1
:1004C0007B0F81E080830E94710202C00E94C315ED
:1004D0000E94BC100097D1F70E9407030E94C11030
:1004E000F5CF0F931F930E94674581E291E064E688
:1004F00070E040E052E02FEF39E100E010E00E94B0
:10050000B303181619062CF480E090E01F910F91A8
:10051000089586E291E06DE171E00E94F814CF92B7
:10052000DF92EF92FF920F931F93CF93DF937C01A3
:1005300088E690E00E94D210C82EE6016E01D92E06
:10054000E6012097A9F0F701D582C482C6010E9476
:10055000A5088C0197FD0FC000E010E0C801DF91F5
:10056000CF911F910F91FF90EF90DF90CF90089562
:1005700004EF1FEFF3CFC6010E94C610F7011582EA
:100580001482ECCFDC011496ED91FC91159781E07B
:10059000818380E090E00895CF93DF93EC018C811C
:1005A0009D810A960E94703800D000D088E391E0C7
:1005B000EDB7FEB79283818383E090E094838383D9
:1005C0000E948D3C0F900F900F900F900097A1F418
:1005D00080E090E061E070E00E94B13B80E090E05C
:1005E00062E070E00E94B13BCE010E94E5089C01F0
:1005F000C901DF91CF910895181619061CF029EE54
:100600003FEFF6CF0E94933B29EE3FEFF1CF1F93D0
:1006100009C01FB7F89483E794E10E94C10F1FBF80
:10062000009741F48091731490917414009789F7A6
:100630001F9108950E94C610F5CF2F923F924F92BE
:100640005F926F927F928F929F92AF92BF92CF9262
:10065000DF92EF92FF920F931F93CF93DF932C01C2
:10066000D62E3A014901580185E690E00E94D21049
:10067000192F282EE1011E01392EE101209709F4DE
:1006800063C0C1016D2D0E948F0297FD51C0C10151
:100690000E940A0997FD52C0C22C822D912FB401ED
:1006A0004D2D0E94561597FD32C0CE01B30140E298
:1006B00055E095010D2D0E94E10397FD28C0CE0164
:1006C000B201A7010E946104CE010E94C20297FDFF
:1006D0001EC0AE80EF808C2F912F0E94160597FDD3
:1006E00037C02A2D3E2DC901DF91CF911F910F9167
:1006F000FF90EF90DF90CF90BF90AF909F908F9042
:100700007F906F905F904F903F902F900895EE24D0
:10071000FF24E81AF90A8C2D912F6D2D0E94A00953
:100720000E945105FC01F182E0822FEF3FEFDBCF09
:10073000EE24FF24E81AF90AC22CEDCFEE24FF24A0
:10074000E81AF90AC22CE7CF8CE0E82EF12CE8CFAA
:100750000E945105FC01E080F180CE0165E474E166
:100760000E941C10D8CFEF92FF920F931F93CF934C
:10077000DF93FB01DA01E901780160E0AF019D013F
:100780008E010E941D03DF91CF911F910F91FF9069
:10079000EF900895EF92FF920F931F93CF93DF9303
:1007A000FB01DA01E901780162E0AF019D018E01F0
:1007B0000E941D03DF91CF911F910F91FF90EF9049
:1007C0000895CF92DF92EF92FF920F931F93CF93F2
:1007D000DF93EC01162F6A0179010E94CA0928E013
:1007E00030E061E070E011C0FC01E770F070EE0FE6
:1007F000FF1FEE0FFF1FE35BFB4E40815181411550
:10080000510551F121503040C9F0809171149091FF
:1008100072140196909372148093711480917114E4
:100820009091721418161906FCF27093721460936A
:100830007114E1E0F0E081E090E0D9CF0E94E90995
:100840002FEF3FEFC901DF91CF911F910F91FF90E3
:10085000EF90DF90CF900895D183C08393838283FC
:100860009F838E830E94E9091C87D986C886FB86F0
:10087000EA860370802F90E02E853F852C7F822BA7
:10088000932B9F878E87AE01425E5F4F83E090E09F
:1008900060E070E00E9467051D86CE010E94D515BC
:1008A0000E94CA09CE0165E474E10E94FA0F84E057
:1008B0008D870E94E909CE59DF4F188320E030E090
:1008C000C1CF2F923F924F925F926F927F928F9201
:1008D0009F92AF92BF92CF92DF92EF92FF920F93CF
:1008E0001F93CF93DF936C015A0185E491E00E943E
:1008F000E70EEC012196A114B10409F494C075012E
:1009000000E010E013C00E94E70E0196C80FD91F47
:10091000F60186899789C817D90708F07BC00F5F51
:100920001F4FF1E001301F0709F477C0F7018191F3
:1009300091917F01009739F7E2E0EE2EF12CE00E65
:10094000F11EEE0CFF1CB7016C0F7D1FC6010E944B
:100950002F171C01009709F463C0E80EF91EFC0173
:10096000F182E08285E491E00E94E70EEC01C7018C
:1009700065E471E00E94DE0E0115110541F121963A
:10098000CE0DDF1D62E0662E712C620C731C7501AA
:10099000AA24BB24F301C193D1933F014701F7017E
:1009A000819191917F010E94E70E2C01F4016081F9
:1009B0007181CE010E94DE0E0894411C511CC40DB1
:1009C000D51D0894A11CB11CA016B1061CF3F8019A
:1009D0003196EE0FFF1FE20DF31D11821082F6011A
:1009E000ED59FF4F3182208220E030E0C901DF91D4
:1009F000CF911F910F91FF90EF90DF90CF90BF901C
:100A0000AF909F908F907F906F905F904F903F90AE
:100A10002F9008952CED3FEFE9CF29EF3FEFE6CF80
:100A200024EF3FEFE3CF00E010E086CF1F931FB726
:100A3000F8940E944D171FBF80E090E01F91089529
:100A4000A0914114B0914214FD01ED59FF4F608116
:100A50007181FB01329681E090E005C0019621E0B2
:100A60008130920761F02191319121153105B1F763
:100A70001A96ED91FC911B9709950E94430581E020
:100A800090E00E9443052091411430914214C82FF8
:100A9000D0E0C901BE0140E00E94260ACE010E94BA
:100AA000B8150E94F515882349F4E0914114F0919E
:100AB0004214309719F08585833021F02FED3FE007
:100AC000C90108959F012A5C3F4FC9010895CF9243
:100AD000DF92EF92FF920F931F93CF93DF936C01FE
:100AE000EB017A0100914114109142140E94CA094D
:100AF000F801868D978DA0A1B1A1E114F10429F030
:100B0000F70180839183A283B383209709F457C0B0
:100B10006FB7F894F2E0CF16D104C9F123E0C21602
:100B2000D104A9F031E0C316D104E9F0CFEFDFEF33
:100B30006FBF0E94E2050E94E909CE01DF91CF91CB
:100B40001F910F91FF90EF90DF90CF9008958881D3
:100B50009981AA81BB81F801868F978FA0A3B1A349
:100B6000C0E0D0E0E5CFF801868D978DA0A1B1A1BE
:100B7000288139814A815B81822B932BA42BB52B51
:100B8000868F978FA0A3B1A3C0E0D0E0D1CF2881FA
:100B900039814A815B812095309540955095F801C7
:100BA000868D978DA0A1B1A182239323A423B52381
:100BB000868F978FA0A3B1A3C0E0D0E0B9CFC0E0EB
:100BC000D0E0B9CFCF92DF92EF92FF920F931F93B5
:100BD000DF93CF9300D000D0CDB7DEB7C0904114E3
:100BE000D09042140E94CA09F601E68CF78C00A14D
:100BF00011A1E094F09400951095C6010E94B50BE8
:100C00006E217F218023912369837A838B839C8348
:100C10007E010894E11CF11C0CC0C7010E949C06D7
:100C20008C01FFEF8F3F9F07C1F469817A818B812F
:100C30009C81611571058105910579F70E94E9098B
:100C40000F900F900F900F90CF91DF911F910F9108
:100C5000FF90EF90DF90CF900895C701B8010E94F8
:100C6000390FC601B8010E9442068C010097E9F2D3
:100C7000BC016E5F7F4FC6010E94C206C8010E9480
:100C80007C06D3CFEF92FF921F93CF93DF93FC01AB
:100C9000A481B5811FB7F8941296ED91FC9113973A
:100CA000309739F1828190E08617970739F41BC09D
:100CB0002A8130E02617370769F0FE01C081D18113
:100CC0002097B1F71FBFCE01DF91CF911F91FF9009
:100CD000EF900895309741F0BD016E5F7F4FCF01D7
:100CE0000E94D70FEFCFEF01CD0102960E94C10FF6
:100CF000E9CFC0E0D0E0E6CF1F93FC01268122239C
:100D000031F0223089F0213059F01F9108951FB73A
:100D1000F89467E874E10E947E0F1FBF1F91089549
:100D20000E9468091F9108951FB7F89463E874E161
:100D30000E947E0F1FBFE9CFEF92FF920F931F9388
:100D4000CF93DF938C01C0E0D0E004C02196C03285
:100D5000D10571F0C801BE010E94660F0097B1F382
:100D6000CE01DF91CF911F910F91FF90EF900895E9
:100D7000CFEFDFEFCE01DF91CF911F910F91FF9069
:100D8000EF900895CF92DF92EF92FF920F931F930F
:100D9000CF93DF93EC018B01FB0160814E9670E0F5
:100DA0000E94660F009791F1EFB6F8948D8586301A
:100DB00009F480C0EFBE0C80DD81C02DF801908168
:100DC0002FB7F894EA81FB81309731F408C0019085
:100DD000F081E02D309719F082819817C1F72FBF6D
:100DE000309709F483C0CF010296B80144E050E087
:100DF0000E94FA0EEE24FF24C701DF91CF911F91CC
:100E00000F91FF90EF90DF90CF9008950E94CA0954
:100E1000F8016081CE0170E00E94140C7C01009703
:100E200009F445C0FC0182819381009709F43FC019
:100E30000E94440C6C01009709F492C0F701828172
:100E40009381F60193838283F70184819581A68142
:100E5000B781F60184839583A683B783C60108967C
:100E6000B80144E050E00E94FA0EEFB6F894BE01DB
:100E7000665D7F4FC6010E947E0FEFBEEE24FF2409
:100E80000E94E909CE016AEE77E00E947816CFB69B
:100E9000F8948D85863009F468C0CFBE853009F09E
:100EA000ABCFCE0164E070E00E94980AA5CFEE249B
:100EB000FF24E6CFF8016081CE01829670E00E94A7
:100EC000660F009709F476CFCE01C296B80144E0D0
:100ED00050E00E94FA0E1AA21BA21CA21DA2CE0173
:100EE0000E944D17EFBEEE24FF2486CF0E94F51519
:100EF0008823E9F087E894E10E94C10FE82EF92EDB
:100F0000E114F10409F441C0C7010296B80144E0BC
:100F100050E00E94FA0E0FB7F894BE016E5F7F4F4B
:100F2000C7010E947E0F0FBFEE24FF2465CFCFB60E
:100F3000F89487E894E10E94C10FE82EF92ECFBE05
:100F4000E114F10409F787E090E00E94CC10E82E4C
:100F5000F92EE114F10419F181E0F7018683D4CF71
:100F600084EFE82E8FEFF82E8BCFCE01C296B8011A
:100F700044E050E00E94FA0E1AA21BA21CA21DA27D
:100F8000CE010E944D178D8588CF83E894E10E94A1
:100F9000C10FE82EF92EE114F10409F0B5CF8EE46B
:100FA00091E060E671E00E94F814CF93DF93EB01CB
:100FB0000E948909009741F0BE010E94C2069C016F
:100FC000C901DF91CF9108952DEF3FEFC901DF9166
:100FD000CF9108952F923F924F925F926F927F929E
:100FE0008F929F92AF92BF92CF92DF92EF92FF9239
:100FF0000F931F93DF93CF9300D000D000D0CDB7D5
:10100000DEB78C010E94CA09D801D6960D90BC911A
:10101000A02DBC83AB83F80102A4F3A5E02DFE83D1
:10102000ED83309709F46FC09801265D3F4F3A83F6
:1010300029839EE2892E912C800E911E81E0282E1C
:10104000312C412C512C02C0BE82AD82AD81BE81BB
:10105000AD90BC90CFB6F8947D806E80872D962D94
:1010600069817A810E94950F8D819E81B4010E94D1
:101070007E0FCFBEF801C68CD78CE0A0F1A0ED8129
:10108000FE8184819581A681B7818C299D29AE2915
:10109000BF29A2019101008404C0220F331F441F05
:1010A000551F0A94D2F7822B932BA42BB52BF80152
:1010B000868F978FA0A3B1A36D817E81685F7F4FDC
:1010C000AD81BE811296ED91FC91139718968C918B
:1010D00090E040E050E00995F801C68ED78EE0A27E
:1010E000F1A20E94E205CFB6F894872D962DB401A7
:1010F0000E94950FCFBE8D819E810E94710CA1141C
:10110000B10409F0A1CFEB81FC81D801D796FC9303
:10111000EE93D6970E94E90926960FB6F894DEBFA3
:101120000FBECDBFCF91DF911F910F91FF90EF9038
:10113000DF90CF90BF90AF909F908F907F906F90F7
:101140005F904F903F902F900895EF92FF920F93F2
:101150001F93CF93DF937C010091411410914214AF
:101160000E94CA09D8011496ED91FC911597309709
:1011700021F080859185009761F4C0E0D0E00E9465
:10118000E909CE01DF91CF911F910F91FF90EF9070
:101190000895C681D781CE010E94CC10009791F0AE
:1011A000F701D783C68391878087D8011496ED9184
:1011B000FC91159760857185AE010E94FA0EC0E022
:1011C000D0E0DDCFC4EFDFEFDACFEF92FF92CF9325
:1011D000DF93EC018C819D810E94461080E090E0BD
:1011E00061E070E0AE010E94873E81E090E066E041
:1011F00070E0AE010E94873E82E090E066E070E021
:10120000AE010E94873E80E090E0DF91CF91FF9099
:10121000EF9008958F929F92AF92BF92CF92DF92FC
:10122000EF92FF920F931F93CF93DF935C01FC012A
:10123000848195810A960E947038F501C480D5801A
:10124000E0914114F0914214E480F5808701C0E000
:10125000D0E0F80182899389009721F14E012C2F6B
:10126000392DC901880F991F220F331F220F331FF9
:10127000220F331F820F931F0C962C2F392DB9018B
:10128000660F771F220F331F220F331F220F331FCA
:10129000620F731F645F7F4F6C0D7D1D8E0D9F1D50
:1012A0000E949B382196065F1F4FC630D10589F6F4
:1012B000C5010E94E508DF91CF911F910F91FF902A
:1012C000EF90DF90CF90BF90AF909F908F90089558
:1012D0001F93CF93DF93EC010E94F515882321F42F
:1012E0000E94BC10009761F01FB7F894CE0163E72D
:1012F00074E10E947E0F1FBFDF91CF911F9108956F
:10130000CE010E94C6100E94C110DF91CF911F91A3
:10131000089597FF04C020E030E0C9010895FC0162
:10132000E770F070EE0FFF1FEE0FFF1FE35BFB4E49
:10133000228133812817390771F720813181EDCF60
:10134000CF93DF93EC01009789F0EE81FF81309716
:1013500091F4888D998D009719F0CE010E9468163E
:10136000CE010E94DD0CCE010E94680980E090E071
:10137000DF91CF910895E770F070EE0FFF1FEE0F31
:10138000FF1FE35BFB4E118210828FEF9FEF938371
:101390008283DFCFCF93DF93C0914114D091421469
:1013A000209761F00E94F515882341F48889998976
:1013B0008F37910544F40196998B888B80E090E0FB
:1013C000DF91CF91089584E691E069E670E00E9494
:1013D000F8141F93CF93DF93C0914114D09142141E
:1013E000209771F10E94F515882351F51FB7F894E5
:1013F000888999890097E9F4198A188A80916D146F
:1014000090916E14009711F00E943A168E8584FF19
:1014100016C08A899B89009791F48091411490911C
:1014200042148C179D0759F084E190E09B8B8A8BC6
:1014300006C00197998B888B18161906ECF61FBF0A
:1014400080E090E0DF91CF911F9108950F931F935B
:10145000DF93CF930F92CDB7DEB78C01DC011E96E0
:101460008C911E9785FF06C00F90CF91DF911F9141
:101470000F910895C80149830E94630A498144235A
:1014800051F4D8011496ED91FC911597309719F00D
:101490008181813091F0C8010E94DD0CC8010E9459
:1014A000910CF801868597858062978786870F90D3
:1014B000CF91DF911F910F910895CF01885B9F4FCE
:1014C0000E948B0EE8CFCF93DF93EC010E946E0A4F
:1014D000CE010E94850ADF91CF9108951F93CF938B
:1014E000DF93EC011FB7F8948C899D89009741F038
:1014F0000E94050D8C899D890E945E0D1D8A1C8AA3
:101500001FBFDF91CF911F910895FC012FB7F89471
:101510008585853059F4A48DB58D8D919C91119759
:10152000019611969C938E93158E148E2FBF08955D
:101530001F93FC011FB7F8948585853019F01FBFF4
:101540001F910895A48DB58D8D919C911197019651
:101550008D939C93158E148E77AB66ABCF010E9452
:101560004D171FBF1F9108956F927F929F92AF9268
:10157000BF92CF92DF92EF92FF920F931F93CF9380
:10158000DF936C017B01B42ECB01880F991F860F6E
:10159000971F880F991F880F991F860F971F0E940A
:1015A000CC10982EA92EE114F10499F0982F692EF1
:1015B000E3013E017A2CE30100E010E0BC86CE019D
:1015C0002D96B6010E947E0F0F5F1F4F0E151F054F
:1015D000A8F3892D9A2DDF91CF911F910F91FF9044
:1015E000EF90DF90CF90BF90AF909F907F906F90E3
:1015F00008956F927F929F92AF92BF92CF92DF92A7
:10160000EF92FF920F931F93CF93DF936C017B01B7
:10161000B42ECB01880F991F880F991F880F991F2F
:10162000861B970B0E94CC10982EA92EE114F10472
:1016300099F0982F692EE3013E017A2CE30100E036
:1016400010E0BE82CE012796B6010E947E0F0F5F8A
:101650001F4F0E151F05A8F3892D9A2DDF91CF91ED
:101660001F910F91FF90EF90DF90CF90BF90AF90C0
:101670009F907F906F900895EF92FF920F931F932A
:10168000CF93DF9380EB90E00E94CC10EC0190931D
:10169000E20F8093E10F8C0100551F4FCE012B9676
:1016A00067E774E10E947E0FC017D107B9F7DF9199
:1016B000CF911F910F91FF90EF90089510927814A1
:1016C0001092771410927A141092791410927C145C
:1016D00010927B1410927E1410927D14109280143C
:1016E00010927F1410928214109281141092881418
:1016F0001092871410928A141092891410928414F4
:101700001092831410928614109285148BE794E142
:1017100060E170E040E00E94B40A9093E40F80938F
:10172000E30F8FE794E168E070E042E00E94B40AC2
:101730009093E60F8093E50F0E943C0B87E894E1BD
:1017400060E170E040E00E94F90A9093E80F809316
:10175000E70F83E894E168E070E042E00E94F90A54
:101760009093EA0F8093E90F0895DF92EF92FF9232
:101770000F931F93DF93CF9300D000D0CDB7DEB788
:10178000DC011496ED91FC91159719821A821B8247
:101790001C82DFB6F894028113810115110521F135
:1017A0007E010894E11CF11CF8016281C70170E020
:1017B0000E94070FD8010D911C9111970115110579
:1017C00099F729813A814B815C81DFBEB901CA0159
:1017D0000F900F900F900F90CF91DF911F910F916D
:1017E000FF90EF90DF90089520E030E040E050E07F
:1017F000ECCFCF93DF93EC01809141149091421490
:10180000209761F00E94B50B688379838A839B835C
:1018100020E030E0C901DF91CF9108952FEF3FEF35
:10182000C901DF91CF910895EF92FF920F931F931B
:10183000CF93DF93EC018B010097E1F00E94CA097E
:101840000EA0DFA1C02D209731F40AC00990D881E5
:10185000C02D209729F08A8590E080179107B1F775
:101860000E94E909CE01DF91CF911F910F91FF9066
:10187000EF900895C0E0D0E0CE01DF91CF911F91AD
:101880000F91FF90EF9008951F930E94F515882304
:1018900059F08BE794E10E94C10FE82FF92F3097A0
:1018A000C9F0CF011F9108951FB7F8948BE794E119
:1018B0000E94C10FE82FF92F1FBF309791F78DE0DD
:1018C00090E00E94CC10E82FF92F309751F381E07F
:1018D0008487E7CF8FE794E10E94C10FE82FF92FAB
:1018E000E0CF1F93FC012485222331F0223089F0C0
:1018F000213059F01F9108951FB7F8946BE774E1F8
:101900000E947E0F1FBF1F9108950E9468091F91BA
:1019100008951FB7F8946FE774E10E947E0F1FBF10
:10192000E9CF0F931F93CF93DF938C01EC01A69621
:1019300003C0C9010E94960DCE010E94C10F9C01F7
:101940000097B9F7E801AA9603C0C9010E94710C7B
:10195000CE010E94C10F9C010097B9F7E801AE9635
:1019600003C0C9010E94710CCE010E94C10F9C01ED
:101970000097B9F78FEF9FEFAFEFBFEFF801868FBA
:10198000978FA0A3B1A312A213A214A215A2DF9154
:10199000CF911F910F910895CF93DF93EC01229681
:1019A00003C0C9010E947C06CE010E94C10F9C01A8
:1019B0000097B9F7DF91CF9108950F931F93CF93BD
:1019C000DF938C01FC01C481D581209741F089818E
:1019D000823050F081508983F80115821482DF91A2
:1019E000CF911F910F910895CE010E94CC0CCE0192
:1019F0000A960E947738CE010E947D10CE010E9487
:101A0000450ECE010E946809E7CF1F93CF93DF9365
:101A1000EC011FB7F894009741F42FEF3FEF1FBF81
:101A2000C901DF91CF911F9108958E8180FFF5CF7D
:101A3000A0919114B0919214109769F0CA17DB0726
:101A400029F438C0CE17DF0761F0DF01ED91FC917A
:101A500011973097B9F787E791E061E870E00E944D
:101A6000F814CD01A081B181109761F014962D91E9
:101A70003C91159744815581240F351F15963C9351
:101A80002E931497009789F061E974E10E94D70FB3
:101A9000198218828E818E7F8E8320E030E01FBFF6
:101AA000C901DF91CF911F91089581E994E10E94CE
:101AB000C10FEECFFE0180E090E0D4CF1F93CF9313
:101AC000DF93EC011FB7F8948E8180FD1FC081FD6C
:101AD00023C082FF06C080E090E0DF91CF911F918C
:101AE0000895CE016BE874E10E947E0F80918F14FF
:101AF0009091901401969093901480938F141FBF2F
:101B000080E090E0DF91CF911F910895CE010E9477
:101B1000050D8E8181FFDDCF1FBFCE010E946809B8
:101B200080E090E0DF91CF911F91089567E774E125
:101B30000E947E0F08958F929F92AF92BF92CF9294
:101B4000DF92EF92FF920F931F93CF93DF936C017D
:101B50007B018A01A0904114B090421480E2C81623
:101B6000D10408F075C0C501B6010E94140CEC0147
:101B700001151105A1F0009709F44DC08A819B81E0
:101B8000F801918380838C819D81AE81BF818283A6
:101B90009383A483B5838885998597838683E1148D
:101BA000F10441F1F70180819181009731F1209793
:101BB000E1F1F701808191819B838A838281938106
:101BC000A481B5818C839D83AE83BF8386819781F9
:101BD0009987888720E030E0C901DF91CF911F917C
:101BE0000F91FF90EF90DF90CF90BF90AF909F90BC
:101BF0008F90089520E030E0EFCF2097D9F3B50122
:101C00006A5D7F4FCE010E94950FCE010E94960D16
:101C100020E030E0E1CFF8011182108212821382BD
:101C20001482158217821682BACF87E794E10E9448
:101C3000C10F882EE4014E01992EE401209791F006
:101C4000CA86B5016A5D7F4FCE010E947E0FB1CF7B
:101C50000E94510526E130E0FC01318320832FEF03
:101C60003FEFBACF0E943C0B87E794E10E94C10F7F
:101C7000E82FEF014E01992EE401209709F788E83B
:101C800091E068E670E00E94F814CF93DF93EC01D6
:101C900088859985009711F00E9468091F821E822D
:101CA00019861886DF91CF9108950F931F93CF93D4
:101CB000DF930BE814E110928C1410928B141092A5
:101CC0008E1410928D1410929214109291141092FE
:101CD000941410929314CBEEDFE0CE01B8010E9471
:101CE0007E0FCE014096B8010E947E0FCE018096F5
:101CF000B8010E947E0FCE01C096B8010E947E0FEF
:101D000084E090E09093901480938F14DF91CF91B2
:101D10001F910F910895CF92DF92EF92FF920F9350
:101D20001F93CF93DF937C010097C1F10E94821033
:101D3000E70100E010E0CC24DD2406C00F5F1F4F58
:101D4000259606301105E9F08A819B8197FDF6CF33
:101D50008C8181FFF3CFC801880F991F880F991FCD
:101D6000800F911F02968E0D9F1D61E00E94D10E83
:101D700097FFE4CF6C010F5F1F4F259606301105CA
:101D800019F7C7010E949C10C601DF91CF911F91E6
:101D90000F91FF90EF90DF90CF900895CC24DD2439
:101DA000F3CF80E090E008954115510531F0E82F20
:101DB000F92F619341505040E1F70895A62FB72FB6
:101DC000E82FF92F2D9121932223E1F70895FC01AB
:101DD0002081222361F031965E2F4F2F2191222303
:101DE000D9F7252F342F281B390BC901089520E07E
:101DF00030E0FBCF4115510549F0A82FB92FE62F50
:101E0000F72F21912D9341505040D9F70895EF922B
:101E1000FF920F931F93FC016032710500F581E082
:101E2000E82EF12C012D112D04C0EE0CFF1C001F1B
:101E3000111F6A95D2F720813181428153812E2969
:101E40003F29402B512B208331834283538320E051
:101E500030E0C9011F910F91FF90EF9008950E940B
:101E6000510526E130E0FC01318320832FEF3FEF65
:101E7000F0CFFC0160327105F8F421E030E040E081
:101E800050E004C0220F331F441F551F6A95D2F73C
:101E90002095309540955095608171818281938124
:101EA00062237323842395236083718382839383C6
:101EB00020E030E0C90108950E94510526E130E09C
:101EC000FC01318320832FEF3FEFF4CF60327105A7
:101ED00088F4FC0180819181A281B38104C0B69510
:101EE000A795979587956A95D2F79C0121703070D8
:101EF000C90108952FEF3FEFC9010895FB01DC01EF
:101F000011961C921E92208131812115310541F0DC
:101F1000A281B38111969C938E93938382830895BB
:101F200091838083938382830895FB01A081B18193
:101F30001097C9F00097B9F0A817B907A9F0ED916B
:101F4000FC911197E817F90739F40AC02081318113
:101F50002817390721F0F9013097C1F70895DF01FB
:101F6000CD010E94D70F08958D919C911197918377
:101F7000808382819381A817B907A9F713821282FF
:101F80000895DC01ED91FC911197309749F0808123
:101F9000918111969C938E93009721F0118210826B
:101FA000CF01089513961C921E921297F7CFCF93EC
:101FB000DF93DC01EB01ED91FC9111978881998110
:101FC000009771F0309761F08A819B818E179F078F
:101FD00059F08081918111969C938E931182108289
:101FE000CF01DF91CF910895BB83AA8311961C92F4
:101FF0001E92F4CFCF93DF93FC01DB011382128298
:102000008D919C91119791838083CD91DC91119753
:10201000209741F0FB83EA831196FC93EE93DF91C6
:10202000CF9108951196FC93EE931396FC93EE9343
:102030001297DF91CF910895CF93DF93FC018281B6
:102040009381A081B181009781F0EC01B983A883CD
:10205000109781F013969C938E93129711821082A1
:1020600013821282DF91CF910895EB01B983A88387
:10207000109781F7DB0113969C938E931297118230
:10208000108213821282DF91CF910895CF92DF9256
:10209000EF92FF920F931F93CF93DF93EC01885B36
:1020A0009F4F60E070E041E050E00E949F108AE4A2
:1020B000E82EF12CEC0EFD1E8701C0E0D0E0CC2410
:1020C000CA94DC2CC7018C0F9D1F60E070E045E0D6
:1020D00050E00E94D40EF801D182C08225960B5F99
:1020E0001F4FCE31D10571F7DF91CF911F910F9125
:1020F000FF90EF90DF90CF900895885B9F4F0E94F4
:102100004D4B0895CF93DF93EC0108C00E94510519
:10211000FC01808191818430910541F4CE010E94BF
:102120006A4B009799F7DF91CF9108958CE991E080
:1021300061E570E00E94F8140E940D4C089500972C
:1021400049F057FD07C0FC015183408320E030E097
:10215000C90108950E94510526E130E0FC01318358
:1021600020832FEF3FEFF4CF9C01AB0185E994E191
:10217000B9010E941911089585E994E10E946D1139
:10218000089585E994E10E94CE110895BC0185E986
:1021900094E10E946D120895BC0185E994E10E94CA
:1021A000FE120895BC0185E994E10E94851308950B
:1021B000CF93DF93FC01DB011F96A07F460F571FD3
:1021C000407F9A012A1B3B0B86819781820F931FC8
:1021D00097838683B187A08784E090E011969C93D3
:1021E0008E93C085D18560E070E87B836A83BD01F2
:1021F0006C5F7F4F2850304015963C932E93149778
:10220000EB019B838A834450504053874287EA0105
:1022100099838883C285D38514968D919C91159757
:1022200090689B838A83CF010E94EA11DF91CF914E
:102230000895EF92FF920F931F93CF93DF93EC01DA
:102240008B017A011F821E820C9660E070E040E6EE
:1022500050E00E94D40EFE0121E030E0C901880F59
:10226000991F880F991F880F991F0C968C0F9D1F1F
:10227000918B808BC901880F991F880F991F880F38
:10228000991F04968C0F9D1F938F828F2F5F3F4F56
:1022900038962C30310511F7CE010E945B11CE012A
:1022A000B801A7010E94D810DF91CF911F910F9123
:1022B000FF90EF900895CF93DF93EC0160E070E022
:1022C00041E050E00E949F108FEF9FEF9B838A8335
:1022D0001D821C82DF91CF9108950F931F93CF939E
:1022E000DF93EC010E9476488C018A819B818017E4
:1022F000910769F48C819D8101969D838C8320E0F8
:1023000030E0C901DF91CF911F910F910895CE0167
:102310000E94D04B009749F41B830A8381E090E030
:102320009D838C8320E030E0ECCF2FEF3FEFE9CFAF
:102330000F931F93CF93DF93EC010E9476488C019B
:102340008A819B818017910749F418C00E9451052A
:10235000FC018081918184309105D1F4CE010E94ED
:102360006A4B009799F71B830A8381E090E09D8375
:102370008C83DF91CF911F910F9108958C819D8166
:1023800001969D838C83DF91CF911F910F910895CA
:1023900081EB91E06BEA70E00E94F814FC0184810B
:1023A00095818230910524F0019795838483089567
:1023B0008FEF9FEF9383828315821482CF010E9457
:1023C0000D4C009709F4089581EB91E06CED70E0FD
:1023D0000E94F8140F931F93CF93DF93EC018B01AE
:1023E000DB018D919C910E945012AC01440F551F4E
:1023F000440F551F440F551F445F5F4F4C0F5D1F27
:10240000FC013296EE0FFF1FEE0FFF1FEE0FFF1FB6
:10241000EC0FFD1FA081B1811097D9F08D919C9197
:1024200011970097D9F1F801208131818217930724
:1024300048F034C0808191810097D1F082179307D2
:10244000B8F4DF011496ED91FC911597309791F750
:10245000AD01DA0115961C930E931497F80157837A
:10246000468315821482DF91CF911F910F910895B9
:10247000AD01DA0115961C930E931497D8011796A7
:102480005C934E9316971596FC93EE9314971783CF
:102490000683DF91CF911F910F910895FD01E9CF40
:1024A00097FD14C0929582958F7089279F70892718
:1024B0008230910578F020E030E02F5F3F4F969515
:1024C000879582309105C8F7C90108952BE030E067
:1024D000C901089520E030E0F7CFEF92FF920F930B
:1024E0001F93CF93DF937C018B016115710509F474
:1024F0007EC00E949811F8013497828193819F7762
:1025000093838283A081B181AE0FBF1F12962D915C
:102510003C91139737FD35C08D919C9111978A0F8F
:102520009B1F16962D913C91179714964D915C9197
:102530001597E9015D834C8314962D913C91159775
:102540002115310539F016964D915C911797E901E7
:102550005F834E834D915C9120813181420F531FE7
:1025600051834083DC0112962D913C91139720708A
:102570003078242B352B13963C932E93129782811F
:102580009381EF01C81BD90BCE012A813B8137FD16
:1025900027C02E813F814C815D81E9015D834C83A1
:1025A000EC012C813D812115310529F04E815F819F
:1025B000E9015F834E8340815181FC01208131819B
:1025C000420F531F5183408312962D913C911397D4
:1025D00020703078242B352B13963C932E93129732
:1025E000C701BF010E94EA11C7010E94CE11DF910D
:1025F000CF911F910F91FF90EF900895EF92FF926E
:102600000F931F93CF93DF938C016115710551F4E4
:10261000C0E0D0E0CE01DF91CF911F910F91FF90EC
:10262000EF90089593E1E92EF12CE60EF71E20EFCE
:102630003FEFE222F322C8010E949811F7FC46C046
:10264000C7010E945012FC013296EE0FFF1FEE0FE1
:10265000FF1FEE0FFF1FE00FF11FC081D1812097F8
:1026600031F431C00C80DD81C02D209761F188816B
:1026700099818E159F05B0F3EE81FF818C819D813C
:1026800095838483EC81FD81309721F08E819F8139
:102690009783868328813981C9018E199F098830E3
:1026A0009105B8F48A819B8190689B838A832496E4
:1026B000C8010E94CE11CE01DF91CF911F910F91E1
:1026C000FF90EF900895C0E0D0E0F2CFEBE0F0E0B3
:1026D000BBCFFE01E20FF31FBE016E0D7F1DDB01BC
:1026E00011969C938E931396FC92EE921297F98218
:1026F000E8824281538140705078482B592B538394
:102700004283C8010E94EA11CDCFEF92FF920F934E
:102710001F93CF93DF938B010E94FE12EC01009771
:1027200029F060E070E0A8010E94D40ECE01DF9194
:10273000CF911F910F91FF90EF900895DC013F9191
:102740002F919EB79D938DB78D931496DD93CD9366
:1027500016961D930D93FD92ED92DD92CD92BD9252
:10276000AD929D928D927D926D925D924D923D9231
:102770002D9211241D9211960FB60D9212963D9333
:102780002D93CB01DC01ED01A3969D919EBF8D9110
:102790008DBF999189918F939F939D918D918F93E7
:1027A0009F93FD91ED91DD91CD917D916D915D9125
:1027B0004D913D912D911D910D91FD90ED90DD90EC
:1027C000CD90BD90AD909D908D907D906D905D90E1
:1027D0004D903D902D901D900D908D918FBF9D91AE
:1027E0008D91BF91AF91089588E10FB6F8948093D1
:1027F0006000109260000FBEE1E6F0E080E88083A8
:1028000010820E94CB190E9496140E94644508957C
:1028100087EE9FEF0895FB01309721F08091C00073
:10282000808311828091C60090E00895662331F480
:102830008091C1008F778093C10008958091C1007D
:1028400080688093C10008958091C000881F882708
:10285000881F08956093C60008959091C00081E09C
:1028600095FF80E008959091C00081E096FF80E0A0
:1028700008951F931FB7F894662341F48091C10017
:102880008F798093C1001FBF1F9108958091C1006F
:1028900080628093C10082EF91E00E944D441FBF8F
:1028A0001F9108958091C00085FF04C082EF91E0E0
:1028B0000E944D4480E090E00895E1ECF0E08081DA
:1028C000809300008F71808383E190E060E070E08E
:1028D0000E94DD4584E190E060E070E00E94DD450B
:1028E000089583E190E060E874E10E94DD4584E1B1
:1028F00090E062E574E10E94DD4580E090E008959B
:102900008091C00087FD03C080E090E0089582EFD1
:1029100091E00E94A84480E090E008950E94AD19E3
:1029200008950E94BA1980E090E00895E1ECF0E08B
:102930008081809300008F71808381E08093F50116
:102940000E94BA190895CF93DF93C2EFD1E082ECD1
:1029500091E0BE010E94FE438FEC91E0BE010E9417
:10296000FE43DF91CF910895EF92FF921F93CF9393
:10297000DF93EC011091C100812F8F718093C10012
:10298000CA30D10589F08C2F0E94CE198091C100E8
:102990008F71107E182B1093C100CE01DF91CF9163
:1029A0001F91FF90EF9008958DE00E94CE19EBCF1C
:1029B0000F931F93CF93DF93EC018B0180E090E0A6
:1029C0000E94BC4580910001909101019983888308
:1029D00080E091E42091000130910101821B930B72
:1029E000F80191838083DF91CF911F910F9108951A
:1029F000DF93CF9300D0CDB7DEB78C0182E090E0BB
:102A000069837A830E94BC458DB79EB70A970FB63B
:102A1000F8949EBF0FBE8DBFEDB7FEB7319683E031
:102A200090E0ADB7BEB712969C938E93119784E158
:102A300092E0938382838EE392E09583848317836D
:102A4000068369817A81718760870E94AE5EEDB7E7
:102A5000FEB73A960FB6F894FEBF0FBEEDBF0E94C8
:102A600094178091011590910215009799F08FB7F6
:102A7000F89480E090E00E94BC458AEF90E00E94CC
:102A8000071680E090E00E94CD458AEF90E00E941A
:102A90000716EFCFE0914114F0914214868197819F
:102AA000009729F381E090E00E9443050F931F9364
:102AB000CF93DF93EC018B01888D998D009711F1F5
:102AC0002E893F892617370741F0CE01642F0E94D7
:102AD0006816888D998D0097A9F098012150304093
:102AE000280F391F3B8F2A8F1F8B0E8B81E090E0C0
:102AF0000E94BC4520E030E0C901DF91CF911F91D9
:102B00000F910895C8010E94CC10998F888F00976B
:102B100021F72FEF3FEFF0CFFF920F931F93CF934B
:102B2000DF93F82E8B0182E090E00E94BC45C091BB
:102B30000115D091021510930215009301158F2DE8
:102B400090E0B8010E94F845F0900115009102153F
:102B5000D0930215C093011582E090E00E94CD450C
:102B60008F2D902FDF91CF911F910F91FF9008959E
:102B70008FB7F8940E94EC478091411490914214D1
:102B8000CD960E94C213089510920215109201155D
:102B90000E94FF150E94DA190E9424450E94A31486
:102BA00080E090E00E94BC450895CF93DF93EC0154
:102BB000C89660E070E04AE250E00E94D40E8A8D30
:102BC0009B8D9DAF8EAF88859985FE01E05AFF4FA2
:102BD0009083FE01EF59FF4F80838FB7C35ADF4FB9
:102BE00080688883DF91CF91089581E0209101155D
:102BF000309102152115310509F480E008951092F5
:102C00000215109201158FB780688FBF0895DF936A
:102C1000CF9300D000D0CDB7DEB71A8219822981B8
:102C20003A8128173907F8F41C821B822B813C81DA
:102C300043E02837340764F42B813C812F5F3F4FFA
:102C40003C832B832B813C8143E028373407A4F35A
:102C500029813A812F5F3F4F3A83298329813A8125
:102C60002817390708F30F900F900F900F90CF910E
:102C7000DF910895CF93DF93C0914114D091421416
:102C80000E94C4468823A1F060910115709102153D
:102C90006115710581F0CE01CD960E94F1198091E8
:102CA000411490914214CD96909302158093011592
:102CB000DF91CF9108956091411470914214635C4B
:102CC0007F4FCE01CD960E949E13DF91CF91089544
:102CD000CF93DF93EC01888D998D009721F00E94AE
:102CE0006809198E188E1F8A1E8ADF91CF91089568
:102CF0001F93CF93DF93FC0180AD91AD009721F03E
:102D0000DF91CF911F9108951FB7F894A0914114BE
:102D1000B0914214AE17BF07F1F071AF60AF9F01E1
:102D20002F593F4FD9018C9182AFEF01C05ADF4F2D
:102D3000888183AFDF01A35ABF4F4C9144AF8DED23
:102D400096E1F901808398834F774C931FBFDF9101
:102D5000CF911F910895E0910115F09102153097E0
:102D600041F1D9967C936E93D89784A1DA968C938F
:102D7000DA9783A1DB968C93DB9780A1DC968C930A
:102D8000DC978DED96E184A3E0910115F091021599
:102D900093A3E0910115F091021580A18F7780A394
:102DA0006091011570910215CD01CD960E94F11927
:102DB000CDCFCD01FB010995C9CFEF92FF920F93C3
:102DC0001F93DF93CF93CDB7DEB7A5970FB6F894D7
:102DD000DEBF0FBECDBF0091411410914214D80147
:102DE000D696ED90FC90D79782E090E00E94BC458B
:102DF000F80180AD91AD009761F1B801635C7F4F40
:102E0000CE0101960E94F119D801DA968C91DA97D9
:102E10008DA3DB968C91DB978CA3DC968C91DC9751
:102E200089A3D896ED91FC91D997D9961C921E92C0
:102E3000D8978FBFC80109958FB7F894F801F7AA02
:102E4000E6AA82E090E00E94CD45CE0101960E9464
:102E5000C21388E492E063E670E00E94F814FC017B
:102E6000808D918D009721F420E030E0C901089514
:102E70008689978968177907B8F7228D338D261BC5
:102E8000370B228F338F861B970B978B868B35AF33
:102E900026AF2F5F3F4FC90108950F931F93CF9324
:102EA000DF93EC0100914114109142148D85845000
:102EB0008330A0F5CE010E94284784E190E09B8BEF
:102EC0008A8BCE010E9424468823A1F060910115CF
:102ED000709102156115710591F0C801CD960E949F
:102EE000F1198091411490914214CD96909302155E
:102EF00080930115DF91CF911F910F9108956091FB
:102F0000411470914214635C7F4FC801CD960E94BA
:102F10009E13DF91CF911F910F9108958CE592E060
:102F200069E570E00E94F814AF92BF92CF92DF92F1
:102F3000EF92FF920F931F93CF93DF93E091411491
:102F4000F09142140DB72EB7922F80E010E0082BBD
:102F5000192B86819781009709F088C1C0910001E3
:102F6000D09101012197A12C42E0B42E8DB79EB7DC
:102F700008970FB6F8949EBF0FBE8DBFEDB7FEB792
:102F8000319633E0C32ED12CADB7BEB71296DC928A
:102F9000CE92119781E792E09383828322E9E22E19
:102FA00023E0F22EF582E482178306830E94AE5E50
:102FB000EDB7FEB73196ADB7BEB71296DC92CE92A2
:102FC000119787E892E093838283F582E482D78326
:102FD000C6830E94AE5EEDB7FEB73196ADB7BEB701
:102FE0001296DC92CE9211978DE992E093838283C0
:102FF000F582E482B782A6820E94AE5EEDB7FEB78C
:1030000038960FB6F894FEBF0FBEEDBFC017D107BC
:1030100038F0CE018A199B098017910708F42BC15B
:1030200000D000D000D0EDB7FEB7319683E090E03D
:10303000ADB7BEB712969C938E93119783EB92E037
:1030400093838283F582E4820E94AE5EEDB7FEB781
:1030500036960FB6F894FEBF0FBEEDBFE091011596
:10306000F0910215309709F4F6C0778D668D558D75
:10307000448D338D228D918D808DADB7BEB758971D
:103080000FB6F894BEBF0FBEADBFEDB7FEB7319619
:1030900003E010E012961C930E931197A2E3EA2E20
:1030A000A3E0FA2EF382E282CCEAD3E0D583C48394
:1030B0001782168270871186628713865487158659
:1030C00046871786308B118A228B138A948B158A38
:1030D000868B178A0E94AE5EE0910115F091021571
:1030E000C788A6887589648953894289318920896E
:1030F000EDB7FEB73196ADB7BEB712961C930E93DF
:103100001197F382E282D583C48388E090E09783AD
:103110008683C0861186A286138674871586668785
:103120001786508B118A428B138A348B158A268B13
:10313000178A0E94AE5EE0910115F0910215C784D6
:10314000A684758564855385428531852085EDB7D4
:10315000FEB73196ADB7BEB712961C930E9311977A
:10316000F382E282D583C48380E190E097838683F3
:10317000C0861186A2861386748715866687178691
:10318000508B118A428B138A348B158A268B178AAF
:103190000E94AE5EE0910115F0910215C2A0A1A0BF
:1031A000738162815781468135812481EDB7FEB7F5
:1031B0003196ADB7BEB712961C930E931197F3825A
:1031C000E282D583C48388E190E097838683C086BA
:1031D0001186A28613867487158666871786508B9C
:1031E000118A428B138A348B158A268B178A0E9488
:1031F000AE5EE0910115F091021563A154A14081EA
:10320000318120A1EDB7FEB738960FB6F894FEBF16
:103210000FBEEDBF3196ADB7BEB712961C930E939D
:10322000119786E693E093838283D583C483668374
:103230001782508711864287138634871586268722
:1032400017860E94AE5EEDB7FEB770960FB6F89483
:10325000FEBF0FBEEDBFDF91CF911F910F91FF9089
:10326000EF90DF90CF90BF90AF900895C28DD38D37
:10327000A688B7887BCE0C7F0C171D0708F0EECE12
:103280009BEEE92E92E0F92E8FE9C82E83E0D82E2E
:10329000B3E0AB2EB12C8DB79EB780970FB6F894E4
:1032A0009EBF0FBE8DBFEDB7FEB73196ADB7BEB7AF
:1032B0001296BC92AE921197F382E282D582C482BA
:1032C00017830683D8018C918087118611968C9183
:1032D00011978287138612968C9112978487158690
:1032E00013968C9113978687178614968C91149752
:1032F000808B118A15968C911597828B138A16965E
:103300008C911697848B158A17968C911797868BBC
:10331000178A18968C911897808F118E19968C9118
:103320001997828F138E1A968C911A97848F158E07
:103330001B968C91868F178E0E94AE5E045F1F4F86
:10334000EDB7FEB7B0960FB6F894FEBF0FBEEDBF57
:103350000C171D0708F49FCF81CE1092C000109269
:10336000C1001092C200519858981092C500109256
:10337000C400089582E08093C00088E18093C1007A
:1033800086E08093C200519A589A1092C50080E15D
:103390008093C40008950E94BA1908959091C000C6
:1033A00095FFFCCF8093C60008950E94BE4780E041
:1033B00090E008958EE4809389008FE180938800E7
:1033C000109280008AE0809381008CE090E065EDAF
:1033D00079E10E94DD45EFE6F0E080818260808344
:1033E0000895FC016817790749F0DB0180E090E05F
:1033F0002D912193019685329105D1F70895CF93B0
:10340000DF930E942E1A80E090E060E070E00E945E
:103410002F1AEC010E94494700D000D000D0EDB730
:10342000FEB731960C96ADB7BEB712969C938E93AD
:1034300011978CEB93E093838283D583C4830E949E
:10344000D65A8DB79EB706960FB6F8949EBF0FBE9C
:103450008DBF81E090E0DF91CF9108950895CF93E3
:10346000DF930E94431BEC010E94791BBC01EA859B
:10347000FB85CE0109959C012E5E3F4FC901089541
:10348000EF92FF920F931F93CF93DF93EB018C0189
:103490007A014115510599F0FC01808991890097C5
:1034A00011F00E94985AF80186859785F70191835B
:1034B0008083F80180899189F70193838283F801E1
:1034C000D787C687118A108ADF91CF911F910F91FC
:1034D000FF90EF9008950F931F93DF93CF93CDB795
:1034E000DEB70F811885F801268537858089918997
:1034F000009779F09E01255F3F4F69857A85A90184
:103500000E94E75A9C01C901CF91DF911F910F9151
:103510000895C90163EE73E00E94B159F801918BDF
:10352000808B009739F72FEF3FEFEDCFCF92DF92EF
:10353000EF92FF920F931F93DF93CF9300D0CDB7FD
:10354000DEB78B016C01FC01868597852089318966
:103550002115310599F0C80161E070E00E94665ABA
:10356000282F392FC9010F900F90CF91DF911F9114
:103570000F91FF90EF90DF90CF90089563EE73E08E
:1035800049835A830E94B1599C01F601918B808B2B
:1035900049815A810097F9F62FEF3FEFE3CFEF9281
:1035A000FF920F931F93CF93DF93EC018B01FB01ED
:1035B000E080F1800E9449470796E816F90621F15C
:1035C000F801808191810097A9F00E94985AF80132
:1035D000808191810E94095A8FEF9FEF99838883A0
:1035E000F80111821082DF91CF911F910F91FF900E
:1035F000EF9008958881998197FDEECF81309105F4
:1036000059F30E94933BE8CF0E94494707960E94D6
:10361000985A81E090E099838883E5CFEF92FF92FA
:103620000F931F93CF93DF93E82EE7017E01F92ECE
:10363000E7018B01B701605F7F4FC7010E960E94C3
:10364000CF1AF801808191819F878E878281938133
:10365000998B888BDF91CF911F910F91FF90EF9005
:1036600008958B01E82EE7017E01F92EB701605F16
:103670007F4FC7010E960E94CF1AC7010E94C61045
:10368000C8010E944305EF92FF92CF93DF9382E53A
:1036900090E00E94D210E82EE7017E01F92EE701AA
:1036A000209709F186E99AE1998388838BE69AE16C
:1036B0009B838A838BE39AE19D838C8381E39BE1E7
:1036C0009B878A8780E49AE19F838E838EE09BE1CB
:1036D0009987888781E090E09F878E870E9449477D
:1036E0000796998B888BCE01DF91CF91FF90EF9059
:1036F0000895EF92FF920F931F93CF93DF93EC0106
:103700006889798981E094E00E94B95A8889998909
:103710000E94985A8E010E5E1F4F08C0CE01B8015C
:103720000E94BF1E888999890E94985A6889798960
:1037300083E194E00E94B95A888999890E94985A35
:103740000E9449477C010E944947A7014E5F5F4F95
:103750009C01295F3F4FC80160E470E00E944C1C4F
:103760002FEF8F3F9207D1F68DB79EB70A970FB60E
:10377000F8949EBF0FBE8DBFEDB7FEB73196888916
:103780009989ADB7BEB712969C938E93119789E332
:1037900095E09383828385EE93E09583848381EF24
:1037A00093E09783868381E090E0918780870E94F1
:1037B000D65A8DB79EB70A960FB6F8949EBF0FBE25
:1037C0008DBF81E090E0DF91CF911F910F91FF902D
:1037D000EF900895FC01808591850E94583E0895E0
:1037E000EF92FF920F931F93DF93CF930F92CDB77A
:1037F000DEB77C0169838E010F5F1F4F02C0009707
:1038000091F4F70180859185B80141E050E00E9474
:10381000583E97FFF4CF0E945105FC0180819181B1
:103820008430910571F30F90CF91DF911F910F912B
:10383000FF90EF900895EF92FF920F931F93DF9305
:10384000CF930F92CDB7DEB77C018E010F5F1F4F74
:10385000F70186819781B80141E050E00E944A3D1E
:103860000097B9F097FD0DC02981332727FD3095CA
:10387000C9010F90CF91DF911F910F91FF90EF90B1
:1038800008950E945105FC01808191818430910549
:10389000F9F22FEF3FEFECCF0F931F93DF93CF930E
:1038A000CDB7DEB72A970FB6F894DEBF0FBECDBFF7
:1038B0008C01DB018BE19CE19A838983FA01808191
:1038C000918198878F8380EF9BE19C838B838AEE25
:1038D0009BE19E838D83F901808191819A878987FD
:1038E000CE010196B801AD010E94B9352A960FB6F6
:1038F000F894DEBF0FBECDBFCF91DF911F910F9126
:1039000008958F929F92AF92BF92CF92DF92EF92E3
:10391000FF920F931F93CF93DF935C016B01FB0129
:10392000C081D1816881662331F453C021966881BA
:10393000662309F44EC0772767FD70958CEA95E001
:103940000E941E5F009791F78881882309F441C087
:103950008E3309F44EC08332C9F1823209F454C067
:103960008CEAE82E85E0F82E4E010894811C911C0B
:103970006981662309F458C0840106C00F5F1F4F98
:10398000F8016081662371F0772767FD7095C701A4
:103990000E941E5F009791F3F8018081882311F047
:1039A00011928F01F601118300838881843299F48A
:1039B000C40161EB75E00E94425F0097B9F5F50123
:1039C0008081882371F1C3EBD5E005C0F601D18376
:1039D000C083C0E0D0E0CE01DF91CF911F910F9165
:1039E000FF90EF90DF90CF90BF90AF909F908F901F
:1039F0000895CE01019629812E3361F0F60191835D
:103A00008083C7EAD5E0E7CF21969AEFE92E93E0CD
:103A1000F92EAACF2296F601D183C083C9EAD5E058
:103A2000DACFC5EBD5E0D7CF8401BCCFC4010E946B
:103A30008B4CEC01009779F6C0EBD5E0CCCF2F9200
:103A40003F924F925F926F927F928F929F92AF922E
:103A5000BF92CF92DF92EF92FF920F931F93DF936B
:103A6000CF93CDB7DEB76B970FB6F894DEBF0FBE1E
:103A7000CDBF4C018B0188E0482E512C4C0E5D1EB1
:103A8000C20160E070E044E150E00E94D40ED40135
:103A90001C961C921A8309831DE0C12ED12CC80CE0
:103AA000D91CC6015E010894A11CB11CB5010E947D
:103AB000811C3C01009709F44BC1998788878E01CE
:103AC000065F1F4FB1E0EB2EF12CC601B5010E943D
:103AD000811CF801819391938F01009709F455C0DF
:103AE0000894E11CF11CF9E0EF16F10471F71B8E4C
:103AF0001A8E7EEF272E7FEF372E2E0C3F1C810172
:103B0000000F111F0A0D1B1DD80117968D919C9156
:103B1000189767EA75E00E94425F009709F4CBC0EE
:103B2000D80117968D919C91189769EA75E00E94CB
:103B3000425F009709F40FC1AA24BB24CC24DD24E2
:103B4000F7E0EF16F1048CF100D000D000D0EDB713
:103B5000FEB73196ADB7BEB712969C928E92119772
:103B60008DED94E09383828375826482D4011296F2
:103B7000ED91FC9113970995EDB7FEB736960FB608
:103B8000F894FEBF0FBEEDBF10C0F701EE0FFF1F90
:103B9000EA0DFB1D1086178223E0E216F1040CF0FB
:103BA000A8CFAA24BB24CC24DD2468857985C40150
:103BB000A201960185010E94523597FD64C021E063
:103BC000009709F420E0D4011D962C931D97222321
:103BD00009F056C000E010E0C114D10419F0C6018C
:103BE0000E94F82EC8016B960FB6F894DEBF0FBE88
:103BF000CDBFCF91DF911F910F91FF90EF90DF909C
:103C0000CF90BF90AF909F908F907F906F905F907C
:103C10004F903F902F900895D4011296ED90FC9014
:103C20001397088519850E945105EDB7FEB73A979D
:103C30000FB6F894FEBF0FBEEDBF3196ADB7BEB75D
:103C400012969C928E92119729E335E0338322835A
:103C5000158304832CEF33E037832683DC018D91B9
:103C60009C9191878087F7010995EDB7FEB73A9649
:103C70000FB6F894FEBF0FBEEDBF81E0F40185875B
:103C80000FEF1FEFA9CFF4018485882341F5C4010C
:103C9000B701A2010E9426228C01F40184858823A9
:103CA00009F04DC017FDE9CFD4011D961C921D9758
:103CB00000E010E091CF81E0F4018487F7013197B3
:103CC000EE0FFF1FEA0DFB1D67817085C4010E9486
:103CD000392E6C01710146E2A42EB12C31CF00D0F7
:103CE00000D000D0EDB7FEB73196ADB7BEB7129693
:103CF000DC92CE921197B382A28286EB91E09583FB
:103D000084830E948D3CBC01EDB7FEB736960FB69A
:103D1000F894FEBF0FBEEDBF97FD7ECFD4011C9679
:103D20008C911C97882309F4B2CF1696ED91FC91E3
:103D30001797C401AE014D5F5F4F0995A8CF00846E
:103D4000F185E02DC401BE016D5F7F4F0995AACFBB
:103D500000E010E047CF81E0F4018487F70131975C
:103D6000EE0FFF1FEA0DFB1D67817085C4010E94E5
:103D7000392E6C01710126E1A22EB12CE1CECF9239
:103D8000DF92EF92FF920F931F93CF93DF938C01FB
:103D9000C62EE6017E01F72EE701E62ECE0162EA8D
:103DA00075E00E94565FC80FD91F88818823E1F013
:103DB0008A30D1F08332C1F08B3359F0CE010196B5
:103DC00062E270E00E941E5F0097E9F0EC0121962C
:103DD000E5CF1882C801B7010E941F1D9C01009702
:103DE00041F421967E01DACFC801B7010E941F1D60
:103DF0009C01C901DF91CF911F910F91FF90EF902E
:103E0000DF90CF9008952DB73EB7285030400FB6C1
:103E1000F8943EBF0FBE2DBFEDB7FEB73196ADB7DC
:103E2000BEB712961C930E93119787E594E0938387
:103E300082838AEF93E09583848397838683D80176
:103E40001296ED91FC91139709952DB73EB7285F17
:103E50003F4F0FB6F8943EBF0FBE2DBF2FEF3FEF81
:103E6000C8CF00D000D000D0EDB7FEB73196ADB7C7
:103E7000BEB712969C938E93119728EA34E0338351
:103E80002283DA012D913C9135832483DC01129643
:103E9000ED91FC91139709958DB79EB706960FB6D5
:103EA000F8949EBF0FBE8DBF8FEF9FEF0895EF92E6
:103EB000FF920F931F93CF93DF937C018B0187EBCE
:103EC00095E0C4E7D7E006C02896888199810097DD
:103ED00009F45DC0B8010E94425F0097A9F700D0C5
:103EE00000D000D0EDB7FEB73196ADB7BEB7129691
:103EF000FC92EE92119789EB95E093838283158370
:103F00000483D7011296ED91FC91139709952881AE
:103F100039818E819F814DB75EB74A5F5F4F0FB683
:103F2000F8945EBF0FBE4DBF009709F45BC0ADB7FC
:103F3000BEB718970FB6F894BEBF0FBEADBFEDB7B2
:103F4000FEB731961296FC92EE92119743EC55E033
:103F5000538342833583248397838683D7011296C4
:103F6000ED91FC91139709954DB75EB7485F5F4F90
:103F70000FB6F8945EBF0FBE4DBF20E030E0C90120
:103F8000DF91CF911F910F91FF90EF90089500D096
:103F900000D000D0EDB7FEB73196ADB7BEB71296E0
:103FA000FC92EE92119788EA94E0938382831583C2
:103FB0000483D7011296ED91FC91139709954DB7A3
:103FC0005EB74A5F5F4F0FB6F8945EBF0FBE4DBF3E
:103FD0002FEF3FEFC901DF91CF911F910F91FF901C
:103FE000EF90089500D000D000D0EDB7FEB7319625
:103FF000ADB7BEB71296FC92EE9211978CEC95E09D
:104000009383828335832483D7011296ED91FC91AB
:10401000139709954DB75EB74A5F5F4F0FB6F89497
:104020005EBF0FBE4DBF20E030E0D4CF2F923F9255
:104030004F925F926F927F928F929F92AF92BF92B8
:10404000CF92DF92EF92FF920F931F93DF93CF9364
:1040500000D0CDB7DEB78C017B016A0162307105FB
:104060000CF4DFC0D60112968D919C91139762EDEE
:1040700075E00E94425F009721F1D60112966D9182
:104080007C91139780E06115710509F44EC0C80159
:104090000E94571F80E090E00F900F90CF91DF912A
:1040A0001F910F91FF90EF90DF90CF90BF90AF9056
:1040B0009F908F907F906F905F904F903F902F9048
:1040C0000895B2E0EB16F10409F4BDC1F601648174
:1040D000758100D000D0ADB7BEB712961C930E9379
:1040E000119785ED95E014969C938E931397D801C4
:1040F0001296ED91FC91139769837A830995EDB738
:10410000FEB71283018389EE95E094838383D801FF
:104110001296ED91FC91139709950F900F900F90C7
:104120000F9081E07A816981AECF882309F479C04C
:1041300000D000D0EDB7FEB71283018388E096E08F
:1041400094838383D8011296ED91FC91139709957E
:104150000F900F900F900F9087EB95E0A4E7AA2E99
:10416000A7E0BA2EFCECCF2EF5E0DF2EE3ECEE2E2E
:10417000E5E0FE2E31C04DB75EB7485050400FB657
:10418000F8945EBF0FBE4DBFEDB7FEB73196ADB729
:10419000BEB712961C930E931197F382E282958319
:1041A000848337832683D8011296ED91FC9113976F
:1041B0000995EDB7FEB738960FB6F894FEBF0FBE5F
:1041C000EDBF48E050E0A40EB51ED5018D919C9145
:1041D0001197009709F4F1C0F50126813781211567
:1041E000310549F600D000D000D0EDB7FEB73196CA
:1041F000ADB7BEB712961C930E931197D382C282AD
:1042000095838483D8011296ED91FC9113970995BB
:10421000EDB7FEB736960FB6F894FEBF0FBEEDBFF2
:10422000D0CFC80160E276E00E94571F00D000D0D6
:10423000EDB7FEB71283018375E2472E76E0572E65
:1042400054824382D8011296ED91FC9113970995FF
:1042500064E7662E67E0762E0F900F900F900F9018
:1042600053E0C52ED12C47E2242E46E0342E3AE20C
:10427000A32E36E0B32E00D000D0EDB7FEB71283E8
:10428000018334822382D8011296ED91FC91139719
:104290000995C60103970F900F900F900F908231F0
:1042A000910508F068C000D000D000D0EDB7FEB78F
:1042B0003196ADB7BEB712961C930E931197B38289
:1042C000A282D3018D919C9195838483D80112960B
:1042D000ED91FC91139709957601EE0CFF1CEE0C05
:1042E000FF1CEE0CFF1CE4E7F7E0EE0EFF1E8CE077
:1042F000882E912C8C0C9D1C4DB75EB74A5F5F4F8A
:104300000FB6F8945EBF0FBE4DBF96012231310546
:1043100090F500D000D000D0EDB7FEB73196ADB724
:10432000BEB712961C930E931197B382A282D70147
:104330008D919C9195838483D8011296ED91FC9187
:10434000139729833A830995E8E1F0E0EE0EFF1E0A
:104350004DB75EB74A5F5F4F0FB6F8945EBF0FBEB2
:104360004DBF29813A818216930629F02D5F3F4F78
:104370002231310570F200D000D0ADB7BEB7129631
:104380001C930E93119714965C924E921397D8013A
:104390001296ED91FC91139709950894C11CD11CBC
:1043A000E8E0F0E06E0E7F1E0F900F900F900F90E0
:1043B000F6E0CF16D10409F05ECF00D000D0ADB743
:1043C000BEB712961C930E93119780E396E0149655
:1043D0009C938E931397D8011296ED91FC911397AD
:1043E00009950F900F900F900F90CC24DD242CECAA
:1043F000E22E25E0F22E21C000D000D000D0EDB793
:10440000FEB73196ADB7BEB712961C930E931197B7
:10441000F382E28295838483D8011296ED91FC9118
:10442000139709950894C11CD11CEDB7FEB73696B9
:104430000FB6F894FEBF0FBEEDBFC6010E942F4518
:104440000097D1F627CE60E070E043CEAF92BF92E6
:10445000CF92DF92EF92FF920F931F93CF93DF9350
:104460005C016B017A01DA010D911C91119787EBC8
:1044700095E0C4E7D7E005C0289688819981009728
:1044800011F1B8010E94425F0097B1F78C8190E072
:10449000C816D906DCF08D8190E08C159D05C4F11D
:1044A000EA81FB81C501B601A70109959C01C901FB
:1044B000DF91CF911F910F91FF90EF90DF90CF9000
:1044C000BF90AF900895E1E3FFE1ECCF00D000D0C2
:1044D00000D0EDB7FEB73196ADB7BEB71296BC921D
:1044E000AE92119780E394E09383828315830483D3
:1044F000F50182819381FC0109958DB79EB70696DF
:104500000FB6F8949EBF0FBE8DBF2FEF3FEFCFCFFA
:1045100000D000D000D0EDB7FEB73196ADB7BEB732
:104520001296BC92AE9211978DED94E0DDCF0F9371
:104530001F93CF93DF93EC018B016CE078E00E9436
:10454000425F009771F1ADB7BEB718970FB6F894F8
:10455000BEBF0FBEADBFEDB7FEB731968BE292E1A5
:1045600012969C938E93119782E198E093838283B5
:10457000D583C483178306830E94ED508DB79EB701
:1045800008960FB6F8949EBF0FBE8DBF1092AC1266
:104590008BE292E10E94805FDF91CF911F910F919A
:1045A000089500D000D000D0EDB7FEB731968BE271
:1045B00092E1ADB7BEB712969C938E9311978EE0A1
:1045C00098E093838283158304830E94ED508DB716
:1045D0009EB706960FB6F8949EBF0FBE8DBFD6CF7E
:1045E000AF92BF92CF92DF92EF92FF920F931F9301
:1045F000CF93DF937C018B015A016901CB010E94AB
:10460000413FEC01009709F1CE010E94E03FAC016F
:104610000097C1F0C701B8019601F501099597FF10
:10462000F3CF0FEF1FEFCE010E94113FC801DF91C2
:10463000CF911F910F91FF90EF90DF90CF90BF909F
:10464000AF90089500E010E0EECF8DB79EB70A97C7
:104650000FB6F8949EBF0FBE8DBFEDB7FEB7319673
:10466000ADB7BEB71296FC92EE92119784EC94E02F
:104670009383828388E198E0958384838BE198E03B
:104680009783868311870087F70182819381FC01DC
:1046900009958DB79EB70A960FB6F8949EBF0FBEC8
:1046A0008DBF0FEF1FEFC2CFCF92DF92EF92FF923D
:1046B0000F931F93CF93DF938C016B01EA01790174
:1046C000888183FD0CC0C0E0D0E0CE01DF91CF91A6
:1046D0001F910F91FF90EF90DF90CF90089521965A
:1046E000CE0165E278E00E94425F009761F3CE015F
:1046F00067E278E00E94425F009729F3C601BE019D
:104700000E9497226C0100D000D000D0EDB7FEB718
:104710003196ADB7BEB712961C930E9311978AE2ED
:1047200098E093838283D582C482D8011296ED915A
:10473000FC91139709952DB73EB72A5F3F4F0FB6EF
:10474000F8943EBF0FBE2DBFC801B6014BEB53E23C
:1047500097010E94F022EC01009709F0B6CFC80142
:10476000B60144E553E297010E94F022EC01C60134
:104770000E94C610AACF6F927F928F929F92AF92A3
:10478000BF92CF92DF92EF92FF920F931F93DF932E
:10479000CF93CDB7DEB7A3970FB6F894DEBF0FBEA9
:1047A000CDBF8C014B016A015901C9018370907022
:1047B000009709F485C04115510509F44AC1BA01B1
:1047C0006F5F7F4FC4010E9497223C01BE01645F6E
:1047D0007F4F0E94793D7C01C3010E94C610E11405
:1047E000F10409F047C1A1FE69C09E012F5F3F4F50
:1047F000D901E6E4F8E08BE001900D928150E1F7F9
:104800008C859D85AC014070507FF0E440305F079F
:1048100009F427C160E24030560709F425C1A0E63B
:1048200040305A0709F423C1B0E840305B0711F06B
:104830004FE3498390FF02C042E74A8387FF02C0EB
:1048400047E74B8386FF02C048E74C8385FF02C0E1
:1048500042E74D8384FF02C047E74E8383FF02C0D7
:1048600048E74F8382FF02C042E7488781FF02C0CA
:1048700047E7498780FF02C088E78A8700D000D0D9
:1048800000D0EDB7FEB73196ADB7BEB712961C9308
:104890000E93119784E398E0938382833583248376
:1048A000D8011296ED91FC9113970995EDB7FEB7DB
:1048B00036960FB6F894FEBF0FBEEDBFA0FC76C0D3
:1048C000C114D10409F4A2C076010894E11CF11CC2
:1048D00000D000D000D0EDB7FEB73196ADB7BEB76F
:1048E00012961C930E93119784E398E0938382832E
:1048F000F582E482D8011296ED91FC911397099507
:10490000F60180812DB73EB72A5F3F4F0FB6F8946E
:104910003EBF0FBE2DBF83FF07C0C70165E278E031
:104920000E94425F009781F500D000D0ADB7BEB7BE
:1049300012961C930E9311978CE398E014969C9317
:104940008E931397D8011296ED91FC9113970995C8
:104950000F900F900F900F9020E030E0C901A396C8
:104960000FB6F894DEBF0FBECDBFCF91DF911F9180
:104970000F91FF90EF90DF90CF90BF90AF909F90FE
:104980008F907F906F900895C70167E278E00E9452
:10499000425F009749F200D000D0ADB7BEB7129683
:1049A0001C930E93119783E498E0C8CF2DB73EB7C0
:1049B000285030400FB6F8943EBF0FBE2DBFEDB764
:1049C000FEB73196ADB7BEB712961C930E931197F2
:1049D00088E398E0938382838E859F85A889B9892F
:1049E00084839583A683B783D8011296ED91FC91B9
:1049F00013970995EDB7FEB738960FB6F894FEBF3A
:104A00000FBEEDBFC114D10409F05ECF00D000D0BD
:104A100000D0EDB7FEB73196ADB7BEB712961C9376
:104A20000E9311978EE398E093838283958284821C
:104A3000D8011296ED91FC9113970995EDB7FEB749
:104A400036960FB6F894FEBF0FBEEDBF20E030E003
:104A500085CFCB01BE01645F7F4F0E94793D7C0111
:104A6000BECE44E64983E6CE43E64983E3CE42E642
:104A70004983E0CED8011296ED90FC9013970E94E6
:104A80005105EDB7FEB73A970FB6F894FEBF0FBECB
:104A9000EDBF3196ADB7BEB712961C930E9311972A
:104AA00029E335E03383228328E138E0358324830A
:104AB0002FE238E037832683DC018D919C9191872A
:104AC0008087F7010995EDB7FEB73A960FB6F894CF
:104AD000FEBF0FBEEDBF2FEF3FEF40CF2F923F92B3
:104AE0004F925F926F927F928F929F92AF92BF92FE
:104AF000CF92DF92EF92FF920F931F93DF93CF93AA
:104B0000CDB7DEB728970FB6F894DEBF0FBECDBF86
:104B10006C017A8369835E834D83623071050CF486
:104B2000A5C11A0122E030E0220E331E81E0682E7A
:104B3000712CD1016D917D911D01C6010E94392E0C
:104B40004C01009709F4D2C0ED81FE810190F08103
:104B5000E02DFC83EB8300D000D0ADB7BEB712963A
:104B60009C938E931197E1E0F0E01496FC93EE9302
:104B700013970E948D3C7C010F900F900F900F9027
:104B800097FD3FC180E092E00E94CC108C0100971D
:104B900009F46FC144245524C701B80140E052E034
:104BA0000E944A3D97FD20C0009709F458C0AA24EE
:104BB000BB249C01D601ED91FC91C601B801A9016D
:104BC0002F83388709952F81388597FDB9C0A80EA6
:104BD000B91EA216B30674F3C701B80140E052E053
:104BE0000E944A3D97FFE0CF0E945105DC018D9164
:104BF0009C9111978430910509F47CC02DB73EB784
:104C00002A5030400FB6F8943EBF0FBE2DBFEDB70F
:104C1000FEB73196ADB7BEB71296DC92CE92119721
:104C200029E335E033832283AB81BC81B583A48340
:104C30002DE538E03783268391878087D601129649
:104C4000ED91FC9113970995EDB7FEB73A960FB623
:104C5000F894FEBF0FBEEDBF44244A94542C00D0FC
:104C600000D0ADB7BEB71296DC92CE921197ECE3AE
:104C7000F8E01496FC93EE931397D6011296ED91FB
:104C8000FC91139709950F900F900F900F90C7010B
:104C90000E94933BC8010E94C610C4010E94F82ED6
:104CA0000894611C711CE981FA816E167F0624F458
:104CB0004114510409F43DCFC20128960FB6F8946F
:104CC000DEBF0FBECDBFCF91DF911F910F91FF903F
:104CD000EF90DF90CF90BF90AF909F908F907F909C
:104CE0006F905F904F903F902F90089544244A9486
:104CF000542CD6CF00D000D000D0EDB7FEB73196FF
:104D0000ADB7BEB71296DC92CE92119722E835E08D
:104D1000338322838B819C8195838483D601129671
:104D2000ED91FC9113970995EDB7FEB736960FB646
:104D3000F894FEBF0FBEEDBF44244A94542C8FCF8D
:104D40000E945105FC018081918184309105A9F177
:104D5000D6011296AD90BC9013970E945105EDB705
:104D6000FEB73A970FB6F894FEBF0FBEEDBF31966F
:104D7000ADB7BEB71296DC92CE92119729E335E01B
:104D800033832283AB81BC81B583A48322E638E0E0
:104D900037832683DC018D919C9191878087F50173
:104DA0000995EDB7FEB73A960FB6F894FEBF0FBE61
:104DB000EDBF44244A94542CEFCE00D000D000D054
:104DC000EDB7FEB73196ADB7BEB71296DC92CE9274
:104DD000119722E835E0338322838B819C81958370
:104DE0008483D60112968D919C911397FC010995AD
:104DF000EDB7FEB736960FB6F894FEBF0FBEEDBF07
:104E0000D8CFD60112960D911C9113970E9451058F
:104E1000EDB7FEB73A970FB6F894FEBF0FBEEDBFE1
:104E20003196ADB7BEB71296DC92CE92119729E3B8
:104E300035E033832283AB81BC81B583A48321E534
:104E400038E037832683DC018D919C9191878087A0
:104E5000F8010995EDB7FEB73A960FB6F894FEBF84
:104E60000FBEEDBF44244A94542C17CF442455243C
:104E700023CFD60112960D911C9113970E945105D4
:104E8000EDB7FEB73A970FB6F894FEBF0FBEEDBF71
:104E90003196ADB7BEB71296DC92CE92119729E348
:104EA00035E033832283AB81BC81B583A48326E5BF
:104EB00038E0C7CF2F923F924F925F926F927F92CE
:104EC0008F929F92AF92BF92CF92DF92EF92FF921A
:104ED0000F931F93DF93CF93CDB7DEB76C970FB6C9
:104EE000F894DEBF0FBECDBF6C015A01DA011296F5
:104EF0006D917C9113970E94392E7C01009709F4E3
:104F000074C000D000D0EDB7FEB79283818381E0FA
:104F100090E0948383830E948D3C3C010F900F901E
:104F20000F900F9097FD7EC0D50114966D917C91E6
:104F30001597C6010E94392E1C01009709F4AEC0D6
:104F4000BE016F5F7F4F0E94793D2C01009709F0F1
:104F5000ACC089819A818070907FB0E480309B07DB
:104F600009F480C130E88030930709F49EC082E0E4
:104F700090E01A8E198E00D000D000D0EDB7FEB7A9
:104F80003196ADB7BEB712963C922E92119793838D
:104F9000828386EB91E0958384830E948D3C4C0153
:104FA000EDB7FEB736960FB6F894FEBF0FBEEDBF55
:104FB00097FD22C1C3016BE272E140E052E00E9422
:104FC0004A3D8C01009709F487C197FD73C0C40165
:104FD0006BE272E1A8010E94583E97FDB9C0081B20
:104FE000190B101611069CF3E5CF44244A94542C57
:104FF000C2016C960FB6F894DEBF0FBECDBFCF9145
:10500000DF911F910F91FF90EF90DF90CF90BF90B5
:10501000AF909F908F907F906F905F904F903F9058
:105020002F900895D60112968D909C901397F501BC
:10503000008111810E9451052DB73EB72A503040A2
:105040000FB6F8943EBF0FBE2DBFEDB7FEB7319639
:10505000ADB7BEB71296DC92CE92119729E335E038
:10506000338322831583048321E538E03783268345
:10507000DC018D919C9191878087F4010995EDB7B2
:10508000FEB73A960FB6F894FEBF0FBEEDBF4424AC
:105090004A94542CC7010E94F82EAACF44244A9463
:1050A000542CC3010E94933BF5CF86E290E01A8E08
:1050B000198E61CF0E945105DC018D919C91119751
:1050C0008430910509F474C0D60112960D90BC91FC
:1050D000A02DBC8FAB8FF501008111810E9451057D
:1050E0009C018DB79EB70A970FB6F8949EBF0FBE6E
:1050F0008DBFEDB7FEB73196ADB7BEB71296DC9255
:10510000CE92119789E395E093838283158304837C
:105110008DE598E097838683D9018D919C91918745
:105120008087EB8DFC8D09952DB73EB7265F3F4FED
:105130000FB6F8943EBF0FBE2DBFC4010E94933B33
:10514000898D9A8D009709F4EDC00E94C610A9CFF1
:105150000E945105DC018D919C911197843091053D
:1051600039F1D60112960D90BC91A02DBC8FAB8F5A
:10517000F501008111810E9451059C018DB79EB7F8
:105180000A970FB6F8949EBF0FBE8DBFEDB7FEB75E
:105190003196ADB7BEB71296DC92CE92119789E3E5
:1051A00095E0938382831583048382E698E0B2CFEF
:1051B00000D000D000D0EDB7FEB73196ADB7BEB786
:1051C0001296DC92CE92119782E895E093838283C7
:1051D000D5018D919C9195838483D6011296ED9192
:1051E000FC9113970995EDB7FEB736960FB6F89474
:1051F000FEBF0FBEEDBFA1CFD60112968D909C9041
:105200001397F501008111810E9451059C018DB712
:105210009EB70A970FB6F8949EBF0FBE8DBFEDB72D
:10522000FEB73196ADB7BEB71296DC92CE9211970B
:1052300089E395E0938382831583048381E598E075
:1052400097838683D9018D919C9191878087F40102
:105250000995EDB7FEB73A960FB6F894FEBF0FBEAC
:10526000EDBF6ECFF50104811581C8010E94E70EE4
:10527000FC01019718161906A4F4D801A80FB91F4C
:105280002C912F3271F43297E00FF11F05C0DF012E
:10529000208131972F3229F41C9201971816190694
:1052A000B4F3D50114960D911C91159712968D911A
:1052B0009C9113970E940460BC01C8010E94972230
:1052C0009A8F898F009759F0C1010E94F82E298C7E
:1052D0003A8C86E290E04FCE442455242ECF00D065
:1052E00000D000D0EDB7FEB73196ADB7BEB712967D
:1052F000DC92CE92119781E595E093838283D5016C
:105300008D919C9195838483F60182819381FC0128
:1053100009952DB73EB72A5F3F4F0FB6F8943EBFB1
:105320000FBE2DBFC1010E94F82EBBCE6F927F929F
:105330009F92AF92BF92CF92DF92EF92FF920F9324
:105340001F93DF93CF93CDB7DEB768970FB6F8946E
:10535000DEBF0FBECDBF5C016B018A019924EE2434
:10536000FF2420E7622E24E0722EC601B80148E631
:1053700058E00E944B5CFFEF8F3F9F07E1F18C36B6
:10538000910551F18337910589F18235910549F1F4
:1053900000D000D000D0EDB7FEB73196ADB7BEB7A4
:1053A0001296BC92AE92119773826282D8018D914F
:1053B0009C9195838483D5011296ED91FC9113976E
:1053C0000995EDB7FEB736960FB6F894FEBF0FBE3F
:1053D000EDBF99249394C9CF23E030E0E22AF32A69
:1053E000C4CF84E090E0E82AF92ABFCFA1E0B0E082
:1053F000EA2AFB2ABACF992009F04CC08091EF0C21
:105400009091F00C9C012F5F3F4F2C153D050CF443
:1054100044C08C159D050CF066C0FC01EE0FFF1F0B
:10542000E00FF11F60817181C5010E94392E6C016E
:10543000009781F1BE016F5F7F4F0E94793D97FD1C
:105440008CC089819A818070907FF0E480309F07C2
:1054500009F44DC0C501B60140E050E097010E943B
:10546000BB238C01C6010E94F82EC80168960FB6B6
:10547000F894DEBF0FBECDBFCF91DF911F910F918A
:10548000FF90EF90DF90CF90BF90AF909F907F9074
:105490006F9008950FEF1FEFE8CF00D000D000D03D
:1054A000EDB7FEB73196ADB7BEB71296BC92AE92CD
:1054B00011978DED94E093838283D8018D919C9117
:1054C00095838483D5011296ED91FC9113970995EC
:1054D000EDB7FEB736960FB6F894FEBF0FBEEDBF20
:1054E0000FEF1FEFC2CF0E942C2EBC019DCF00D02A
:1054F00000D000D0EDB7FEB73196ADB7BEB712966B
:10550000BC92AE9211978AE298E093838283D5820F
:10551000C482D5011296ED91FC9113970995EDB7D0
:10552000FEB736960FB6F894FEBF0FBEEDBFC501AD
:10553000B6014BEB53E297010E94F0228C010097D9
:1055400009F090CFE2FE8ECFC501B60144E553E2EB
:1055500097010E94F0228C0185CFD5011296ED9023
:10556000FC901397F801008111810E9451052DB71D
:105570003EB72A5030400FB6F8943EBF0FBE2DBF45
:10558000EDB7FEB73196ADB7BEB71296BC92AE92EC
:10559000119729E335E033832283158304832FE2B7
:1055A00038E037832683DC018D919C919187808739
:1055B000F7010995EDB7FEB73A960FB6F894FEBF1E
:1055C0000FBEEDBF0FEF1FEF4DCF8F929F92BF9297
:1055D000CF92DF92EF92FF920F931F93CF93DF93BF
:1055E0008C01E62EE7017E01F72EE701CA80DB8001
:1055F000DC0116964D915C9117971C96BC901C97F8
:105600001E966D917C911F9764FFE1C02CE638E0F7
:10561000FB01E370F070EE0FFF1FEA50F74F80813F
:10562000918162FFD0C0FEE48F2E912C63FFC7C032
:1056300070E5E72EF12CEDB7FEB772970FB6F89430
:10564000FEBF0FBEEDBF3196ADB7BEB71296DC936D
:10565000CE93119766E778E0738362835583448322
:10566000B6821782318720879387828795868486C2
:10567000F786E686D8011D968C91A82FB0E0AA0F78
:10568000BB1FA35CB64F8D919C91918B808BF601D3
:105690000995EDB7FEB73E960FB6F894FEBF0FBE64
:1056A000EDBFD283C1838FE898E094838383EA813E
:1056B000FB81099533E6E32EF12CE00EF11ED701B4
:1056C000ED91FC911197828193810F900F900F9033
:1056D0000F90009709F452C000D000D000D0EDB771
:1056E000FEB73196ADB7BEB71296DC93CE93119745
:1056F00029E938E03383228395838483EA81FB811F
:105700000995D701ED91FC91119784819581EDB7B1
:10571000FEB736960FB6F894FEBF0FBEEDBF0097EA
:1057200069F106E010E02CE9C22E28E0D22E00D06C
:1057300000D000D0EDB7FEB73196ADB7BEB7129628
:10574000DC93CE931197D382C28295838483EA81BE
:10575000FB810995D701ED91FC911197E00FF11FA5
:10576000808191810E5F1F4FEDB7FEB736960FB661
:10577000F894FEBF0FBEEDBF0097C9F600D000D071
:10578000ADB7BEB71296DC93CE93119781EA98E03D
:1057900014969C938E931397EA81FB8109950F9041
:1057A0000F900F900F90DF91CF911F910F91FF906D
:1057B000EF90DF90CF90BF909F908F90089560E220
:1057C000E62EF12C38CFE0E28E2E912C2FCF21E760
:1057D00038E01ECFCF93DF93EC0100D000D0EDB7BF
:1057E000FEB79283818384EA98E094838383EA817D
:1057F000FB8109950F900F900F900F9085EE9AE224
:10580000BE010E94964780E090E0DF91CF9108951D
:105810008F929F92AF92BF92CF92DF92EF92FF92C0
:105820000F931F93DF93CF9300D0CDB7DEB76C01FA
:105830008A01DA011296ED91FC91139780818D32E5
:1058400009F07FC0CF010196218120330CF479C08B
:105850002A330CF076C07E010894E11CF11CB701DC
:1058600040E050E00E94455B4B015C01F8018481FF
:105870009581DC012C9120532A3008F062C0B701D9
:1058800040E050E00E94455BDC01CB01B4010E9486
:10589000494C009791F420E030E0C9010F900F903F
:1058A000CF91DF911F910F91FF90EF90DF90CF90FC
:1058B000BF90AF909F908F9008950E945105FC017A
:1058C000808191818330910509F461C08631910511
:1058D000C1F1D6011296ED90FC901397F80100816A
:1058E00011810E9451052DB73EB72A5030400FB6A6
:1058F000F8943EBF0FBE2DBFEDB7FEB73196ADB7E2
:10590000BEB71296DC92CE92119729E335E033832D
:1059100022831583048321ED38E037832683DC015D
:105920008D919C9191878087F7010995EDB7FEB71E
:105930003A960FB6F894FEBF0FBEEDBF2FEF3FEFC4
:10594000ACCF00D000D000D0EDB7FEB73196ADB7E8
:10595000BEB71296DC92CE92119780E794E09383C3
:105960008283D8018D919C9195838483D601129670
:10597000ED91FC9113970995EDB7FEB736960FB6EA
:10598000F894FEBF0FBEEDBF2FEF3FEF86CF2DB7D0
:105990003EB72A5030400FB6F8943EBF0FBE2DBF21
:1059A000EDB7FEB73196ADB7BEB71296DC92CE9288
:1059B000119784EC94E093838283D8018D919C911C
:1059C0001197958384838CEC98E097838683149653
:1059D0008D919C91159791878087D6011296ED91B4
:1059E000FC9113970995EDB7FEB73A960FB6F89468
:1059F000FEBF0FBEEDBF2FEF3FEF4FCFEF92FF92F5
:105A00000F931F93DF93CF9300D0CDB7DEB77C0108
:105A10008A01DA0112968D919C911397BE016F5FF6
:105A20007F4F40E050E00E94455B611571058105A4
:105A30009105E1F0E981FA81D80112962D913C910E
:105A400013972E173F0791F02081222379F4CB0181
:105A50000E94DB5D20E030E0C9010F900F90CF91F4
:105A6000DF911F910F91FF90EF90089500D000D02B
:105A700000D0EDB7FEB73196ADB7BEB71296FC9227
:105A8000EE92119780E794E093838283D8018D9101
:105A90009C9195838483D7011296ED91FC91139785
:105AA0000995EDB7FEB736960FB6F894FEBF0FBE58
:105AB000EDBF2FEF3FEFD0CFEF92FF920F931F93E9
:105AC000DF93CF9300D0CDB7DEB77C018A01DA0136
:105AD00012968D919C911397BE016F5F7F4F40E0AE
